{
	"contracts/TransparentSupplyChain.sol": {
		"TransparentSupplyChain": {
			"abi": [
				{
					"inputs": [],
					"stateMutability": "nonpayable",
					"type": "constructor"
				},
				{
					"inputs": [],
					"name": "AccessControlBadConfirmation",
					"type": "error"
				},
				{
					"inputs": [
						{
							"internalType": "address",
							"name": "account",
							"type": "address"
						},
						{
							"internalType": "bytes32",
							"name": "neededRole",
							"type": "bytes32"
						}
					],
					"name": "AccessControlUnauthorizedAccount",
					"type": "error"
				},
				{
					"anonymous": false,
					"inputs": [
						{
							"indexed": false,
							"internalType": "uint256",
							"name": "productId",
							"type": "uint256"
						},
						{
							"indexed": false,
							"internalType": "string",
							"name": "location",
							"type": "string"
						},
						{
							"indexed": false,
							"internalType": "string",
							"name": "description",
							"type": "string"
						}
					],
					"name": "CheckpointAdded",
					"type": "event"
				},
				{
					"anonymous": false,
					"inputs": [
						{
							"indexed": false,
							"internalType": "uint256",
							"name": "productId",
							"type": "uint256"
						},
						{
							"indexed": false,
							"internalType": "string",
							"name": "name",
							"type": "string"
						},
						{
							"indexed": false,
							"internalType": "string",
							"name": "origin",
							"type": "string"
						},
						{
							"indexed": false,
							"internalType": "address",
							"name": "owner",
							"type": "address"
						}
					],
					"name": "ProductCreated",
					"type": "event"
				},
				{
					"anonymous": false,
					"inputs": [
						{
							"indexed": false,
							"internalType": "uint256",
							"name": "productId",
							"type": "uint256"
						},
						{
							"indexed": false,
							"internalType": "address",
							"name": "from",
							"type": "address"
						},
						{
							"indexed": false,
							"internalType": "address",
							"name": "to",
							"type": "address"
						}
					],
					"name": "ProductTransferred",
					"type": "event"
				},
				{
					"anonymous": false,
					"inputs": [
						{
							"indexed": true,
							"internalType": "bytes32",
							"name": "role",
							"type": "bytes32"
						},
						{
							"indexed": true,
							"internalType": "bytes32",
							"name": "previousAdminRole",
							"type": "bytes32"
						},
						{
							"indexed": true,
							"internalType": "bytes32",
							"name": "newAdminRole",
							"type": "bytes32"
						}
					],
					"name": "RoleAdminChanged",
					"type": "event"
				},
				{
					"anonymous": false,
					"inputs": [
						{
							"indexed": true,
							"internalType": "bytes32",
							"name": "role",
							"type": "bytes32"
						},
						{
							"indexed": true,
							"internalType": "address",
							"name": "account",
							"type": "address"
						},
						{
							"indexed": true,
							"internalType": "address",
							"name": "sender",
							"type": "address"
						}
					],
					"name": "RoleGranted",
					"type": "event"
				},
				{
					"anonymous": false,
					"inputs": [
						{
							"indexed": true,
							"internalType": "bytes32",
							"name": "role",
							"type": "bytes32"
						},
						{
							"indexed": true,
							"internalType": "address",
							"name": "account",
							"type": "address"
						},
						{
							"indexed": true,
							"internalType": "address",
							"name": "sender",
							"type": "address"
						}
					],
					"name": "RoleRevoked",
					"type": "event"
				},
				{
					"inputs": [],
					"name": "DEFAULT_ADMIN_ROLE",
					"outputs": [
						{
							"internalType": "bytes32",
							"name": "",
							"type": "bytes32"
						}
					],
					"stateMutability": "view",
					"type": "function"
				},
				{
					"inputs": [],
					"name": "DISTRIBUTOR_ROLE",
					"outputs": [
						{
							"internalType": "bytes32",
							"name": "",
							"type": "bytes32"
						}
					],
					"stateMutability": "view",
					"type": "function"
				},
				{
					"inputs": [],
					"name": "FARMER_ROLE",
					"outputs": [
						{
							"internalType": "bytes32",
							"name": "",
							"type": "bytes32"
						}
					],
					"stateMutability": "view",
					"type": "function"
				},
				{
					"inputs": [],
					"name": "RETAILER_ROLE",
					"outputs": [
						{
							"internalType": "bytes32",
							"name": "",
							"type": "bytes32"
						}
					],
					"stateMutability": "view",
					"type": "function"
				},
				{
					"inputs": [
						{
							"internalType": "uint256",
							"name": "_productId",
							"type": "uint256"
						},
						{
							"internalType": "string",
							"name": "_location",
							"type": "string"
						},
						{
							"internalType": "string",
							"name": "_description",
							"type": "string"
						}
					],
					"name": "addCheckpoint",
					"outputs": [],
					"stateMutability": "nonpayable",
					"type": "function"
				},
				{
					"inputs": [
						{
							"internalType": "string",
							"name": "_name",
							"type": "string"
						},
						{
							"internalType": "string",
							"name": "_origin",
							"type": "string"
						},
						{
							"internalType": "bool",
							"name": "_organicCertified",
							"type": "bool"
						},
						{
							"internalType": "bool",
							"name": "_fairTradeCertified",
							"type": "bool"
						}
					],
					"name": "addProduct",
					"outputs": [],
					"stateMutability": "nonpayable",
					"type": "function"
				},
				{
					"inputs": [
						{
							"internalType": "uint256",
							"name": "_productId",
							"type": "uint256"
						}
					],
					"name": "getCheckpoints",
					"outputs": [
						{
							"components": [
								{
									"internalType": "string",
									"name": "location",
									"type": "string"
								},
								{
									"internalType": "string",
									"name": "description",
									"type": "string"
								},
								{
									"internalType": "uint256",
									"name": "timestamp",
									"type": "uint256"
								}
							],
							"internalType": "struct TransparentSupplyChain.Checkpoint[]",
							"name": "checkpoints",
							"type": "tuple[]"
						}
					],
					"stateMutability": "view",
					"type": "function"
				},
				{
					"inputs": [
						{
							"internalType": "uint256",
							"name": "_productId",
							"type": "uint256"
						}
					],
					"name": "getProduct",
					"outputs": [
						{
							"internalType": "string",
							"name": "name",
							"type": "string"
						},
						{
							"internalType": "string",
							"name": "origin",
							"type": "string"
						},
						{
							"internalType": "uint256",
							"name": "timestamp",
							"type": "uint256"
						},
						{
							"internalType": "bool",
							"name": "organicCertified",
							"type": "bool"
						},
						{
							"internalType": "bool",
							"name": "fairTradeCertified",
							"type": "bool"
						},
						{
							"internalType": "address",
							"name": "currentOwner",
							"type": "address"
						}
					],
					"stateMutability": "view",
					"type": "function"
				},
				{
					"inputs": [
						{
							"internalType": "bytes32",
							"name": "role",
							"type": "bytes32"
						}
					],
					"name": "getRoleAdmin",
					"outputs": [
						{
							"internalType": "bytes32",
							"name": "",
							"type": "bytes32"
						}
					],
					"stateMutability": "view",
					"type": "function"
				},
				{
					"inputs": [
						{
							"internalType": "bytes32",
							"name": "role",
							"type": "bytes32"
						},
						{
							"internalType": "address",
							"name": "account",
							"type": "address"
						}
					],
					"name": "grantRole",
					"outputs": [],
					"stateMutability": "nonpayable",
					"type": "function"
				},
				{
					"inputs": [
						{
							"internalType": "bytes32",
							"name": "role",
							"type": "bytes32"
						},
						{
							"internalType": "address",
							"name": "account",
							"type": "address"
						}
					],
					"name": "hasRole",
					"outputs": [
						{
							"internalType": "bool",
							"name": "",
							"type": "bool"
						}
					],
					"stateMutability": "view",
					"type": "function"
				},
				{
					"inputs": [
						{
							"internalType": "bytes32",
							"name": "role",
							"type": "bytes32"
						},
						{
							"internalType": "address",
							"name": "callerConfirmation",
							"type": "address"
						}
					],
					"name": "renounceRole",
					"outputs": [],
					"stateMutability": "nonpayable",
					"type": "function"
				},
				{
					"inputs": [
						{
							"internalType": "bytes32",
							"name": "role",
							"type": "bytes32"
						},
						{
							"internalType": "address",
							"name": "account",
							"type": "address"
						}
					],
					"name": "revokeRole",
					"outputs": [],
					"stateMutability": "nonpayable",
					"type": "function"
				},
				{
					"inputs": [
						{
							"internalType": "bytes4",
							"name": "interfaceId",
							"type": "bytes4"
						}
					],
					"name": "supportsInterface",
					"outputs": [
						{
							"internalType": "bool",
							"name": "",
							"type": "bool"
						}
					],
					"stateMutability": "view",
					"type": "function"
				},
				{
					"inputs": [
						{
							"internalType": "uint256",
							"name": "_productId",
							"type": "uint256"
						},
						{
							"internalType": "address",
							"name": "_to",
							"type": "address"
						}
					],
					"name": "transferProduct",
					"outputs": [],
					"stateMutability": "nonpayable",
					"type": "function"
				}
			],
			"devdoc": {
				"details": "This contract tracks the journey of agricultural products from farm to table, ensuring transparency and authenticity of organic and fair-trade certifications.",
				"errors": {
					"AccessControlBadConfirmation()": [
						{
							"details": "The caller of a function is not the expected one. NOTE: Don't confuse with {AccessControlUnauthorizedAccount}."
						}
					],
					"AccessControlUnauthorizedAccount(address,bytes32)": [
						{
							"details": "The `account` is missing a role."
						}
					]
				},
				"events": {
					"RoleAdminChanged(bytes32,bytes32,bytes32)": {
						"details": "Emitted when `newAdminRole` is set as ``role``'s admin role, replacing `previousAdminRole` `DEFAULT_ADMIN_ROLE` is the starting admin for all roles, despite {RoleAdminChanged} not being emitted signaling this."
					},
					"RoleGranted(bytes32,address,address)": {
						"details": "Emitted when `account` is granted `role`. `sender` is the account that originated the contract call, an admin role bearer except when using {AccessControl-_setupRole}."
					},
					"RoleRevoked(bytes32,address,address)": {
						"details": "Emitted when `account` is revoked `role`. `sender` is the account that originated the contract call:   - if using `revokeRole`, it is the admin role bearer   - if using `renounceRole`, it is the role bearer (i.e. `account`)"
					}
				},
				"kind": "dev",
				"methods": {
					"addCheckpoint(uint256,string,string)": {
						"params": {
							"_description": "A description of the checkpoint.",
							"_location": "The location of the checkpoint.",
							"_productId": "The ID of the product."
						}
					},
					"addProduct(string,string,bool,bool)": {
						"params": {
							"_fairTradeCertified": "Boolean indicating if the product is fair-trade certified.",
							"_name": "The name of the product.",
							"_organicCertified": "Boolean indicating if the product is organically certified.",
							"_origin": "The origin of the product."
						}
					},
					"constructor": {
						"details": "Initializes the contract by setting up roles."
					},
					"getCheckpoints(uint256)": {
						"params": {
							"_productId": "The ID of the product."
						},
						"returns": {
							"checkpoints": "Array of checkpoints."
						}
					},
					"getProduct(uint256)": {
						"params": {
							"_productId": "The ID of the product."
						},
						"returns": {
							"currentOwner": "The current owner of the product.",
							"fairTradeCertified": "Whether the product is fair-trade certified.",
							"name": "The name of the product.",
							"organicCertified": "Whether the product is organically certified.",
							"origin": "The origin of the product.",
							"timestamp": "The timestamp of the product's addition."
						}
					},
					"getRoleAdmin(bytes32)": {
						"details": "Returns the admin role that controls `role`. See {grantRole} and {revokeRole}. To change a role's admin, use {_setRoleAdmin}."
					},
					"grantRole(bytes32,address)": {
						"details": "Grants `role` to `account`. If `account` had not been already granted `role`, emits a {RoleGranted} event. Requirements: - the caller must have ``role``'s admin role. May emit a {RoleGranted} event."
					},
					"hasRole(bytes32,address)": {
						"details": "Returns `true` if `account` has been granted `role`."
					},
					"renounceRole(bytes32,address)": {
						"details": "Revokes `role` from the calling account. Roles are often managed via {grantRole} and {revokeRole}: this function's purpose is to provide a mechanism for accounts to lose their privileges if they are compromised (such as when a trusted device is misplaced). If the calling account had been revoked `role`, emits a {RoleRevoked} event. Requirements: - the caller must be `callerConfirmation`. May emit a {RoleRevoked} event."
					},
					"revokeRole(bytes32,address)": {
						"details": "Revokes `role` from `account`. If `account` had been granted `role`, emits a {RoleRevoked} event. Requirements: - the caller must have ``role``'s admin role. May emit a {RoleRevoked} event."
					},
					"supportsInterface(bytes4)": {
						"details": "See {IERC165-supportsInterface}."
					},
					"transferProduct(uint256,address)": {
						"params": {
							"_productId": "The ID of the product.",
							"_to": "The address to transfer the product to."
						}
					}
				},
				"title": "TransparentSupplyChain",
				"version": 1
			},
			"evm": {
				"assembly": "    /* \"contracts/TransparentSupplyChain.sol\":379:6053  contract TransparentSupplyChain is AccessControl {... */\n  mstore(0x40, 0x80)\n    /* \"contracts/TransparentSupplyChain.sol\":1766:1981  constructor() {... */\n  callvalue\n  dup1\n  iszero\n  tag_1\n  jumpi\n  0x00\n  dup1\n  revert\ntag_1:\n  pop\n    /* \"contracts/TransparentSupplyChain.sol\":1790:1832  _grantRole(DEFAULT_ADMIN_ROLE, msg.sender) */\n  tag_4\n    /* \"@openzeppelin/contracts/access/AccessControl.sol\":2232:2236  0x00 */\n  0x00\n    /* \"contracts/TransparentSupplyChain.sol\":1801:1819  DEFAULT_ADMIN_ROLE */\n  dup1\n  shl\n    /* \"contracts/TransparentSupplyChain.sol\":1821:1831  msg.sender */\n  caller\n    /* \"contracts/TransparentSupplyChain.sol\":1790:1800  _grantRole */\n  shl(0x20, tag_5)\n    /* \"contracts/TransparentSupplyChain.sol\":1790:1832  _grantRole(DEFAULT_ADMIN_ROLE, msg.sender) */\n  0x20\n  shr\n  jump\t// in\ntag_4:\n  pop\n    /* \"contracts/TransparentSupplyChain.sol\":1842:1877  _grantRole(FARMER_ROLE, msg.sender) */\n  tag_6\n    /* \"contracts/TransparentSupplyChain.sol\":514:538  keccak256(\"FARMER_ROLE\") */\n  0x7c6181838a71a779e445600d4c6ecbe16bacf2b3c5bda69c29fada66d1b645d1\n    /* \"contracts/TransparentSupplyChain.sol\":1866:1876  msg.sender */\n  caller\n    /* \"contracts/TransparentSupplyChain.sol\":1842:1852  _grantRole */\n  shl(0x20, tag_5)\n    /* \"contracts/TransparentSupplyChain.sol\":1842:1877  _grantRole(FARMER_ROLE, msg.sender) */\n  0x20\n  shr\n  jump\t// in\ntag_6:\n  pop\n    /* \"contracts/TransparentSupplyChain.sol\":1887:1927  _grantRole(DISTRIBUTOR_ROLE, msg.sender) */\n  tag_7\n    /* \"contracts/TransparentSupplyChain.sol\":587:616  keccak256(\"DISTRIBUTOR_ROLE\") */\n  0xfbd454f36a7e1a388bd6fc3ab10d434aa4578f811acbbcf33afb1c697486313c\n    /* \"contracts/TransparentSupplyChain.sol\":1916:1926  msg.sender */\n  caller\n    /* \"contracts/TransparentSupplyChain.sol\":1887:1897  _grantRole */\n  shl(0x20, tag_5)\n    /* \"contracts/TransparentSupplyChain.sol\":1887:1927  _grantRole(DISTRIBUTOR_ROLE, msg.sender) */\n  0x20\n  shr\n  jump\t// in\ntag_7:\n  pop\n    /* \"contracts/TransparentSupplyChain.sol\":1937:1974  _grantRole(RETAILER_ROLE, msg.sender) */\n  tag_8\n    /* \"contracts/TransparentSupplyChain.sol\":662:688  keccak256(\"RETAILER_ROLE\") */\n  0x2a5f906c256a5d799494fcd066e1f6c077689de1cdb65052a1624de4bace99bf\n    /* \"contracts/TransparentSupplyChain.sol\":1963:1973  msg.sender */\n  caller\n    /* \"contracts/TransparentSupplyChain.sol\":1937:1947  _grantRole */\n  shl(0x20, tag_5)\n    /* \"contracts/TransparentSupplyChain.sol\":1937:1974  _grantRole(RETAILER_ROLE, msg.sender) */\n  0x20\n  shr\n  jump\t// in\ntag_8:\n  pop\n    /* \"contracts/TransparentSupplyChain.sol\":379:6053  contract TransparentSupplyChain is AccessControl {... */\n  jump(tag_9)\n    /* \"@openzeppelin/contracts/access/AccessControl.sol\":6179:6495  function _grantRole(bytes32 role, address account) internal virtual returns (bool) {... */\ntag_5:\n    /* \"@openzeppelin/contracts/access/AccessControl.sol\":6256:6260  bool */\n  0x00\n    /* \"@openzeppelin/contracts/access/AccessControl.sol\":6277:6299  hasRole(role, account) */\n  tag_11\n    /* \"@openzeppelin/contracts/access/AccessControl.sol\":6285:6289  role */\n  dup4\n    /* \"@openzeppelin/contracts/access/AccessControl.sol\":6291:6298  account */\n  dup4\n    /* \"@openzeppelin/contracts/access/AccessControl.sol\":6277:6284  hasRole */\n  shl(0x20, tag_12)\n    /* \"@openzeppelin/contracts/access/AccessControl.sol\":6277:6299  hasRole(role, account) */\n  0x20\n  shr\n  jump\t// in\ntag_11:\n    /* \"@openzeppelin/contracts/access/AccessControl.sol\":6272:6489  if (!hasRole(role, account)) {... */\n  tag_13\n  jumpi\n    /* \"@openzeppelin/contracts/access/AccessControl.sol\":6347:6351  true */\n  0x01\n    /* \"@openzeppelin/contracts/access/AccessControl.sol\":6315:6321  _roles */\n  0x00\n    /* \"@openzeppelin/contracts/access/AccessControl.sol\":6315:6327  _roles[role] */\n  dup1\n    /* \"@openzeppelin/contracts/access/AccessControl.sol\":6322:6326  role */\n  dup6\n    /* \"@openzeppelin/contracts/access/AccessControl.sol\":6315:6327  _roles[role] */\n  dup2\n  mstore\n  0x20\n  add\n  swap1\n  dup2\n  mstore\n  0x20\n  add\n  0x00\n  keccak256\n    /* \"@openzeppelin/contracts/access/AccessControl.sol\":6315:6335  _roles[role].hasRole */\n  0x00\n  add\n    /* \"@openzeppelin/contracts/access/AccessControl.sol\":6315:6344  _roles[role].hasRole[account] */\n  0x00\n    /* \"@openzeppelin/contracts/access/AccessControl.sol\":6336:6343  account */\n  dup5\n    /* \"@openzeppelin/contracts/access/AccessControl.sol\":6315:6344  _roles[role].hasRole[account] */\n  0xffffffffffffffffffffffffffffffffffffffff\n  and\n  0xffffffffffffffffffffffffffffffffffffffff\n  and\n  dup2\n  mstore\n  0x20\n  add\n  swap1\n  dup2\n  mstore\n  0x20\n  add\n  0x00\n  keccak256\n  0x00\n    /* \"@openzeppelin/contracts/access/AccessControl.sol\":6315:6351  _roles[role].hasRole[account] = true */\n  0x0100\n  exp\n  dup2\n  sload\n  dup2\n  0xff\n  mul\n  not\n  and\n  swap1\n  dup4\n  iszero\n  iszero\n  mul\n  or\n  swap1\n  sstore\n  pop\n    /* \"@openzeppelin/contracts/access/AccessControl.sol\":6397:6409  _msgSender() */\n  tag_14\n    /* \"@openzeppelin/contracts/access/AccessControl.sol\":6397:6407  _msgSender */\n  shl(0x20, tag_15)\n    /* \"@openzeppelin/contracts/access/AccessControl.sol\":6397:6409  _msgSender() */\n  0x20\n  shr\n  jump\t// in\ntag_14:\n    /* \"@openzeppelin/contracts/access/AccessControl.sol\":6370:6410  RoleGranted(role, account, _msgSender()) */\n  0xffffffffffffffffffffffffffffffffffffffff\n  and\n    /* \"@openzeppelin/contracts/access/AccessControl.sol\":6388:6395  account */\n  dup3\n    /* \"@openzeppelin/contracts/access/AccessControl.sol\":6370:6410  RoleGranted(role, account, _msgSender()) */\n  0xffffffffffffffffffffffffffffffffffffffff\n  and\n    /* \"@openzeppelin/contracts/access/AccessControl.sol\":6382:6386  role */\n  dup5\n    /* \"@openzeppelin/contracts/access/AccessControl.sol\":6370:6410  RoleGranted(role, account, _msgSender()) */\n  0x2f8788117e7eff1d82e926ec794901d17c78024a50270940304540a733656f0d\n  mload(0x40)\n  mload(0x40)\n  dup1\n  swap2\n  sub\n  swap1\n  log4\n    /* \"@openzeppelin/contracts/access/AccessControl.sol\":6431:6435  true */\n  0x01\n    /* \"@openzeppelin/contracts/access/AccessControl.sol\":6424:6435  return true */\n  swap1\n  pop\n  jump(tag_10)\n    /* \"@openzeppelin/contracts/access/AccessControl.sol\":6272:6489  if (!hasRole(role, account)) {... */\ntag_13:\n    /* \"@openzeppelin/contracts/access/AccessControl.sol\":6473:6478  false */\n  0x00\n    /* \"@openzeppelin/contracts/access/AccessControl.sol\":6466:6478  return false */\n  swap1\n  pop\n    /* \"@openzeppelin/contracts/access/AccessControl.sol\":6179:6495  function _grantRole(bytes32 role, address account) internal virtual returns (bool) {... */\ntag_10:\n  swap3\n  swap2\n  pop\n  pop\n  jump\t// out\n    /* \"@openzeppelin/contracts/access/AccessControl.sol\":2854:2990  function hasRole(bytes32 role, address account) public view virtual returns (bool) {... */\ntag_12:\n    /* \"@openzeppelin/contracts/access/AccessControl.sol\":2931:2935  bool */\n  0x00\n    /* \"@openzeppelin/contracts/access/AccessControl.sol\":2954:2960  _roles */\n  dup1\n    /* \"@openzeppelin/contracts/access/AccessControl.sol\":2954:2966  _roles[role] */\n  0x00\n    /* \"@openzeppelin/contracts/access/AccessControl.sol\":2961:2965  role */\n  dup5\n    /* \"@openzeppelin/contracts/access/AccessControl.sol\":2954:2966  _roles[role] */\n  dup2\n  mstore\n  0x20\n  add\n  swap1\n  dup2\n  mstore\n  0x20\n  add\n  0x00\n  keccak256\n    /* \"@openzeppelin/contracts/access/AccessControl.sol\":2954:2974  _roles[role].hasRole */\n  0x00\n  add\n    /* \"@openzeppelin/contracts/access/AccessControl.sol\":2954:2983  _roles[role].hasRole[account] */\n  0x00\n    /* \"@openzeppelin/contracts/access/AccessControl.sol\":2975:2982  account */\n  dup4\n    /* \"@openzeppelin/contracts/access/AccessControl.sol\":2954:2983  _roles[role].hasRole[account] */\n  0xffffffffffffffffffffffffffffffffffffffff\n  and\n  0xffffffffffffffffffffffffffffffffffffffff\n  and\n  dup2\n  mstore\n  0x20\n  add\n  swap1\n  dup2\n  mstore\n  0x20\n  add\n  0x00\n  keccak256\n  0x00\n  swap1\n  sload\n  swap1\n  0x0100\n  exp\n  swap1\n  div\n  0xff\n  and\n    /* \"@openzeppelin/contracts/access/AccessControl.sol\":2947:2983  return _roles[role].hasRole[account] */\n  swap1\n  pop\n    /* \"@openzeppelin/contracts/access/AccessControl.sol\":2854:2990  function hasRole(bytes32 role, address account) public view virtual returns (bool) {... */\n  swap3\n  swap2\n  pop\n  pop\n  jump\t// out\n    /* \"@openzeppelin/contracts/utils/Context.sol\":656:752  function _msgSender() internal view virtual returns (address) {... */\ntag_15:\n    /* \"@openzeppelin/contracts/utils/Context.sol\":709:716  address */\n  0x00\n    /* \"@openzeppelin/contracts/utils/Context.sol\":735:745  msg.sender */\n  caller\n    /* \"@openzeppelin/contracts/utils/Context.sol\":728:745  return msg.sender */\n  swap1\n  pop\n    /* \"@openzeppelin/contracts/utils/Context.sol\":656:752  function _msgSender() internal view virtual returns (address) {... */\n  swap1\n  jump\t// out\n    /* \"contracts/TransparentSupplyChain.sol\":379:6053  contract TransparentSupplyChain is AccessControl {... */\ntag_9:\n  dataSize(sub_0)\n  dup1\n  dataOffset(sub_0)\n  0x00\n  codecopy\n  0x00\n  return\nstop\n\nsub_0: assembly {\n        /* \"contracts/TransparentSupplyChain.sol\":379:6053  contract TransparentSupplyChain is AccessControl {... */\n      mstore(0x40, 0x80)\n      callvalue\n      dup1\n      iszero\n      tag_1\n      jumpi\n      0x00\n      dup1\n      revert\n    tag_1:\n      pop\n      jumpi(tag_2, lt(calldatasize, 0x04))\n      shr(0xe0, calldataload(0x00))\n      dup1\n      0xa217fddf\n      gt\n      tag_18\n      jumpi\n      dup1\n      0xd547741f\n      gt\n      tag_19\n      jumpi\n      dup1\n      0xd547741f\n      eq\n      tag_14\n      jumpi\n      dup1\n      0xe43059e5\n      eq\n      tag_15\n      jumpi\n      dup1\n      0xf0bd87cc\n      eq\n      tag_16\n      jumpi\n      dup1\n      0xf3943970\n      eq\n      tag_17\n      jumpi\n      jump(tag_2)\n    tag_19:\n      dup1\n      0xa217fddf\n      eq\n      tag_10\n      jumpi\n      dup1\n      0xb7674cae\n      eq\n      tag_11\n      jumpi\n      dup1\n      0xb908f6b7\n      eq\n      tag_12\n      jumpi\n      dup1\n      0xb9db15b4\n      eq\n      tag_13\n      jumpi\n      jump(tag_2)\n    tag_18:\n      dup1\n      0x2f2ff15d\n      gt\n      tag_20\n      jumpi\n      dup1\n      0x2f2ff15d\n      eq\n      tag_6\n      jumpi\n      dup1\n      0x36568abe\n      eq\n      tag_7\n      jumpi\n      dup1\n      0x6897591c\n      eq\n      tag_8\n      jumpi\n      dup1\n      0x91d14854\n      eq\n      tag_9\n      jumpi\n      jump(tag_2)\n    tag_20:\n      dup1\n      0x01ffc9a7\n      eq\n      tag_3\n      jumpi\n      dup1\n      0x2115e7bf\n      eq\n      tag_4\n      jumpi\n      dup1\n      0x248a9ca3\n      eq\n      tag_5\n      jumpi\n    tag_2:\n      0x00\n      dup1\n      revert\n        /* \"@openzeppelin/contracts/access/AccessControl.sol\":2565:2767  function supportsInterface(bytes4 interfaceId) public view virtual override returns (bool) {... */\n    tag_3:\n      tag_21\n      0x04\n      dup1\n      calldatasize\n      sub\n      dup2\n      add\n      swap1\n      tag_22\n      swap2\n      swap1\n      tag_23\n      jump\t// in\n    tag_22:\n      tag_24\n      jump\t// in\n    tag_21:\n      mload(0x40)\n      tag_25\n      swap2\n      swap1\n      tag_26\n      jump\t// in\n    tag_25:\n      mload(0x40)\n      dup1\n      swap2\n      sub\n      swap1\n      return\n        /* \"contracts/TransparentSupplyChain.sol\":622:688  bytes32 public constant RETAILER_ROLE = keccak256(\"RETAILER_ROLE\") */\n    tag_4:\n      tag_27\n      tag_28\n      jump\t// in\n    tag_27:\n      mload(0x40)\n      tag_29\n      swap2\n      swap1\n      tag_30\n      jump\t// in\n    tag_29:\n      mload(0x40)\n      dup1\n      swap2\n      sub\n      swap1\n      return\n        /* \"@openzeppelin/contracts/access/AccessControl.sol\":3810:3930  function getRoleAdmin(bytes32 role) public view virtual returns (bytes32) {... */\n    tag_5:\n      tag_31\n      0x04\n      dup1\n      calldatasize\n      sub\n      dup2\n      add\n      swap1\n      tag_32\n      swap2\n      swap1\n      tag_33\n      jump\t// in\n    tag_32:\n      tag_34\n      jump\t// in\n    tag_31:\n      mload(0x40)\n      tag_35\n      swap2\n      swap1\n      tag_30\n      jump\t// in\n    tag_35:\n      mload(0x40)\n      dup1\n      swap2\n      sub\n      swap1\n      return\n        /* \"@openzeppelin/contracts/access/AccessControl.sol\":4226:4362  function grantRole(bytes32 role, address account) public virtual onlyRole(getRoleAdmin(role)) {... */\n    tag_6:\n      tag_36\n      0x04\n      dup1\n      calldatasize\n      sub\n      dup2\n      add\n      swap1\n      tag_37\n      swap2\n      swap1\n      tag_38\n      jump\t// in\n    tag_37:\n      tag_39\n      jump\t// in\n    tag_36:\n      stop\n        /* \"@openzeppelin/contracts/access/AccessControl.sol\":5328:5573  function renounceRole(bytes32 role, address callerConfirmation) public virtual {... */\n    tag_7:\n      tag_40\n      0x04\n      dup1\n      calldatasize\n      sub\n      dup2\n      add\n      swap1\n      tag_41\n      swap2\n      swap1\n      tag_38\n      jump\t// in\n    tag_41:\n      tag_42\n      jump\t// in\n    tag_40:\n      stop\n        /* \"contracts/TransparentSupplyChain.sol\":5784:6051  function getCheckpoints(uint256 _productId)... */\n    tag_8:\n      tag_43\n      0x04\n      dup1\n      calldatasize\n      sub\n      dup2\n      add\n      swap1\n      tag_44\n      swap2\n      swap1\n      tag_45\n      jump\t// in\n    tag_44:\n      tag_46\n      jump\t// in\n    tag_43:\n      mload(0x40)\n      tag_47\n      swap2\n      swap1\n      tag_48\n      jump\t// in\n    tag_47:\n      mload(0x40)\n      dup1\n      swap2\n      sub\n      swap1\n      return\n        /* \"@openzeppelin/contracts/access/AccessControl.sol\":2854:2990  function hasRole(bytes32 role, address account) public view virtual returns (bool) {... */\n    tag_9:\n      tag_49\n      0x04\n      dup1\n      calldatasize\n      sub\n      dup2\n      add\n      swap1\n      tag_50\n      swap2\n      swap1\n      tag_38\n      jump\t// in\n    tag_50:\n      tag_51\n      jump\t// in\n    tag_49:\n      mload(0x40)\n      tag_52\n      swap2\n      swap1\n      tag_26\n      jump\t// in\n    tag_52:\n      mload(0x40)\n      dup1\n      swap2\n      sub\n      swap1\n      return\n        /* \"@openzeppelin/contracts/access/AccessControl.sol\":2187:2236  bytes32 public constant DEFAULT_ADMIN_ROLE = 0x00 */\n    tag_10:\n      tag_53\n      tag_54\n      jump\t// in\n    tag_53:\n      mload(0x40)\n      tag_55\n      swap2\n      swap1\n      tag_30\n      jump\t// in\n    tag_55:\n      mload(0x40)\n      dup1\n      swap2\n      sub\n      swap1\n      return\n        /* \"contracts/TransparentSupplyChain.sol\":3218:3779  function addCheckpoint(... */\n    tag_11:\n      tag_56\n      0x04\n      dup1\n      calldatasize\n      sub\n      dup2\n      add\n      swap1\n      tag_57\n      swap2\n      swap1\n      tag_58\n      jump\t// in\n    tag_57:\n      tag_59\n      jump\t// in\n    tag_56:\n      stop\n        /* \"contracts/TransparentSupplyChain.sol\":2337:2975  function addProduct(... */\n    tag_12:\n      tag_60\n      0x04\n      dup1\n      calldatasize\n      sub\n      dup2\n      add\n      swap1\n      tag_61\n      swap2\n      swap1\n      tag_62\n      jump\t// in\n    tag_61:\n      tag_63\n      jump\t// in\n    tag_60:\n      stop\n        /* \"contracts/TransparentSupplyChain.sol\":4932:5607  function getProduct(uint256 _productId)... */\n    tag_13:\n      tag_64\n      0x04\n      dup1\n      calldatasize\n      sub\n      dup2\n      add\n      swap1\n      tag_65\n      swap2\n      swap1\n      tag_45\n      jump\t// in\n    tag_65:\n      tag_66\n      jump\t// in\n    tag_64:\n      mload(0x40)\n      tag_67\n      swap7\n      swap6\n      swap5\n      swap4\n      swap3\n      swap2\n      swap1\n      tag_68\n      jump\t// in\n    tag_67:\n      mload(0x40)\n      dup1\n      swap2\n      sub\n      swap1\n      return\n        /* \"@openzeppelin/contracts/access/AccessControl.sol\":4642:4780  function revokeRole(bytes32 role, address account) public virtual onlyRole(getRoleAdmin(role)) {... */\n    tag_14:\n      tag_69\n      0x04\n      dup1\n      calldatasize\n      sub\n      dup2\n      add\n      swap1\n      tag_70\n      swap2\n      swap1\n      tag_38\n      jump\t// in\n    tag_70:\n      tag_71\n      jump\t// in\n    tag_69:\n      stop\n        /* \"contracts/TransparentSupplyChain.sol\":3975:4435  function transferProduct(uint256 _productId, address _to) external {... */\n    tag_15:\n      tag_72\n      0x04\n      dup1\n      calldatasize\n      sub\n      dup2\n      add\n      swap1\n      tag_73\n      swap2\n      swap1\n      tag_74\n      jump\t// in\n    tag_73:\n      tag_75\n      jump\t// in\n    tag_72:\n      stop\n        /* \"contracts/TransparentSupplyChain.sol\":544:616  bytes32 public constant DISTRIBUTOR_ROLE = keccak256(\"DISTRIBUTOR_ROLE\") */\n    tag_16:\n      tag_76\n      tag_77\n      jump\t// in\n    tag_76:\n      mload(0x40)\n      tag_78\n      swap2\n      swap1\n      tag_30\n      jump\t// in\n    tag_78:\n      mload(0x40)\n      dup1\n      swap2\n      sub\n      swap1\n      return\n        /* \"contracts/TransparentSupplyChain.sol\":476:538  bytes32 public constant FARMER_ROLE = keccak256(\"FARMER_ROLE\") */\n    tag_17:\n      tag_79\n      tag_80\n      jump\t// in\n    tag_79:\n      mload(0x40)\n      tag_81\n      swap2\n      swap1\n      tag_30\n      jump\t// in\n    tag_81:\n      mload(0x40)\n      dup1\n      swap2\n      sub\n      swap1\n      return\n        /* \"@openzeppelin/contracts/access/AccessControl.sol\":2565:2767  function supportsInterface(bytes4 interfaceId) public view virtual override returns (bool) {... */\n    tag_24:\n        /* \"@openzeppelin/contracts/access/AccessControl.sol\":2650:2654  bool */\n      0x00\n        /* \"@openzeppelin/contracts/access/AccessControl.sol\":2688:2720  type(IAccessControl).interfaceId */\n      0x7965db0b00000000000000000000000000000000000000000000000000000000\n        /* \"@openzeppelin/contracts/access/AccessControl.sol\":2673:2720  interfaceId == type(IAccessControl).interfaceId */\n      not(0xffffffffffffffffffffffffffffffffffffffffffffffffffffffff)\n      and\n        /* \"@openzeppelin/contracts/access/AccessControl.sol\":2673:2684  interfaceId */\n      dup3\n        /* \"@openzeppelin/contracts/access/AccessControl.sol\":2673:2720  interfaceId == type(IAccessControl).interfaceId */\n      not(0xffffffffffffffffffffffffffffffffffffffffffffffffffffffff)\n      and\n      eq\n        /* \"@openzeppelin/contracts/access/AccessControl.sol\":2673:2760  interfaceId == type(IAccessControl).interfaceId || super.supportsInterface(interfaceId) */\n      dup1\n      tag_83\n      jumpi\n      pop\n        /* \"@openzeppelin/contracts/access/AccessControl.sol\":2724:2760  super.supportsInterface(interfaceId) */\n      tag_84\n        /* \"@openzeppelin/contracts/access/AccessControl.sol\":2748:2759  interfaceId */\n      dup3\n        /* \"@openzeppelin/contracts/access/AccessControl.sol\":2724:2747  super.supportsInterface */\n      tag_85\n        /* \"@openzeppelin/contracts/access/AccessControl.sol\":2724:2760  super.supportsInterface(interfaceId) */\n      jump\t// in\n    tag_84:\n        /* \"@openzeppelin/contracts/access/AccessControl.sol\":2673:2760  interfaceId == type(IAccessControl).interfaceId || super.supportsInterface(interfaceId) */\n    tag_83:\n        /* \"@openzeppelin/contracts/access/AccessControl.sol\":2666:2760  return interfaceId == type(IAccessControl).interfaceId || super.supportsInterface(interfaceId) */\n      swap1\n      pop\n        /* \"@openzeppelin/contracts/access/AccessControl.sol\":2565:2767  function supportsInterface(bytes4 interfaceId) public view virtual override returns (bool) {... */\n      swap2\n      swap1\n      pop\n      jump\t// out\n        /* \"contracts/TransparentSupplyChain.sol\":622:688  bytes32 public constant RETAILER_ROLE = keccak256(\"RETAILER_ROLE\") */\n    tag_28:\n        /* \"contracts/TransparentSupplyChain.sol\":662:688  keccak256(\"RETAILER_ROLE\") */\n      0x2a5f906c256a5d799494fcd066e1f6c077689de1cdb65052a1624de4bace99bf\n        /* \"contracts/TransparentSupplyChain.sol\":622:688  bytes32 public constant RETAILER_ROLE = keccak256(\"RETAILER_ROLE\") */\n      dup2\n      jump\t// out\n        /* \"@openzeppelin/contracts/access/AccessControl.sol\":3810:3930  function getRoleAdmin(bytes32 role) public view virtual returns (bytes32) {... */\n    tag_34:\n        /* \"@openzeppelin/contracts/access/AccessControl.sol\":3875:3882  bytes32 */\n      0x00\n        /* \"@openzeppelin/contracts/access/AccessControl.sol\":3901:3907  _roles */\n      dup1\n        /* \"@openzeppelin/contracts/access/AccessControl.sol\":3901:3913  _roles[role] */\n      0x00\n        /* \"@openzeppelin/contracts/access/AccessControl.sol\":3908:3912  role */\n      dup4\n        /* \"@openzeppelin/contracts/access/AccessControl.sol\":3901:3913  _roles[role] */\n      dup2\n      mstore\n      0x20\n      add\n      swap1\n      dup2\n      mstore\n      0x20\n      add\n      0x00\n      keccak256\n        /* \"@openzeppelin/contracts/access/AccessControl.sol\":3901:3923  _roles[role].adminRole */\n      0x01\n      add\n      sload\n        /* \"@openzeppelin/contracts/access/AccessControl.sol\":3894:3923  return _roles[role].adminRole */\n      swap1\n      pop\n        /* \"@openzeppelin/contracts/access/AccessControl.sol\":3810:3930  function getRoleAdmin(bytes32 role) public view virtual returns (bytes32) {... */\n      swap2\n      swap1\n      pop\n      jump\t// out\n        /* \"@openzeppelin/contracts/access/AccessControl.sol\":4226:4362  function grantRole(bytes32 role, address account) public virtual onlyRole(getRoleAdmin(role)) {... */\n    tag_39:\n        /* \"@openzeppelin/contracts/access/AccessControl.sol\":4300:4318  getRoleAdmin(role) */\n      tag_87\n        /* \"@openzeppelin/contracts/access/AccessControl.sol\":4313:4317  role */\n      dup3\n        /* \"@openzeppelin/contracts/access/AccessControl.sol\":4300:4312  getRoleAdmin */\n      tag_34\n        /* \"@openzeppelin/contracts/access/AccessControl.sol\":4300:4318  getRoleAdmin(role) */\n      jump\t// in\n    tag_87:\n        /* \"@openzeppelin/contracts/access/AccessControl.sol\":2464:2480  _checkRole(role) */\n      tag_89\n        /* \"@openzeppelin/contracts/access/AccessControl.sol\":2475:2479  role */\n      dup2\n        /* \"@openzeppelin/contracts/access/AccessControl.sol\":2464:2474  _checkRole */\n      tag_90\n        /* \"@openzeppelin/contracts/access/AccessControl.sol\":2464:2480  _checkRole(role) */\n      jump\t// in\n    tag_89:\n        /* \"@openzeppelin/contracts/access/AccessControl.sol\":4330:4355  _grantRole(role, account) */\n      tag_92\n        /* \"@openzeppelin/contracts/access/AccessControl.sol\":4341:4345  role */\n      dup4\n        /* \"@openzeppelin/contracts/access/AccessControl.sol\":4347:4354  account */\n      dup4\n        /* \"@openzeppelin/contracts/access/AccessControl.sol\":4330:4340  _grantRole */\n      tag_93\n        /* \"@openzeppelin/contracts/access/AccessControl.sol\":4330:4355  _grantRole(role, account) */\n      jump\t// in\n    tag_92:\n      pop\n        /* \"@openzeppelin/contracts/access/AccessControl.sol\":4226:4362  function grantRole(bytes32 role, address account) public virtual onlyRole(getRoleAdmin(role)) {... */\n      pop\n      pop\n      pop\n      jump\t// out\n        /* \"@openzeppelin/contracts/access/AccessControl.sol\":5328:5573  function renounceRole(bytes32 role, address callerConfirmation) public virtual {... */\n    tag_42:\n        /* \"@openzeppelin/contracts/access/AccessControl.sol\":5443:5455  _msgSender() */\n      tag_95\n        /* \"@openzeppelin/contracts/access/AccessControl.sol\":5443:5453  _msgSender */\n      tag_96\n        /* \"@openzeppelin/contracts/access/AccessControl.sol\":5443:5455  _msgSender() */\n      jump\t// in\n    tag_95:\n        /* \"@openzeppelin/contracts/access/AccessControl.sol\":5421:5455  callerConfirmation != _msgSender() */\n      0xffffffffffffffffffffffffffffffffffffffff\n      and\n        /* \"@openzeppelin/contracts/access/AccessControl.sol\":5421:5439  callerConfirmation */\n      dup2\n        /* \"@openzeppelin/contracts/access/AccessControl.sol\":5421:5455  callerConfirmation != _msgSender() */\n      0xffffffffffffffffffffffffffffffffffffffff\n      and\n      eq\n        /* \"@openzeppelin/contracts/access/AccessControl.sol\":5417:5519  if (callerConfirmation != _msgSender()) {... */\n      tag_97\n      jumpi\n        /* \"@openzeppelin/contracts/access/AccessControl.sol\":5478:5508  AccessControlBadConfirmation() */\n      mload(0x40)\n      0x6697b23200000000000000000000000000000000000000000000000000000000\n      dup2\n      mstore\n      0x04\n      add\n      mload(0x40)\n      dup1\n      swap2\n      sub\n      swap1\n      revert\n        /* \"@openzeppelin/contracts/access/AccessControl.sol\":5417:5519  if (callerConfirmation != _msgSender()) {... */\n    tag_97:\n        /* \"@openzeppelin/contracts/access/AccessControl.sol\":5529:5566  _revokeRole(role, callerConfirmation) */\n      tag_98\n        /* \"@openzeppelin/contracts/access/AccessControl.sol\":5541:5545  role */\n      dup3\n        /* \"@openzeppelin/contracts/access/AccessControl.sol\":5547:5565  callerConfirmation */\n      dup3\n        /* \"@openzeppelin/contracts/access/AccessControl.sol\":5529:5540  _revokeRole */\n      tag_99\n        /* \"@openzeppelin/contracts/access/AccessControl.sol\":5529:5566  _revokeRole(role, callerConfirmation) */\n      jump\t// in\n    tag_98:\n      pop\n        /* \"@openzeppelin/contracts/access/AccessControl.sol\":5328:5573  function renounceRole(bytes32 role, address callerConfirmation) public virtual {... */\n      pop\n      pop\n      jump\t// out\n        /* \"contracts/TransparentSupplyChain.sol\":5784:6051  function getCheckpoints(uint256 _productId)... */\n    tag_46:\n        /* \"contracts/TransparentSupplyChain.sol\":5875:5906  Checkpoint[] memory checkpoints */\n      0x60\n        /* \"contracts/TransparentSupplyChain.sol\":5943:5969  productIdCounter.current() */\n      tag_101\n        /* \"contracts/TransparentSupplyChain.sol\":5943:5959  productIdCounter */\n      0x03\n        /* \"contracts/TransparentSupplyChain.sol\":5943:5967  productIdCounter.current */\n      tag_102\n        /* \"contracts/TransparentSupplyChain.sol\":5943:5969  productIdCounter.current() */\n      jump\t// in\n    tag_101:\n        /* \"contracts/TransparentSupplyChain.sol\":5930:5940  _productId */\n      dup3\n        /* \"contracts/TransparentSupplyChain.sol\":5930:5969  _productId < productIdCounter.current() */\n      lt\n        /* \"contracts/TransparentSupplyChain.sol\":5922:5997  require(_productId < productIdCounter.current(), \"Product does not exist.\") */\n      tag_103\n      jumpi\n      mload(0x40)\n      0x08c379a000000000000000000000000000000000000000000000000000000000\n      dup2\n      mstore\n      0x04\n      add\n      tag_104\n      swap1\n      tag_105\n      jump\t// in\n    tag_104:\n      mload(0x40)\n      dup1\n      swap2\n      sub\n      swap1\n      revert\n    tag_103:\n        /* \"contracts/TransparentSupplyChain.sol\":6014:6032  productCheckpoints */\n      0x02\n        /* \"contracts/TransparentSupplyChain.sol\":6014:6044  productCheckpoints[_productId] */\n      0x00\n        /* \"contracts/TransparentSupplyChain.sol\":6033:6043  _productId */\n      dup4\n        /* \"contracts/TransparentSupplyChain.sol\":6014:6044  productCheckpoints[_productId] */\n      dup2\n      mstore\n      0x20\n      add\n      swap1\n      dup2\n      mstore\n      0x20\n      add\n      0x00\n      keccak256\n        /* \"contracts/TransparentSupplyChain.sol\":6007:6044  return productCheckpoints[_productId] */\n      dup1\n      sload\n      dup1\n      0x20\n      mul\n      0x20\n      add\n      mload(0x40)\n      swap1\n      dup2\n      add\n      0x40\n      mstore\n      dup1\n      swap3\n      swap2\n      swap1\n      dup2\n      dup2\n      mstore\n      0x20\n      add\n      0x00\n      swap1\n    tag_106:\n      dup3\n      dup3\n      lt\n      iszero\n      tag_107\n      jumpi\n      dup4\n      dup3\n      swap1\n      0x00\n      mstore\n      keccak256(0x00, 0x20)\n      swap1\n      0x03\n      mul\n      add\n      mload(0x40)\n      dup1\n      0x60\n      add\n      0x40\n      mstore\n      swap1\n      dup2\n      0x00\n      dup3\n      add\n      dup1\n      sload\n      tag_109\n      swap1\n      tag_110\n      jump\t// in\n    tag_109:\n      dup1\n      0x1f\n      add\n      0x20\n      dup1\n      swap2\n      div\n      mul\n      0x20\n      add\n      mload(0x40)\n      swap1\n      dup2\n      add\n      0x40\n      mstore\n      dup1\n      swap3\n      swap2\n      swap1\n      dup2\n      dup2\n      mstore\n      0x20\n      add\n      dup3\n      dup1\n      sload\n      tag_111\n      swap1\n      tag_110\n      jump\t// in\n    tag_111:\n      dup1\n      iszero\n      tag_112\n      jumpi\n      dup1\n      0x1f\n      lt\n      tag_113\n      jumpi\n      0x0100\n      dup1\n      dup4\n      sload\n      div\n      mul\n      dup4\n      mstore\n      swap2\n      0x20\n      add\n      swap2\n      jump(tag_112)\n    tag_113:\n      dup3\n      add\n      swap2\n      swap1\n      0x00\n      mstore\n      keccak256(0x00, 0x20)\n      swap1\n    tag_114:\n      dup2\n      sload\n      dup2\n      mstore\n      swap1\n      0x01\n      add\n      swap1\n      0x20\n      add\n      dup1\n      dup4\n      gt\n      tag_114\n      jumpi\n      dup3\n      swap1\n      sub\n      0x1f\n      and\n      dup3\n      add\n      swap2\n    tag_112:\n      pop\n      pop\n      pop\n      pop\n      pop\n      dup2\n      mstore\n      0x20\n      add\n      0x01\n      dup3\n      add\n      dup1\n      sload\n      tag_115\n      swap1\n      tag_110\n      jump\t// in\n    tag_115:\n      dup1\n      0x1f\n      add\n      0x20\n      dup1\n      swap2\n      div\n      mul\n      0x20\n      add\n      mload(0x40)\n      swap1\n      dup2\n      add\n      0x40\n      mstore\n      dup1\n      swap3\n      swap2\n      swap1\n      dup2\n      dup2\n      mstore\n      0x20\n      add\n      dup3\n      dup1\n      sload\n      tag_116\n      swap1\n      tag_110\n      jump\t// in\n    tag_116:\n      dup1\n      iszero\n      tag_117\n      jumpi\n      dup1\n      0x1f\n      lt\n      tag_118\n      jumpi\n      0x0100\n      dup1\n      dup4\n      sload\n      div\n      mul\n      dup4\n      mstore\n      swap2\n      0x20\n      add\n      swap2\n      jump(tag_117)\n    tag_118:\n      dup3\n      add\n      swap2\n      swap1\n      0x00\n      mstore\n      keccak256(0x00, 0x20)\n      swap1\n    tag_119:\n      dup2\n      sload\n      dup2\n      mstore\n      swap1\n      0x01\n      add\n      swap1\n      0x20\n      add\n      dup1\n      dup4\n      gt\n      tag_119\n      jumpi\n      dup3\n      swap1\n      sub\n      0x1f\n      and\n      dup3\n      add\n      swap2\n    tag_117:\n      pop\n      pop\n      pop\n      pop\n      pop\n      dup2\n      mstore\n      0x20\n      add\n      0x02\n      dup3\n      add\n      sload\n      dup2\n      mstore\n      pop\n      pop\n      dup2\n      mstore\n      0x20\n      add\n      swap1\n      0x01\n      add\n      swap1\n      jump(tag_106)\n    tag_107:\n      pop\n      pop\n      pop\n      pop\n      swap1\n      pop\n        /* \"contracts/TransparentSupplyChain.sol\":5784:6051  function getCheckpoints(uint256 _productId)... */\n      swap2\n      swap1\n      pop\n      jump\t// out\n        /* \"@openzeppelin/contracts/access/AccessControl.sol\":2854:2990  function hasRole(bytes32 role, address account) public view virtual returns (bool) {... */\n    tag_51:\n        /* \"@openzeppelin/contracts/access/AccessControl.sol\":2931:2935  bool */\n      0x00\n        /* \"@openzeppelin/contracts/access/AccessControl.sol\":2954:2960  _roles */\n      dup1\n        /* \"@openzeppelin/contracts/access/AccessControl.sol\":2954:2966  _roles[role] */\n      0x00\n        /* \"@openzeppelin/contracts/access/AccessControl.sol\":2961:2965  role */\n      dup5\n        /* \"@openzeppelin/contracts/access/AccessControl.sol\":2954:2966  _roles[role] */\n      dup2\n      mstore\n      0x20\n      add\n      swap1\n      dup2\n      mstore\n      0x20\n      add\n      0x00\n      keccak256\n        /* \"@openzeppelin/contracts/access/AccessControl.sol\":2954:2974  _roles[role].hasRole */\n      0x00\n      add\n        /* \"@openzeppelin/contracts/access/AccessControl.sol\":2954:2983  _roles[role].hasRole[account] */\n      0x00\n        /* \"@openzeppelin/contracts/access/AccessControl.sol\":2975:2982  account */\n      dup4\n        /* \"@openzeppelin/contracts/access/AccessControl.sol\":2954:2983  _roles[role].hasRole[account] */\n      0xffffffffffffffffffffffffffffffffffffffff\n      and\n      0xffffffffffffffffffffffffffffffffffffffff\n      and\n      dup2\n      mstore\n      0x20\n      add\n      swap1\n      dup2\n      mstore\n      0x20\n      add\n      0x00\n      keccak256\n      0x00\n      swap1\n      sload\n      swap1\n      0x0100\n      exp\n      swap1\n      div\n      0xff\n      and\n        /* \"@openzeppelin/contracts/access/AccessControl.sol\":2947:2983  return _roles[role].hasRole[account] */\n      swap1\n      pop\n        /* \"@openzeppelin/contracts/access/AccessControl.sol\":2854:2990  function hasRole(bytes32 role, address account) public view virtual returns (bool) {... */\n      swap3\n      swap2\n      pop\n      pop\n      jump\t// out\n        /* \"@openzeppelin/contracts/access/AccessControl.sol\":2187:2236  bytes32 public constant DEFAULT_ADMIN_ROLE = 0x00 */\n    tag_54:\n        /* \"@openzeppelin/contracts/access/AccessControl.sol\":2232:2236  0x00 */\n      0x00\n        /* \"@openzeppelin/contracts/access/AccessControl.sol\":2187:2236  bytes32 public constant DEFAULT_ADMIN_ROLE = 0x00 */\n      dup1\n      shl\n      dup2\n      jump\t// out\n        /* \"contracts/TransparentSupplyChain.sol\":3218:3779  function addCheckpoint(... */\n    tag_59:\n        /* \"contracts/TransparentSupplyChain.sol\":587:616  keccak256(\"DISTRIBUTOR_ROLE\") */\n      0xfbd454f36a7e1a388bd6fc3ab10d434aa4578f811acbbcf33afb1c697486313c\n        /* \"@openzeppelin/contracts/access/AccessControl.sol\":2464:2480  _checkRole(role) */\n      tag_122\n        /* \"@openzeppelin/contracts/access/AccessControl.sol\":2475:2479  role */\n      dup2\n        /* \"@openzeppelin/contracts/access/AccessControl.sol\":2464:2474  _checkRole */\n      tag_90\n        /* \"@openzeppelin/contracts/access/AccessControl.sol\":2464:2480  _checkRole(role) */\n      jump\t// in\n    tag_122:\n        /* \"contracts/TransparentSupplyChain.sol\":3411:3437  productIdCounter.current() */\n      tag_124\n        /* \"contracts/TransparentSupplyChain.sol\":3411:3427  productIdCounter */\n      0x03\n        /* \"contracts/TransparentSupplyChain.sol\":3411:3435  productIdCounter.current */\n      tag_102\n        /* \"contracts/TransparentSupplyChain.sol\":3411:3437  productIdCounter.current() */\n      jump\t// in\n    tag_124:\n        /* \"contracts/TransparentSupplyChain.sol\":3398:3408  _productId */\n      dup5\n        /* \"contracts/TransparentSupplyChain.sol\":3398:3437  _productId < productIdCounter.current() */\n      lt\n        /* \"contracts/TransparentSupplyChain.sol\":3390:3465  require(_productId < productIdCounter.current(), \"Product does not exist.\") */\n      tag_125\n      jumpi\n      mload(0x40)\n      0x08c379a000000000000000000000000000000000000000000000000000000000\n      dup2\n      mstore\n      0x04\n      add\n      tag_126\n      swap1\n      tag_105\n      jump\t// in\n    tag_126:\n      mload(0x40)\n      dup1\n      swap2\n      sub\n      swap1\n      revert\n    tag_125:\n        /* \"contracts/TransparentSupplyChain.sol\":3476:3507  Checkpoint memory newCheckpoint */\n      0x00\n        /* \"contracts/TransparentSupplyChain.sol\":3510:3644  Checkpoint({... */\n      mload(0x40)\n      dup1\n      0x60\n      add\n      0x40\n      mstore\n      dup1\n        /* \"contracts/TransparentSupplyChain.sol\":3545:3554  _location */\n      dup6\n        /* \"contracts/TransparentSupplyChain.sol\":3510:3644  Checkpoint({... */\n      dup2\n      mstore\n      0x20\n      add\n        /* \"contracts/TransparentSupplyChain.sol\":3581:3593  _description */\n      dup5\n        /* \"contracts/TransparentSupplyChain.sol\":3510:3644  Checkpoint({... */\n      dup2\n      mstore\n      0x20\n      add\n        /* \"contracts/TransparentSupplyChain.sol\":3618:3633  block.timestamp */\n      timestamp\n        /* \"contracts/TransparentSupplyChain.sol\":3510:3644  Checkpoint({... */\n      dup2\n      mstore\n      pop\n        /* \"contracts/TransparentSupplyChain.sol\":3476:3644  Checkpoint memory newCheckpoint = Checkpoint({... */\n      swap1\n      pop\n        /* \"contracts/TransparentSupplyChain.sol\":3654:3672  productCheckpoints */\n      0x02\n        /* \"contracts/TransparentSupplyChain.sol\":3654:3684  productCheckpoints[_productId] */\n      0x00\n        /* \"contracts/TransparentSupplyChain.sol\":3673:3683  _productId */\n      dup7\n        /* \"contracts/TransparentSupplyChain.sol\":3654:3684  productCheckpoints[_productId] */\n      dup2\n      mstore\n      0x20\n      add\n      swap1\n      dup2\n      mstore\n      0x20\n      add\n      0x00\n      keccak256\n        /* \"contracts/TransparentSupplyChain.sol\":3690:3703  newCheckpoint */\n      dup2\n        /* \"contracts/TransparentSupplyChain.sol\":3654:3704  productCheckpoints[_productId].push(newCheckpoint) */\n      swap1\n      dup1\n      0x01\n      dup2\n      sload\n      add\n      dup1\n      dup3\n      sstore\n      dup1\n      swap2\n      pop\n      pop\n      0x01\n      swap1\n      sub\n      swap1\n      0x00\n      mstore\n      keccak256(0x00, 0x20)\n      swap1\n      0x03\n      mul\n      add\n      0x00\n      swap1\n      swap2\n      swap1\n      swap2\n      swap1\n      swap2\n      pop\n      0x00\n      dup3\n      add\n      mload\n      dup2\n      0x00\n      add\n      swap1\n      dup2\n      tag_128\n      swap2\n      swap1\n      tag_129\n      jump\t// in\n    tag_128:\n      pop\n      0x20\n      dup3\n      add\n      mload\n      dup2\n      0x01\n      add\n      swap1\n      dup2\n      tag_130\n      swap2\n      swap1\n      tag_129\n      jump\t// in\n    tag_130:\n      pop\n      0x40\n      dup3\n      add\n      mload\n      dup2\n      0x02\n      add\n      sstore\n      pop\n      pop\n        /* \"contracts/TransparentSupplyChain.sol\":3720:3772  CheckpointAdded(_productId, _location, _description) */\n      0x3c9ab45bc35c51798846a8615bad9cf59e8ea4f876bb1bfba17807d6aba8ffd5\n        /* \"contracts/TransparentSupplyChain.sol\":3736:3746  _productId */\n      dup6\n        /* \"contracts/TransparentSupplyChain.sol\":3748:3757  _location */\n      dup6\n        /* \"contracts/TransparentSupplyChain.sol\":3759:3771  _description */\n      dup6\n        /* \"contracts/TransparentSupplyChain.sol\":3720:3772  CheckpointAdded(_productId, _location, _description) */\n      mload(0x40)\n      tag_131\n      swap4\n      swap3\n      swap2\n      swap1\n      tag_132\n      jump\t// in\n    tag_131:\n      mload(0x40)\n      dup1\n      swap2\n      sub\n      swap1\n      log1\n        /* \"contracts/TransparentSupplyChain.sol\":3380:3779  {... */\n      pop\n        /* \"contracts/TransparentSupplyChain.sol\":3218:3779  function addCheckpoint(... */\n      pop\n      pop\n      pop\n      pop\n      jump\t// out\n        /* \"contracts/TransparentSupplyChain.sol\":2337:2975  function addProduct(... */\n    tag_63:\n        /* \"contracts/TransparentSupplyChain.sol\":514:538  keccak256(\"FARMER_ROLE\") */\n      0x7c6181838a71a779e445600d4c6ecbe16bacf2b3c5bda69c29fada66d1b645d1\n        /* \"@openzeppelin/contracts/access/AccessControl.sol\":2464:2480  _checkRole(role) */\n      tag_134\n        /* \"@openzeppelin/contracts/access/AccessControl.sol\":2475:2479  role */\n      dup2\n        /* \"@openzeppelin/contracts/access/AccessControl.sol\":2464:2474  _checkRole */\n      tag_90\n        /* \"@openzeppelin/contracts/access/AccessControl.sol\":2464:2480  _checkRole(role) */\n      jump\t// in\n    tag_134:\n        /* \"contracts/TransparentSupplyChain.sol\":2530:2547  uint256 productId */\n      0x00\n        /* \"contracts/TransparentSupplyChain.sol\":2550:2576  productIdCounter.current() */\n      tag_136\n        /* \"contracts/TransparentSupplyChain.sol\":2550:2566  productIdCounter */\n      0x03\n        /* \"contracts/TransparentSupplyChain.sol\":2550:2574  productIdCounter.current */\n      tag_102\n        /* \"contracts/TransparentSupplyChain.sol\":2550:2576  productIdCounter.current() */\n      jump\t// in\n    tag_136:\n        /* \"contracts/TransparentSupplyChain.sol\":2530:2576  uint256 productId = productIdCounter.current() */\n      swap1\n      pop\n        /* \"contracts/TransparentSupplyChain.sol\":2608:2861  Product({... */\n      mload(0x40)\n      dup1\n      0xc0\n      add\n      0x40\n      mstore\n      dup1\n        /* \"contracts/TransparentSupplyChain.sol\":2636:2641  _name */\n      dup8\n        /* \"contracts/TransparentSupplyChain.sol\":2608:2861  Product({... */\n      dup2\n      mstore\n      0x20\n      add\n        /* \"contracts/TransparentSupplyChain.sol\":2663:2670  _origin */\n      dup7\n        /* \"contracts/TransparentSupplyChain.sol\":2608:2861  Product({... */\n      dup2\n      mstore\n      0x20\n      add\n        /* \"contracts/TransparentSupplyChain.sol\":2695:2710  block.timestamp */\n      timestamp\n        /* \"contracts/TransparentSupplyChain.sol\":2608:2861  Product({... */\n      dup2\n      mstore\n      0x20\n      add\n        /* \"contracts/TransparentSupplyChain.sol\":2742:2759  _organicCertified */\n      dup6\n        /* \"contracts/TransparentSupplyChain.sol\":2608:2861  Product({... */\n      iszero\n      iszero\n      dup2\n      mstore\n      0x20\n      add\n        /* \"contracts/TransparentSupplyChain.sol\":2793:2812  _fairTradeCertified */\n      dup5\n        /* \"contracts/TransparentSupplyChain.sol\":2608:2861  Product({... */\n      iszero\n      iszero\n      dup2\n      mstore\n      0x20\n      add\n        /* \"contracts/TransparentSupplyChain.sol\":2840:2850  msg.sender */\n      caller\n        /* \"contracts/TransparentSupplyChain.sol\":2608:2861  Product({... */\n      0xffffffffffffffffffffffffffffffffffffffff\n      and\n      dup2\n      mstore\n      pop\n        /* \"contracts/TransparentSupplyChain.sol\":2586:2594  products */\n      0x01\n        /* \"contracts/TransparentSupplyChain.sol\":2586:2605  products[productId] */\n      0x00\n        /* \"contracts/TransparentSupplyChain.sol\":2595:2604  productId */\n      dup4\n        /* \"contracts/TransparentSupplyChain.sol\":2586:2605  products[productId] */\n      dup2\n      mstore\n      0x20\n      add\n      swap1\n      dup2\n      mstore\n      0x20\n      add\n      0x00\n      keccak256\n        /* \"contracts/TransparentSupplyChain.sol\":2586:2861  products[productId] = Product({... */\n      0x00\n      dup3\n      add\n      mload\n      dup2\n      0x00\n      add\n      swap1\n      dup2\n      tag_137\n      swap2\n      swap1\n      tag_129\n      jump\t// in\n    tag_137:\n      pop\n      0x20\n      dup3\n      add\n      mload\n      dup2\n      0x01\n      add\n      swap1\n      dup2\n      tag_138\n      swap2\n      swap1\n      tag_129\n      jump\t// in\n    tag_138:\n      pop\n      0x40\n      dup3\n      add\n      mload\n      dup2\n      0x02\n      add\n      sstore\n      0x60\n      dup3\n      add\n      mload\n      dup2\n      0x03\n      add\n      exp(0x0100, 0x00)\n      dup2\n      sload\n      dup2\n      0xff\n      mul\n      not\n      and\n      swap1\n      dup4\n      iszero\n      iszero\n      mul\n      or\n      swap1\n      sstore\n      pop\n      0x80\n      dup3\n      add\n      mload\n      dup2\n      0x03\n      add\n      exp(0x0100, 0x01)\n      dup2\n      sload\n      dup2\n      0xff\n      mul\n      not\n      and\n      swap1\n      dup4\n      iszero\n      iszero\n      mul\n      or\n      swap1\n      sstore\n      pop\n      0xa0\n      dup3\n      add\n      mload\n      dup2\n      0x03\n      add\n      exp(0x0100, 0x02)\n      dup2\n      sload\n      dup2\n      0xffffffffffffffffffffffffffffffffffffffff\n      mul\n      not\n      and\n      swap1\n      dup4\n      0xffffffffffffffffffffffffffffffffffffffff\n      and\n      mul\n      or\n      swap1\n      sstore\n      pop\n      swap1\n      pop\n      pop\n        /* \"contracts/TransparentSupplyChain.sol\":2871:2899  productIdCounter.increment() */\n      tag_139\n        /* \"contracts/TransparentSupplyChain.sol\":2871:2887  productIdCounter */\n      0x03\n        /* \"contracts/TransparentSupplyChain.sol\":2871:2897  productIdCounter.increment */\n      tag_140\n        /* \"contracts/TransparentSupplyChain.sol\":2871:2899  productIdCounter.increment() */\n      jump\t// in\n    tag_139:\n        /* \"contracts/TransparentSupplyChain.sol\":2915:2968  ProductCreated(productId, _name, _origin, msg.sender) */\n      0x5f1912a9c5f8a881e905d410b7f74013932df43b5dec69d074d965f102e19af8\n        /* \"contracts/TransparentSupplyChain.sol\":2930:2939  productId */\n      dup2\n        /* \"contracts/TransparentSupplyChain.sol\":2941:2946  _name */\n      dup8\n        /* \"contracts/TransparentSupplyChain.sol\":2948:2955  _origin */\n      dup8\n        /* \"contracts/TransparentSupplyChain.sol\":2957:2967  msg.sender */\n      caller\n        /* \"contracts/TransparentSupplyChain.sol\":2915:2968  ProductCreated(productId, _name, _origin, msg.sender) */\n      mload(0x40)\n      tag_141\n      swap5\n      swap4\n      swap3\n      swap2\n      swap1\n      tag_142\n      jump\t// in\n    tag_141:\n      mload(0x40)\n      dup1\n      swap2\n      sub\n      swap1\n      log1\n        /* \"contracts/TransparentSupplyChain.sol\":2520:2975  {... */\n      pop\n        /* \"contracts/TransparentSupplyChain.sol\":2337:2975  function addProduct(... */\n      pop\n      pop\n      pop\n      pop\n      pop\n      jump\t// out\n        /* \"contracts/TransparentSupplyChain.sol\":4932:5607  function getProduct(uint256 _productId)... */\n    tag_66:\n        /* \"contracts/TransparentSupplyChain.sol\":5032:5050  string memory name */\n      0x60\n        /* \"contracts/TransparentSupplyChain.sol\":5064:5084  string memory origin */\n      dup1\n        /* \"contracts/TransparentSupplyChain.sol\":5098:5115  uint256 timestamp */\n      0x00\n        /* \"contracts/TransparentSupplyChain.sol\":5129:5150  bool organicCertified */\n      dup1\n        /* \"contracts/TransparentSupplyChain.sol\":5164:5187  bool fairTradeCertified */\n      0x00\n        /* \"contracts/TransparentSupplyChain.sol\":5201:5221  address currentOwner */\n      dup1\n        /* \"contracts/TransparentSupplyChain.sol\":5267:5293  productIdCounter.current() */\n      tag_144\n        /* \"contracts/TransparentSupplyChain.sol\":5267:5283  productIdCounter */\n      0x03\n        /* \"contracts/TransparentSupplyChain.sol\":5267:5291  productIdCounter.current */\n      tag_102\n        /* \"contracts/TransparentSupplyChain.sol\":5267:5293  productIdCounter.current() */\n      jump\t// in\n    tag_144:\n        /* \"contracts/TransparentSupplyChain.sol\":5254:5264  _productId */\n      dup8\n        /* \"contracts/TransparentSupplyChain.sol\":5254:5293  _productId < productIdCounter.current() */\n      lt\n        /* \"contracts/TransparentSupplyChain.sol\":5246:5321  require(_productId < productIdCounter.current(), \"Product does not exist.\") */\n      tag_145\n      jumpi\n      mload(0x40)\n      0x08c379a000000000000000000000000000000000000000000000000000000000\n      dup2\n      mstore\n      0x04\n      add\n      tag_146\n      swap1\n      tag_105\n      jump\t// in\n    tag_146:\n      mload(0x40)\n      dup1\n      swap2\n      sub\n      swap1\n      revert\n    tag_145:\n        /* \"contracts/TransparentSupplyChain.sol\":5331:5353  Product memory product */\n      0x00\n        /* \"contracts/TransparentSupplyChain.sol\":5356:5364  products */\n      0x01\n        /* \"contracts/TransparentSupplyChain.sol\":5356:5376  products[_productId] */\n      0x00\n        /* \"contracts/TransparentSupplyChain.sol\":5365:5375  _productId */\n      dup10\n        /* \"contracts/TransparentSupplyChain.sol\":5356:5376  products[_productId] */\n      dup2\n      mstore\n      0x20\n      add\n      swap1\n      dup2\n      mstore\n      0x20\n      add\n      0x00\n      keccak256\n        /* \"contracts/TransparentSupplyChain.sol\":5331:5376  Product memory product = products[_productId] */\n      mload(0x40)\n      dup1\n      0xc0\n      add\n      0x40\n      mstore\n      swap1\n      dup2\n      0x00\n      dup3\n      add\n      dup1\n      sload\n      tag_147\n      swap1\n      tag_110\n      jump\t// in\n    tag_147:\n      dup1\n      0x1f\n      add\n      0x20\n      dup1\n      swap2\n      div\n      mul\n      0x20\n      add\n      mload(0x40)\n      swap1\n      dup2\n      add\n      0x40\n      mstore\n      dup1\n      swap3\n      swap2\n      swap1\n      dup2\n      dup2\n      mstore\n      0x20\n      add\n      dup3\n      dup1\n      sload\n      tag_148\n      swap1\n      tag_110\n      jump\t// in\n    tag_148:\n      dup1\n      iszero\n      tag_149\n      jumpi\n      dup1\n      0x1f\n      lt\n      tag_150\n      jumpi\n      0x0100\n      dup1\n      dup4\n      sload\n      div\n      mul\n      dup4\n      mstore\n      swap2\n      0x20\n      add\n      swap2\n      jump(tag_149)\n    tag_150:\n      dup3\n      add\n      swap2\n      swap1\n      0x00\n      mstore\n      keccak256(0x00, 0x20)\n      swap1\n    tag_151:\n      dup2\n      sload\n      dup2\n      mstore\n      swap1\n      0x01\n      add\n      swap1\n      0x20\n      add\n      dup1\n      dup4\n      gt\n      tag_151\n      jumpi\n      dup3\n      swap1\n      sub\n      0x1f\n      and\n      dup3\n      add\n      swap2\n    tag_149:\n      pop\n      pop\n      pop\n      pop\n      pop\n      dup2\n      mstore\n      0x20\n      add\n      0x01\n      dup3\n      add\n      dup1\n      sload\n      tag_152\n      swap1\n      tag_110\n      jump\t// in\n    tag_152:\n      dup1\n      0x1f\n      add\n      0x20\n      dup1\n      swap2\n      div\n      mul\n      0x20\n      add\n      mload(0x40)\n      swap1\n      dup2\n      add\n      0x40\n      mstore\n      dup1\n      swap3\n      swap2\n      swap1\n      dup2\n      dup2\n      mstore\n      0x20\n      add\n      dup3\n      dup1\n      sload\n      tag_153\n      swap1\n      tag_110\n      jump\t// in\n    tag_153:\n      dup1\n      iszero\n      tag_154\n      jumpi\n      dup1\n      0x1f\n      lt\n      tag_155\n      jumpi\n      0x0100\n      dup1\n      dup4\n      sload\n      div\n      mul\n      dup4\n      mstore\n      swap2\n      0x20\n      add\n      swap2\n      jump(tag_154)\n    tag_155:\n      dup3\n      add\n      swap2\n      swap1\n      0x00\n      mstore\n      keccak256(0x00, 0x20)\n      swap1\n    tag_156:\n      dup2\n      sload\n      dup2\n      mstore\n      swap1\n      0x01\n      add\n      swap1\n      0x20\n      add\n      dup1\n      dup4\n      gt\n      tag_156\n      jumpi\n      dup3\n      swap1\n      sub\n      0x1f\n      and\n      dup3\n      add\n      swap2\n    tag_154:\n      pop\n      pop\n      pop\n      pop\n      pop\n      dup2\n      mstore\n      0x20\n      add\n      0x02\n      dup3\n      add\n      sload\n      dup2\n      mstore\n      0x20\n      add\n      0x03\n      dup3\n      add\n      0x00\n      swap1\n      sload\n      swap1\n      0x0100\n      exp\n      swap1\n      div\n      0xff\n      and\n      iszero\n      iszero\n      iszero\n      iszero\n      dup2\n      mstore\n      0x20\n      add\n      0x03\n      dup3\n      add\n      0x01\n      swap1\n      sload\n      swap1\n      0x0100\n      exp\n      swap1\n      div\n      0xff\n      and\n      iszero\n      iszero\n      iszero\n      iszero\n      dup2\n      mstore\n      0x20\n      add\n      0x03\n      dup3\n      add\n      0x02\n      swap1\n      sload\n      swap1\n      0x0100\n      exp\n      swap1\n      div\n      0xffffffffffffffffffffffffffffffffffffffff\n      and\n      0xffffffffffffffffffffffffffffffffffffffff\n      and\n      0xffffffffffffffffffffffffffffffffffffffff\n      and\n      dup2\n      mstore\n      pop\n      pop\n      swap1\n      pop\n        /* \"contracts/TransparentSupplyChain.sol\":5407:5414  product */\n      dup1\n        /* \"contracts/TransparentSupplyChain.sol\":5407:5419  product.name */\n      0x00\n      add\n      mload\n        /* \"contracts/TransparentSupplyChain.sol\":5433:5440  product */\n      dup2\n        /* \"contracts/TransparentSupplyChain.sol\":5433:5447  product.origin */\n      0x20\n      add\n      mload\n        /* \"contracts/TransparentSupplyChain.sol\":5461:5468  product */\n      dup3\n        /* \"contracts/TransparentSupplyChain.sol\":5461:5478  product.timestamp */\n      0x40\n      add\n      mload\n        /* \"contracts/TransparentSupplyChain.sol\":5492:5499  product */\n      dup4\n        /* \"contracts/TransparentSupplyChain.sol\":5492:5516  product.organicCertified */\n      0x60\n      add\n      mload\n        /* \"contracts/TransparentSupplyChain.sol\":5530:5537  product */\n      dup5\n        /* \"contracts/TransparentSupplyChain.sol\":5530:5556  product.fairTradeCertified */\n      0x80\n      add\n      mload\n        /* \"contracts/TransparentSupplyChain.sol\":5570:5577  product */\n      dup6\n        /* \"contracts/TransparentSupplyChain.sol\":5570:5590  product.currentOwner */\n      0xa0\n      add\n      mload\n        /* \"contracts/TransparentSupplyChain.sol\":5386:5600  return (... */\n      swap7\n      pop\n      swap7\n      pop\n      swap7\n      pop\n      swap7\n      pop\n      swap7\n      pop\n      swap7\n      pop\n      pop\n        /* \"contracts/TransparentSupplyChain.sol\":4932:5607  function getProduct(uint256 _productId)... */\n      swap2\n      swap4\n      swap6\n      pop\n      swap2\n      swap4\n      swap6\n      jump\t// out\n        /* \"@openzeppelin/contracts/access/AccessControl.sol\":4642:4780  function revokeRole(bytes32 role, address account) public virtual onlyRole(getRoleAdmin(role)) {... */\n    tag_71:\n        /* \"@openzeppelin/contracts/access/AccessControl.sol\":4717:4735  getRoleAdmin(role) */\n      tag_157\n        /* \"@openzeppelin/contracts/access/AccessControl.sol\":4730:4734  role */\n      dup3\n        /* \"@openzeppelin/contracts/access/AccessControl.sol\":4717:4729  getRoleAdmin */\n      tag_34\n        /* \"@openzeppelin/contracts/access/AccessControl.sol\":4717:4735  getRoleAdmin(role) */\n      jump\t// in\n    tag_157:\n        /* \"@openzeppelin/contracts/access/AccessControl.sol\":2464:2480  _checkRole(role) */\n      tag_159\n        /* \"@openzeppelin/contracts/access/AccessControl.sol\":2475:2479  role */\n      dup2\n        /* \"@openzeppelin/contracts/access/AccessControl.sol\":2464:2474  _checkRole */\n      tag_90\n        /* \"@openzeppelin/contracts/access/AccessControl.sol\":2464:2480  _checkRole(role) */\n      jump\t// in\n    tag_159:\n        /* \"@openzeppelin/contracts/access/AccessControl.sol\":4747:4773  _revokeRole(role, account) */\n      tag_161\n        /* \"@openzeppelin/contracts/access/AccessControl.sol\":4759:4763  role */\n      dup4\n        /* \"@openzeppelin/contracts/access/AccessControl.sol\":4765:4772  account */\n      dup4\n        /* \"@openzeppelin/contracts/access/AccessControl.sol\":4747:4758  _revokeRole */\n      tag_99\n        /* \"@openzeppelin/contracts/access/AccessControl.sol\":4747:4773  _revokeRole(role, account) */\n      jump\t// in\n    tag_161:\n      pop\n        /* \"@openzeppelin/contracts/access/AccessControl.sol\":4642:4780  function revokeRole(bytes32 role, address account) public virtual onlyRole(getRoleAdmin(role)) {... */\n      pop\n      pop\n      pop\n      jump\t// out\n        /* \"contracts/TransparentSupplyChain.sol\":3975:4435  function transferProduct(uint256 _productId, address _to) external {... */\n    tag_75:\n        /* \"contracts/TransparentSupplyChain.sol\":4073:4099  productIdCounter.current() */\n      tag_163\n        /* \"contracts/TransparentSupplyChain.sol\":4073:4089  productIdCounter */\n      0x03\n        /* \"contracts/TransparentSupplyChain.sol\":4073:4097  productIdCounter.current */\n      tag_102\n        /* \"contracts/TransparentSupplyChain.sol\":4073:4099  productIdCounter.current() */\n      jump\t// in\n    tag_163:\n        /* \"contracts/TransparentSupplyChain.sol\":4060:4070  _productId */\n      dup3\n        /* \"contracts/TransparentSupplyChain.sol\":4060:4099  _productId < productIdCounter.current() */\n      lt\n        /* \"contracts/TransparentSupplyChain.sol\":4052:4127  require(_productId < productIdCounter.current(), \"Product does not exist.\") */\n      tag_164\n      jumpi\n      mload(0x40)\n      0x08c379a000000000000000000000000000000000000000000000000000000000\n      dup2\n      mstore\n      0x04\n      add\n      tag_165\n      swap1\n      tag_105\n      jump\t// in\n    tag_165:\n      mload(0x40)\n      dup1\n      swap2\n      sub\n      swap1\n      revert\n    tag_164:\n        /* \"contracts/TransparentSupplyChain.sol\":4182:4192  msg.sender */\n      caller\n        /* \"contracts/TransparentSupplyChain.sol\":4145:4192  products[_productId].currentOwner == msg.sender */\n      0xffffffffffffffffffffffffffffffffffffffff\n      and\n        /* \"contracts/TransparentSupplyChain.sol\":4145:4153  products */\n      0x01\n        /* \"contracts/TransparentSupplyChain.sol\":4145:4165  products[_productId] */\n      0x00\n        /* \"contracts/TransparentSupplyChain.sol\":4154:4164  _productId */\n      dup5\n        /* \"contracts/TransparentSupplyChain.sol\":4145:4165  products[_productId] */\n      dup2\n      mstore\n      0x20\n      add\n      swap1\n      dup2\n      mstore\n      0x20\n      add\n      0x00\n      keccak256\n        /* \"contracts/TransparentSupplyChain.sol\":4145:4178  products[_productId].currentOwner */\n      0x03\n      add\n      0x02\n      swap1\n      sload\n      swap1\n      0x0100\n      exp\n      swap1\n      div\n      0xffffffffffffffffffffffffffffffffffffffff\n      and\n        /* \"contracts/TransparentSupplyChain.sol\":4145:4192  products[_productId].currentOwner == msg.sender */\n      0xffffffffffffffffffffffffffffffffffffffff\n      and\n      eq\n        /* \"contracts/TransparentSupplyChain.sol\":4137:4245  require(products[_productId].currentOwner == msg.sender, \"Only the current owner can transfer the product.\") */\n      tag_166\n      jumpi\n      mload(0x40)\n      0x08c379a000000000000000000000000000000000000000000000000000000000\n      dup2\n      mstore\n      0x04\n      add\n      tag_167\n      swap1\n      tag_168\n      jump\t// in\n    tag_167:\n      mload(0x40)\n      dup1\n      swap2\n      sub\n      swap1\n      revert\n    tag_166:\n        /* \"contracts/TransparentSupplyChain.sol\":4256:4277  address previousOwner */\n      0x00\n        /* \"contracts/TransparentSupplyChain.sol\":4280:4288  products */\n      0x01\n        /* \"contracts/TransparentSupplyChain.sol\":4280:4300  products[_productId] */\n      0x00\n        /* \"contracts/TransparentSupplyChain.sol\":4289:4299  _productId */\n      dup5\n        /* \"contracts/TransparentSupplyChain.sol\":4280:4300  products[_productId] */\n      dup2\n      mstore\n      0x20\n      add\n      swap1\n      dup2\n      mstore\n      0x20\n      add\n      0x00\n      keccak256\n        /* \"contracts/TransparentSupplyChain.sol\":4280:4313  products[_productId].currentOwner */\n      0x03\n      add\n      0x02\n      swap1\n      sload\n      swap1\n      0x0100\n      exp\n      swap1\n      div\n      0xffffffffffffffffffffffffffffffffffffffff\n      and\n        /* \"contracts/TransparentSupplyChain.sol\":4256:4313  address previousOwner = products[_productId].currentOwner */\n      swap1\n      pop\n        /* \"contracts/TransparentSupplyChain.sol\":4359:4362  _to */\n      dup2\n        /* \"contracts/TransparentSupplyChain.sol\":4323:4331  products */\n      0x01\n        /* \"contracts/TransparentSupplyChain.sol\":4323:4343  products[_productId] */\n      0x00\n        /* \"contracts/TransparentSupplyChain.sol\":4332:4342  _productId */\n      dup6\n        /* \"contracts/TransparentSupplyChain.sol\":4323:4343  products[_productId] */\n      dup2\n      mstore\n      0x20\n      add\n      swap1\n      dup2\n      mstore\n      0x20\n      add\n      0x00\n      keccak256\n        /* \"contracts/TransparentSupplyChain.sol\":4323:4356  products[_productId].currentOwner */\n      0x03\n      add\n      0x02\n        /* \"contracts/TransparentSupplyChain.sol\":4323:4362  products[_productId].currentOwner = _to */\n      0x0100\n      exp\n      dup2\n      sload\n      dup2\n      0xffffffffffffffffffffffffffffffffffffffff\n      mul\n      not\n      and\n      swap1\n      dup4\n      0xffffffffffffffffffffffffffffffffffffffff\n      and\n      mul\n      or\n      swap1\n      sstore\n      pop\n        /* \"contracts/TransparentSupplyChain.sol\":4378:4428  ProductTransferred(_productId, previousOwner, _to) */\n      0xcef86d37ba3dc1d682967cde44d8050488734bf53166725b220b4d2e515e9e93\n        /* \"contracts/TransparentSupplyChain.sol\":4397:4407  _productId */\n      dup4\n        /* \"contracts/TransparentSupplyChain.sol\":4409:4422  previousOwner */\n      dup3\n        /* \"contracts/TransparentSupplyChain.sol\":4424:4427  _to */\n      dup5\n        /* \"contracts/TransparentSupplyChain.sol\":4378:4428  ProductTransferred(_productId, previousOwner, _to) */\n      mload(0x40)\n      tag_169\n      swap4\n      swap3\n      swap2\n      swap1\n      tag_170\n      jump\t// in\n    tag_169:\n      mload(0x40)\n      dup1\n      swap2\n      sub\n      swap1\n      log1\n        /* \"contracts/TransparentSupplyChain.sol\":4042:4435  {... */\n      pop\n        /* \"contracts/TransparentSupplyChain.sol\":3975:4435  function transferProduct(uint256 _productId, address _to) external {... */\n      pop\n      pop\n      jump\t// out\n        /* \"contracts/TransparentSupplyChain.sol\":544:616  bytes32 public constant DISTRIBUTOR_ROLE = keccak256(\"DISTRIBUTOR_ROLE\") */\n    tag_77:\n        /* \"contracts/TransparentSupplyChain.sol\":587:616  keccak256(\"DISTRIBUTOR_ROLE\") */\n      0xfbd454f36a7e1a388bd6fc3ab10d434aa4578f811acbbcf33afb1c697486313c\n        /* \"contracts/TransparentSupplyChain.sol\":544:616  bytes32 public constant DISTRIBUTOR_ROLE = keccak256(\"DISTRIBUTOR_ROLE\") */\n      dup2\n      jump\t// out\n        /* \"contracts/TransparentSupplyChain.sol\":476:538  bytes32 public constant FARMER_ROLE = keccak256(\"FARMER_ROLE\") */\n    tag_80:\n        /* \"contracts/TransparentSupplyChain.sol\":514:538  keccak256(\"FARMER_ROLE\") */\n      0x7c6181838a71a779e445600d4c6ecbe16bacf2b3c5bda69c29fada66d1b645d1\n        /* \"contracts/TransparentSupplyChain.sol\":476:538  bytes32 public constant FARMER_ROLE = keccak256(\"FARMER_ROLE\") */\n      dup2\n      jump\t// out\n        /* \"@openzeppelin/contracts/utils/introspection/ERC165.sol\":762:908  function supportsInterface(bytes4 interfaceId) public view virtual returns (bool) {... */\n    tag_85:\n        /* \"@openzeppelin/contracts/utils/introspection/ERC165.sol\":838:842  bool */\n      0x00\n        /* \"@openzeppelin/contracts/utils/introspection/ERC165.sol\":876:901  type(IERC165).interfaceId */\n      0x01ffc9a700000000000000000000000000000000000000000000000000000000\n        /* \"@openzeppelin/contracts/utils/introspection/ERC165.sol\":861:901  interfaceId == type(IERC165).interfaceId */\n      not(0xffffffffffffffffffffffffffffffffffffffffffffffffffffffff)\n      and\n        /* \"@openzeppelin/contracts/utils/introspection/ERC165.sol\":861:872  interfaceId */\n      dup3\n        /* \"@openzeppelin/contracts/utils/introspection/ERC165.sol\":861:901  interfaceId == type(IERC165).interfaceId */\n      not(0xffffffffffffffffffffffffffffffffffffffffffffffffffffffff)\n      and\n      eq\n        /* \"@openzeppelin/contracts/utils/introspection/ERC165.sol\":854:901  return interfaceId == type(IERC165).interfaceId */\n      swap1\n      pop\n        /* \"@openzeppelin/contracts/utils/introspection/ERC165.sol\":762:908  function supportsInterface(bytes4 interfaceId) public view virtual returns (bool) {... */\n      swap2\n      swap1\n      pop\n      jump\t// out\n        /* \"@openzeppelin/contracts/access/AccessControl.sol\":3199:3302  function _checkRole(bytes32 role) internal view virtual {... */\n    tag_90:\n        /* \"@openzeppelin/contracts/access/AccessControl.sol\":3265:3295  _checkRole(role, _msgSender()) */\n      tag_173\n        /* \"@openzeppelin/contracts/access/AccessControl.sol\":3276:3280  role */\n      dup2\n        /* \"@openzeppelin/contracts/access/AccessControl.sol\":3282:3294  _msgSender() */\n      tag_174\n        /* \"@openzeppelin/contracts/access/AccessControl.sol\":3282:3292  _msgSender */\n      tag_96\n        /* \"@openzeppelin/contracts/access/AccessControl.sol\":3282:3294  _msgSender() */\n      jump\t// in\n    tag_174:\n        /* \"@openzeppelin/contracts/access/AccessControl.sol\":3265:3275  _checkRole */\n      tag_175\n        /* \"@openzeppelin/contracts/access/AccessControl.sol\":3265:3295  _checkRole(role, _msgSender()) */\n      jump\t// in\n    tag_173:\n        /* \"@openzeppelin/contracts/access/AccessControl.sol\":3199:3302  function _checkRole(bytes32 role) internal view virtual {... */\n      pop\n      jump\t// out\n        /* \"@openzeppelin/contracts/access/AccessControl.sol\":6179:6495  function _grantRole(bytes32 role, address account) internal virtual returns (bool) {... */\n    tag_93:\n        /* \"@openzeppelin/contracts/access/AccessControl.sol\":6256:6260  bool */\n      0x00\n        /* \"@openzeppelin/contracts/access/AccessControl.sol\":6277:6299  hasRole(role, account) */\n      tag_177\n        /* \"@openzeppelin/contracts/access/AccessControl.sol\":6285:6289  role */\n      dup4\n        /* \"@openzeppelin/contracts/access/AccessControl.sol\":6291:6298  account */\n      dup4\n        /* \"@openzeppelin/contracts/access/AccessControl.sol\":6277:6284  hasRole */\n      tag_51\n        /* \"@openzeppelin/contracts/access/AccessControl.sol\":6277:6299  hasRole(role, account) */\n      jump\t// in\n    tag_177:\n        /* \"@openzeppelin/contracts/access/AccessControl.sol\":6272:6489  if (!hasRole(role, account)) {... */\n      tag_178\n      jumpi\n        /* \"@openzeppelin/contracts/access/AccessControl.sol\":6347:6351  true */\n      0x01\n        /* \"@openzeppelin/contracts/access/AccessControl.sol\":6315:6321  _roles */\n      0x00\n        /* \"@openzeppelin/contracts/access/AccessControl.sol\":6315:6327  _roles[role] */\n      dup1\n        /* \"@openzeppelin/contracts/access/AccessControl.sol\":6322:6326  role */\n      dup6\n        /* \"@openzeppelin/contracts/access/AccessControl.sol\":6315:6327  _roles[role] */\n      dup2\n      mstore\n      0x20\n      add\n      swap1\n      dup2\n      mstore\n      0x20\n      add\n      0x00\n      keccak256\n        /* \"@openzeppelin/contracts/access/AccessControl.sol\":6315:6335  _roles[role].hasRole */\n      0x00\n      add\n        /* \"@openzeppelin/contracts/access/AccessControl.sol\":6315:6344  _roles[role].hasRole[account] */\n      0x00\n        /* \"@openzeppelin/contracts/access/AccessControl.sol\":6336:6343  account */\n      dup5\n        /* \"@openzeppelin/contracts/access/AccessControl.sol\":6315:6344  _roles[role].hasRole[account] */\n      0xffffffffffffffffffffffffffffffffffffffff\n      and\n      0xffffffffffffffffffffffffffffffffffffffff\n      and\n      dup2\n      mstore\n      0x20\n      add\n      swap1\n      dup2\n      mstore\n      0x20\n      add\n      0x00\n      keccak256\n      0x00\n        /* \"@openzeppelin/contracts/access/AccessControl.sol\":6315:6351  _roles[role].hasRole[account] = true */\n      0x0100\n      exp\n      dup2\n      sload\n      dup2\n      0xff\n      mul\n      not\n      and\n      swap1\n      dup4\n      iszero\n      iszero\n      mul\n      or\n      swap1\n      sstore\n      pop\n        /* \"@openzeppelin/contracts/access/AccessControl.sol\":6397:6409  _msgSender() */\n      tag_179\n        /* \"@openzeppelin/contracts/access/AccessControl.sol\":6397:6407  _msgSender */\n      tag_96\n        /* \"@openzeppelin/contracts/access/AccessControl.sol\":6397:6409  _msgSender() */\n      jump\t// in\n    tag_179:\n        /* \"@openzeppelin/contracts/access/AccessControl.sol\":6370:6410  RoleGranted(role, account, _msgSender()) */\n      0xffffffffffffffffffffffffffffffffffffffff\n      and\n        /* \"@openzeppelin/contracts/access/AccessControl.sol\":6388:6395  account */\n      dup3\n        /* \"@openzeppelin/contracts/access/AccessControl.sol\":6370:6410  RoleGranted(role, account, _msgSender()) */\n      0xffffffffffffffffffffffffffffffffffffffff\n      and\n        /* \"@openzeppelin/contracts/access/AccessControl.sol\":6382:6386  role */\n      dup5\n        /* \"@openzeppelin/contracts/access/AccessControl.sol\":6370:6410  RoleGranted(role, account, _msgSender()) */\n      0x2f8788117e7eff1d82e926ec794901d17c78024a50270940304540a733656f0d\n      mload(0x40)\n      mload(0x40)\n      dup1\n      swap2\n      sub\n      swap1\n      log4\n        /* \"@openzeppelin/contracts/access/AccessControl.sol\":6431:6435  true */\n      0x01\n        /* \"@openzeppelin/contracts/access/AccessControl.sol\":6424:6435  return true */\n      swap1\n      pop\n      jump(tag_176)\n        /* \"@openzeppelin/contracts/access/AccessControl.sol\":6272:6489  if (!hasRole(role, account)) {... */\n    tag_178:\n        /* \"@openzeppelin/contracts/access/AccessControl.sol\":6473:6478  false */\n      0x00\n        /* \"@openzeppelin/contracts/access/AccessControl.sol\":6466:6478  return false */\n      swap1\n      pop\n        /* \"@openzeppelin/contracts/access/AccessControl.sol\":6179:6495  function _grantRole(bytes32 role, address account) internal virtual returns (bool) {... */\n    tag_176:\n      swap3\n      swap2\n      pop\n      pop\n      jump\t// out\n        /* \"@openzeppelin/contracts/utils/Context.sol\":656:752  function _msgSender() internal view virtual returns (address) {... */\n    tag_96:\n        /* \"@openzeppelin/contracts/utils/Context.sol\":709:716  address */\n      0x00\n        /* \"@openzeppelin/contracts/utils/Context.sol\":735:745  msg.sender */\n      caller\n        /* \"@openzeppelin/contracts/utils/Context.sol\":728:745  return msg.sender */\n      swap1\n      pop\n        /* \"@openzeppelin/contracts/utils/Context.sol\":656:752  function _msgSender() internal view virtual returns (address) {... */\n      swap1\n      jump\t// out\n        /* \"@openzeppelin/contracts/access/AccessControl.sol\":6730:7047  function _revokeRole(bytes32 role, address account) internal virtual returns (bool) {... */\n    tag_99:\n        /* \"@openzeppelin/contracts/access/AccessControl.sol\":6808:6812  bool */\n      0x00\n        /* \"@openzeppelin/contracts/access/AccessControl.sol\":6828:6850  hasRole(role, account) */\n      tag_183\n        /* \"@openzeppelin/contracts/access/AccessControl.sol\":6836:6840  role */\n      dup4\n        /* \"@openzeppelin/contracts/access/AccessControl.sol\":6842:6849  account */\n      dup4\n        /* \"@openzeppelin/contracts/access/AccessControl.sol\":6828:6835  hasRole */\n      tag_51\n        /* \"@openzeppelin/contracts/access/AccessControl.sol\":6828:6850  hasRole(role, account) */\n      jump\t// in\n    tag_183:\n        /* \"@openzeppelin/contracts/access/AccessControl.sol\":6824:7041  if (hasRole(role, account)) {... */\n      iszero\n      tag_184\n      jumpi\n        /* \"@openzeppelin/contracts/access/AccessControl.sol\":6898:6903  false */\n      0x00\n        /* \"@openzeppelin/contracts/access/AccessControl.sol\":6866:6872  _roles */\n      dup1\n        /* \"@openzeppelin/contracts/access/AccessControl.sol\":6866:6878  _roles[role] */\n      0x00\n        /* \"@openzeppelin/contracts/access/AccessControl.sol\":6873:6877  role */\n      dup6\n        /* \"@openzeppelin/contracts/access/AccessControl.sol\":6866:6878  _roles[role] */\n      dup2\n      mstore\n      0x20\n      add\n      swap1\n      dup2\n      mstore\n      0x20\n      add\n      0x00\n      keccak256\n        /* \"@openzeppelin/contracts/access/AccessControl.sol\":6866:6886  _roles[role].hasRole */\n      0x00\n      add\n        /* \"@openzeppelin/contracts/access/AccessControl.sol\":6866:6895  _roles[role].hasRole[account] */\n      0x00\n        /* \"@openzeppelin/contracts/access/AccessControl.sol\":6887:6894  account */\n      dup5\n        /* \"@openzeppelin/contracts/access/AccessControl.sol\":6866:6895  _roles[role].hasRole[account] */\n      0xffffffffffffffffffffffffffffffffffffffff\n      and\n      0xffffffffffffffffffffffffffffffffffffffff\n      and\n      dup2\n      mstore\n      0x20\n      add\n      swap1\n      dup2\n      mstore\n      0x20\n      add\n      0x00\n      keccak256\n      0x00\n        /* \"@openzeppelin/contracts/access/AccessControl.sol\":6866:6903  _roles[role].hasRole[account] = false */\n      0x0100\n      exp\n      dup2\n      sload\n      dup2\n      0xff\n      mul\n      not\n      and\n      swap1\n      dup4\n      iszero\n      iszero\n      mul\n      or\n      swap1\n      sstore\n      pop\n        /* \"@openzeppelin/contracts/access/AccessControl.sol\":6949:6961  _msgSender() */\n      tag_185\n        /* \"@openzeppelin/contracts/access/AccessControl.sol\":6949:6959  _msgSender */\n      tag_96\n        /* \"@openzeppelin/contracts/access/AccessControl.sol\":6949:6961  _msgSender() */\n      jump\t// in\n    tag_185:\n        /* \"@openzeppelin/contracts/access/AccessControl.sol\":6922:6962  RoleRevoked(role, account, _msgSender()) */\n      0xffffffffffffffffffffffffffffffffffffffff\n      and\n        /* \"@openzeppelin/contracts/access/AccessControl.sol\":6940:6947  account */\n      dup3\n        /* \"@openzeppelin/contracts/access/AccessControl.sol\":6922:6962  RoleRevoked(role, account, _msgSender()) */\n      0xffffffffffffffffffffffffffffffffffffffff\n      and\n        /* \"@openzeppelin/contracts/access/AccessControl.sol\":6934:6938  role */\n      dup5\n        /* \"@openzeppelin/contracts/access/AccessControl.sol\":6922:6962  RoleRevoked(role, account, _msgSender()) */\n      0xf6391f5c32d9c69d2a47ea670b442974b53935d1edc7fd64eb21e047a839171b\n      mload(0x40)\n      mload(0x40)\n      dup1\n      swap2\n      sub\n      swap1\n      log4\n        /* \"@openzeppelin/contracts/access/AccessControl.sol\":6983:6987  true */\n      0x01\n        /* \"@openzeppelin/contracts/access/AccessControl.sol\":6976:6987  return true */\n      swap1\n      pop\n      jump(tag_182)\n        /* \"@openzeppelin/contracts/access/AccessControl.sol\":6824:7041  if (hasRole(role, account)) {... */\n    tag_184:\n        /* \"@openzeppelin/contracts/access/AccessControl.sol\":7025:7030  false */\n      0x00\n        /* \"@openzeppelin/contracts/access/AccessControl.sol\":7018:7030  return false */\n      swap1\n      pop\n        /* \"@openzeppelin/contracts/access/AccessControl.sol\":6730:7047  function _revokeRole(bytes32 role, address account) internal virtual returns (bool) {... */\n    tag_182:\n      swap3\n      swap2\n      pop\n      pop\n      jump\t// out\n        /* \"@openzeppelin/contracts/utils/Counters.sol\":827:939  function current(Counter storage counter) internal view returns (uint256) {... */\n    tag_102:\n        /* \"@openzeppelin/contracts/utils/Counters.sol\":892:899  uint256 */\n      0x00\n        /* \"@openzeppelin/contracts/utils/Counters.sol\":918:925  counter */\n      dup2\n        /* \"@openzeppelin/contracts/utils/Counters.sol\":918:932  counter._value */\n      0x00\n      add\n      sload\n        /* \"@openzeppelin/contracts/utils/Counters.sol\":911:932  return counter._value */\n      swap1\n      pop\n        /* \"@openzeppelin/contracts/utils/Counters.sol\":827:939  function current(Counter storage counter) internal view returns (uint256) {... */\n      swap2\n      swap1\n      pop\n      jump\t// out\n        /* \"@openzeppelin/contracts/utils/Counters.sol\":945:1068  function increment(Counter storage counter) internal {... */\n    tag_140:\n        /* \"@openzeppelin/contracts/utils/Counters.sol\":1050:1051  1 */\n      0x01\n        /* \"@openzeppelin/contracts/utils/Counters.sol\":1032:1039  counter */\n      dup2\n        /* \"@openzeppelin/contracts/utils/Counters.sol\":1032:1046  counter._value */\n      0x00\n      add\n      0x00\n        /* \"@openzeppelin/contracts/utils/Counters.sol\":1032:1051  counter._value += 1 */\n      dup3\n      dup3\n      sload\n      add\n      swap3\n      pop\n      pop\n      dup2\n      swap1\n      sstore\n      pop\n        /* \"@openzeppelin/contracts/utils/Counters.sol\":945:1068  function increment(Counter storage counter) internal {... */\n      pop\n      jump\t// out\n        /* \"@openzeppelin/contracts/access/AccessControl.sol\":3432:3629  function _checkRole(bytes32 role, address account) internal view virtual {... */\n    tag_175:\n        /* \"@openzeppelin/contracts/access/AccessControl.sol\":3520:3542  hasRole(role, account) */\n      tag_190\n        /* \"@openzeppelin/contracts/access/AccessControl.sol\":3528:3532  role */\n      dup3\n        /* \"@openzeppelin/contracts/access/AccessControl.sol\":3534:3541  account */\n      dup3\n        /* \"@openzeppelin/contracts/access/AccessControl.sol\":3520:3527  hasRole */\n      tag_51\n        /* \"@openzeppelin/contracts/access/AccessControl.sol\":3520:3542  hasRole(role, account) */\n      jump\t// in\n    tag_190:\n        /* \"@openzeppelin/contracts/access/AccessControl.sol\":3515:3623  if (!hasRole(role, account)) {... */\n      tag_191\n      jumpi\n        /* \"@openzeppelin/contracts/access/AccessControl.sol\":3598:3605  account */\n      dup1\n        /* \"@openzeppelin/contracts/access/AccessControl.sol\":3607:3611  role */\n      dup3\n        /* \"@openzeppelin/contracts/access/AccessControl.sol\":3565:3612  AccessControlUnauthorizedAccount(account, role) */\n      mload(0x40)\n      0xe2517d3f00000000000000000000000000000000000000000000000000000000\n      dup2\n      mstore\n      0x04\n      add\n      tag_192\n      swap3\n      swap2\n      swap1\n      tag_193\n      jump\t// in\n    tag_192:\n      mload(0x40)\n      dup1\n      swap2\n      sub\n      swap1\n      revert\n        /* \"@openzeppelin/contracts/access/AccessControl.sol\":3515:3623  if (!hasRole(role, account)) {... */\n    tag_191:\n        /* \"@openzeppelin/contracts/access/AccessControl.sol\":3432:3629  function _checkRole(bytes32 role, address account) internal view virtual {... */\n      pop\n      pop\n      jump\t// out\n        /* \"#utility.yul\":7:82   */\n    tag_194:\n        /* \"#utility.yul\":40:46   */\n      0x00\n        /* \"#utility.yul\":73:75   */\n      0x40\n        /* \"#utility.yul\":67:76   */\n      mload\n        /* \"#utility.yul\":57:76   */\n      swap1\n      pop\n        /* \"#utility.yul\":7:82   */\n      swap1\n      jump\t// out\n        /* \"#utility.yul\":88:205   */\n    tag_195:\n        /* \"#utility.yul\":197:198   */\n      0x00\n        /* \"#utility.yul\":194:195   */\n      dup1\n        /* \"#utility.yul\":187:199   */\n      revert\n        /* \"#utility.yul\":211:328   */\n    tag_196:\n        /* \"#utility.yul\":320:321   */\n      0x00\n        /* \"#utility.yul\":317:318   */\n      dup1\n        /* \"#utility.yul\":310:322   */\n      revert\n        /* \"#utility.yul\":334:483   */\n    tag_197:\n        /* \"#utility.yul\":370:377   */\n      0x00\n        /* \"#utility.yul\":410:476   */\n      0xffffffff00000000000000000000000000000000000000000000000000000000\n        /* \"#utility.yul\":403:408   */\n      dup3\n        /* \"#utility.yul\":399:477   */\n      and\n        /* \"#utility.yul\":388:477   */\n      swap1\n      pop\n        /* \"#utility.yul\":334:483   */\n      swap2\n      swap1\n      pop\n      jump\t// out\n        /* \"#utility.yul\":489:609   */\n    tag_198:\n        /* \"#utility.yul\":561:584   */\n      tag_267\n        /* \"#utility.yul\":578:583   */\n      dup2\n        /* \"#utility.yul\":561:584   */\n      tag_197\n      jump\t// in\n    tag_267:\n        /* \"#utility.yul\":554:559   */\n      dup2\n        /* \"#utility.yul\":551:585   */\n      eq\n        /* \"#utility.yul\":541:603   */\n      tag_268\n      jumpi\n        /* \"#utility.yul\":599:600   */\n      0x00\n        /* \"#utility.yul\":596:597   */\n      dup1\n        /* \"#utility.yul\":589:601   */\n      revert\n        /* \"#utility.yul\":541:603   */\n    tag_268:\n        /* \"#utility.yul\":489:609   */\n      pop\n      jump\t// out\n        /* \"#utility.yul\":615:752   */\n    tag_199:\n        /* \"#utility.yul\":660:665   */\n      0x00\n        /* \"#utility.yul\":698:704   */\n      dup2\n        /* \"#utility.yul\":685:705   */\n      calldataload\n        /* \"#utility.yul\":676:705   */\n      swap1\n      pop\n        /* \"#utility.yul\":714:746   */\n      tag_270\n        /* \"#utility.yul\":740:745   */\n      dup2\n        /* \"#utility.yul\":714:746   */\n      tag_198\n      jump\t// in\n    tag_270:\n        /* \"#utility.yul\":615:752   */\n      swap3\n      swap2\n      pop\n      pop\n      jump\t// out\n        /* \"#utility.yul\":758:1085   */\n    tag_23:\n        /* \"#utility.yul\":816:822   */\n      0x00\n        /* \"#utility.yul\":865:867   */\n      0x20\n        /* \"#utility.yul\":853:862   */\n      dup3\n        /* \"#utility.yul\":844:851   */\n      dup5\n        /* \"#utility.yul\":840:863   */\n      sub\n        /* \"#utility.yul\":836:868   */\n      slt\n        /* \"#utility.yul\":833:952   */\n      iszero\n      tag_272\n      jumpi\n        /* \"#utility.yul\":871:950   */\n      tag_273\n      tag_195\n      jump\t// in\n    tag_273:\n        /* \"#utility.yul\":833:952   */\n    tag_272:\n        /* \"#utility.yul\":991:992   */\n      0x00\n        /* \"#utility.yul\":1016:1068   */\n      tag_274\n        /* \"#utility.yul\":1060:1067   */\n      dup5\n        /* \"#utility.yul\":1051:1057   */\n      dup3\n        /* \"#utility.yul\":1040:1049   */\n      dup6\n        /* \"#utility.yul\":1036:1058   */\n      add\n        /* \"#utility.yul\":1016:1068   */\n      tag_199\n      jump\t// in\n    tag_274:\n        /* \"#utility.yul\":1006:1068   */\n      swap2\n      pop\n        /* \"#utility.yul\":962:1078   */\n      pop\n        /* \"#utility.yul\":758:1085   */\n      swap3\n      swap2\n      pop\n      pop\n      jump\t// out\n        /* \"#utility.yul\":1091:1181   */\n    tag_200:\n        /* \"#utility.yul\":1125:1132   */\n      0x00\n        /* \"#utility.yul\":1168:1173   */\n      dup2\n        /* \"#utility.yul\":1161:1174   */\n      iszero\n        /* \"#utility.yul\":1154:1175   */\n      iszero\n        /* \"#utility.yul\":1143:1175   */\n      swap1\n      pop\n        /* \"#utility.yul\":1091:1181   */\n      swap2\n      swap1\n      pop\n      jump\t// out\n        /* \"#utility.yul\":1187:1296   */\n    tag_201:\n        /* \"#utility.yul\":1268:1289   */\n      tag_277\n        /* \"#utility.yul\":1283:1288   */\n      dup2\n        /* \"#utility.yul\":1268:1289   */\n      tag_200\n      jump\t// in\n    tag_277:\n        /* \"#utility.yul\":1263:1266   */\n      dup3\n        /* \"#utility.yul\":1256:1290   */\n      mstore\n        /* \"#utility.yul\":1187:1296   */\n      pop\n      pop\n      jump\t// out\n        /* \"#utility.yul\":1302:1512   */\n    tag_26:\n        /* \"#utility.yul\":1389:1393   */\n      0x00\n        /* \"#utility.yul\":1427:1429   */\n      0x20\n        /* \"#utility.yul\":1416:1425   */\n      dup3\n        /* \"#utility.yul\":1412:1430   */\n      add\n        /* \"#utility.yul\":1404:1430   */\n      swap1\n      pop\n        /* \"#utility.yul\":1440:1505   */\n      tag_279\n        /* \"#utility.yul\":1502:1503   */\n      0x00\n        /* \"#utility.yul\":1491:1500   */\n      dup4\n        /* \"#utility.yul\":1487:1504   */\n      add\n        /* \"#utility.yul\":1478:1484   */\n      dup5\n        /* \"#utility.yul\":1440:1505   */\n      tag_201\n      jump\t// in\n    tag_279:\n        /* \"#utility.yul\":1302:1512   */\n      swap3\n      swap2\n      pop\n      pop\n      jump\t// out\n        /* \"#utility.yul\":1518:1595   */\n    tag_202:\n        /* \"#utility.yul\":1555:1562   */\n      0x00\n        /* \"#utility.yul\":1584:1589   */\n      dup2\n        /* \"#utility.yul\":1573:1589   */\n      swap1\n      pop\n        /* \"#utility.yul\":1518:1595   */\n      swap2\n      swap1\n      pop\n      jump\t// out\n        /* \"#utility.yul\":1601:1719   */\n    tag_203:\n        /* \"#utility.yul\":1688:1712   */\n      tag_282\n        /* \"#utility.yul\":1706:1711   */\n      dup2\n        /* \"#utility.yul\":1688:1712   */\n      tag_202\n      jump\t// in\n    tag_282:\n        /* \"#utility.yul\":1683:1686   */\n      dup3\n        /* \"#utility.yul\":1676:1713   */\n      mstore\n        /* \"#utility.yul\":1601:1719   */\n      pop\n      pop\n      jump\t// out\n        /* \"#utility.yul\":1725:1947   */\n    tag_30:\n        /* \"#utility.yul\":1818:1822   */\n      0x00\n        /* \"#utility.yul\":1856:1858   */\n      0x20\n        /* \"#utility.yul\":1845:1854   */\n      dup3\n        /* \"#utility.yul\":1841:1859   */\n      add\n        /* \"#utility.yul\":1833:1859   */\n      swap1\n      pop\n        /* \"#utility.yul\":1869:1940   */\n      tag_284\n        /* \"#utility.yul\":1937:1938   */\n      0x00\n        /* \"#utility.yul\":1926:1935   */\n      dup4\n        /* \"#utility.yul\":1922:1939   */\n      add\n        /* \"#utility.yul\":1913:1919   */\n      dup5\n        /* \"#utility.yul\":1869:1940   */\n      tag_203\n      jump\t// in\n    tag_284:\n        /* \"#utility.yul\":1725:1947   */\n      swap3\n      swap2\n      pop\n      pop\n      jump\t// out\n        /* \"#utility.yul\":1953:2075   */\n    tag_204:\n        /* \"#utility.yul\":2026:2050   */\n      tag_286\n        /* \"#utility.yul\":2044:2049   */\n      dup2\n        /* \"#utility.yul\":2026:2050   */\n      tag_202\n      jump\t// in\n    tag_286:\n        /* \"#utility.yul\":2019:2024   */\n      dup2\n        /* \"#utility.yul\":2016:2051   */\n      eq\n        /* \"#utility.yul\":2006:2069   */\n      tag_287\n      jumpi\n        /* \"#utility.yul\":2065:2066   */\n      0x00\n        /* \"#utility.yul\":2062:2063   */\n      dup1\n        /* \"#utility.yul\":2055:2067   */\n      revert\n        /* \"#utility.yul\":2006:2069   */\n    tag_287:\n        /* \"#utility.yul\":1953:2075   */\n      pop\n      jump\t// out\n        /* \"#utility.yul\":2081:2220   */\n    tag_205:\n        /* \"#utility.yul\":2127:2132   */\n      0x00\n        /* \"#utility.yul\":2165:2171   */\n      dup2\n        /* \"#utility.yul\":2152:2172   */\n      calldataload\n        /* \"#utility.yul\":2143:2172   */\n      swap1\n      pop\n        /* \"#utility.yul\":2181:2214   */\n      tag_289\n        /* \"#utility.yul\":2208:2213   */\n      dup2\n        /* \"#utility.yul\":2181:2214   */\n      tag_204\n      jump\t// in\n    tag_289:\n        /* \"#utility.yul\":2081:2220   */\n      swap3\n      swap2\n      pop\n      pop\n      jump\t// out\n        /* \"#utility.yul\":2226:2555   */\n    tag_33:\n        /* \"#utility.yul\":2285:2291   */\n      0x00\n        /* \"#utility.yul\":2334:2336   */\n      0x20\n        /* \"#utility.yul\":2322:2331   */\n      dup3\n        /* \"#utility.yul\":2313:2320   */\n      dup5\n        /* \"#utility.yul\":2309:2332   */\n      sub\n        /* \"#utility.yul\":2305:2337   */\n      slt\n        /* \"#utility.yul\":2302:2421   */\n      iszero\n      tag_291\n      jumpi\n        /* \"#utility.yul\":2340:2419   */\n      tag_292\n      tag_195\n      jump\t// in\n    tag_292:\n        /* \"#utility.yul\":2302:2421   */\n    tag_291:\n        /* \"#utility.yul\":2460:2461   */\n      0x00\n        /* \"#utility.yul\":2485:2538   */\n      tag_293\n        /* \"#utility.yul\":2530:2537   */\n      dup5\n        /* \"#utility.yul\":2521:2527   */\n      dup3\n        /* \"#utility.yul\":2510:2519   */\n      dup6\n        /* \"#utility.yul\":2506:2528   */\n      add\n        /* \"#utility.yul\":2485:2538   */\n      tag_205\n      jump\t// in\n    tag_293:\n        /* \"#utility.yul\":2475:2538   */\n      swap2\n      pop\n        /* \"#utility.yul\":2431:2548   */\n      pop\n        /* \"#utility.yul\":2226:2555   */\n      swap3\n      swap2\n      pop\n      pop\n      jump\t// out\n        /* \"#utility.yul\":2561:2687   */\n    tag_206:\n        /* \"#utility.yul\":2598:2605   */\n      0x00\n        /* \"#utility.yul\":2638:2680   */\n      0xffffffffffffffffffffffffffffffffffffffff\n        /* \"#utility.yul\":2631:2636   */\n      dup3\n        /* \"#utility.yul\":2627:2681   */\n      and\n        /* \"#utility.yul\":2616:2681   */\n      swap1\n      pop\n        /* \"#utility.yul\":2561:2687   */\n      swap2\n      swap1\n      pop\n      jump\t// out\n        /* \"#utility.yul\":2693:2789   */\n    tag_207:\n        /* \"#utility.yul\":2730:2737   */\n      0x00\n        /* \"#utility.yul\":2759:2783   */\n      tag_296\n        /* \"#utility.yul\":2777:2782   */\n      dup3\n        /* \"#utility.yul\":2759:2783   */\n      tag_206\n      jump\t// in\n    tag_296:\n        /* \"#utility.yul\":2748:2783   */\n      swap1\n      pop\n        /* \"#utility.yul\":2693:2789   */\n      swap2\n      swap1\n      pop\n      jump\t// out\n        /* \"#utility.yul\":2795:2917   */\n    tag_208:\n        /* \"#utility.yul\":2868:2892   */\n      tag_298\n        /* \"#utility.yul\":2886:2891   */\n      dup2\n        /* \"#utility.yul\":2868:2892   */\n      tag_207\n      jump\t// in\n    tag_298:\n        /* \"#utility.yul\":2861:2866   */\n      dup2\n        /* \"#utility.yul\":2858:2893   */\n      eq\n        /* \"#utility.yul\":2848:2911   */\n      tag_299\n      jumpi\n        /* \"#utility.yul\":2907:2908   */\n      0x00\n        /* \"#utility.yul\":2904:2905   */\n      dup1\n        /* \"#utility.yul\":2897:2909   */\n      revert\n        /* \"#utility.yul\":2848:2911   */\n    tag_299:\n        /* \"#utility.yul\":2795:2917   */\n      pop\n      jump\t// out\n        /* \"#utility.yul\":2923:3062   */\n    tag_209:\n        /* \"#utility.yul\":2969:2974   */\n      0x00\n        /* \"#utility.yul\":3007:3013   */\n      dup2\n        /* \"#utility.yul\":2994:3014   */\n      calldataload\n        /* \"#utility.yul\":2985:3014   */\n      swap1\n      pop\n        /* \"#utility.yul\":3023:3056   */\n      tag_301\n        /* \"#utility.yul\":3050:3055   */\n      dup2\n        /* \"#utility.yul\":3023:3056   */\n      tag_208\n      jump\t// in\n    tag_301:\n        /* \"#utility.yul\":2923:3062   */\n      swap3\n      swap2\n      pop\n      pop\n      jump\t// out\n        /* \"#utility.yul\":3068:3542   */\n    tag_38:\n        /* \"#utility.yul\":3136:3142   */\n      0x00\n        /* \"#utility.yul\":3144:3150   */\n      dup1\n        /* \"#utility.yul\":3193:3195   */\n      0x40\n        /* \"#utility.yul\":3181:3190   */\n      dup4\n        /* \"#utility.yul\":3172:3179   */\n      dup6\n        /* \"#utility.yul\":3168:3191   */\n      sub\n        /* \"#utility.yul\":3164:3196   */\n      slt\n        /* \"#utility.yul\":3161:3280   */\n      iszero\n      tag_303\n      jumpi\n        /* \"#utility.yul\":3199:3278   */\n      tag_304\n      tag_195\n      jump\t// in\n    tag_304:\n        /* \"#utility.yul\":3161:3280   */\n    tag_303:\n        /* \"#utility.yul\":3319:3320   */\n      0x00\n        /* \"#utility.yul\":3344:3397   */\n      tag_305\n        /* \"#utility.yul\":3389:3396   */\n      dup6\n        /* \"#utility.yul\":3380:3386   */\n      dup3\n        /* \"#utility.yul\":3369:3378   */\n      dup7\n        /* \"#utility.yul\":3365:3387   */\n      add\n        /* \"#utility.yul\":3344:3397   */\n      tag_205\n      jump\t// in\n    tag_305:\n        /* \"#utility.yul\":3334:3397   */\n      swap3\n      pop\n        /* \"#utility.yul\":3290:3407   */\n      pop\n        /* \"#utility.yul\":3446:3448   */\n      0x20\n        /* \"#utility.yul\":3472:3525   */\n      tag_306\n        /* \"#utility.yul\":3517:3524   */\n      dup6\n        /* \"#utility.yul\":3508:3514   */\n      dup3\n        /* \"#utility.yul\":3497:3506   */\n      dup7\n        /* \"#utility.yul\":3493:3515   */\n      add\n        /* \"#utility.yul\":3472:3525   */\n      tag_209\n      jump\t// in\n    tag_306:\n        /* \"#utility.yul\":3462:3525   */\n      swap2\n      pop\n        /* \"#utility.yul\":3417:3535   */\n      pop\n        /* \"#utility.yul\":3068:3542   */\n      swap3\n      pop\n      swap3\n      swap1\n      pop\n      jump\t// out\n        /* \"#utility.yul\":3548:3625   */\n    tag_210:\n        /* \"#utility.yul\":3585:3592   */\n      0x00\n        /* \"#utility.yul\":3614:3619   */\n      dup2\n        /* \"#utility.yul\":3603:3619   */\n      swap1\n      pop\n        /* \"#utility.yul\":3548:3625   */\n      swap2\n      swap1\n      pop\n      jump\t// out\n        /* \"#utility.yul\":3631:3753   */\n    tag_211:\n        /* \"#utility.yul\":3704:3728   */\n      tag_309\n        /* \"#utility.yul\":3722:3727   */\n      dup2\n        /* \"#utility.yul\":3704:3728   */\n      tag_210\n      jump\t// in\n    tag_309:\n        /* \"#utility.yul\":3697:3702   */\n      dup2\n        /* \"#utility.yul\":3694:3729   */\n      eq\n        /* \"#utility.yul\":3684:3747   */\n      tag_310\n      jumpi\n        /* \"#utility.yul\":3743:3744   */\n      0x00\n        /* \"#utility.yul\":3740:3741   */\n      dup1\n        /* \"#utility.yul\":3733:3745   */\n      revert\n        /* \"#utility.yul\":3684:3747   */\n    tag_310:\n        /* \"#utility.yul\":3631:3753   */\n      pop\n      jump\t// out\n        /* \"#utility.yul\":3759:3898   */\n    tag_212:\n        /* \"#utility.yul\":3805:3810   */\n      0x00\n        /* \"#utility.yul\":3843:3849   */\n      dup2\n        /* \"#utility.yul\":3830:3850   */\n      calldataload\n        /* \"#utility.yul\":3821:3850   */\n      swap1\n      pop\n        /* \"#utility.yul\":3859:3892   */\n      tag_312\n        /* \"#utility.yul\":3886:3891   */\n      dup2\n        /* \"#utility.yul\":3859:3892   */\n      tag_211\n      jump\t// in\n    tag_312:\n        /* \"#utility.yul\":3759:3898   */\n      swap3\n      swap2\n      pop\n      pop\n      jump\t// out\n        /* \"#utility.yul\":3904:4233   */\n    tag_45:\n        /* \"#utility.yul\":3963:3969   */\n      0x00\n        /* \"#utility.yul\":4012:4014   */\n      0x20\n        /* \"#utility.yul\":4000:4009   */\n      dup3\n        /* \"#utility.yul\":3991:3998   */\n      dup5\n        /* \"#utility.yul\":3987:4010   */\n      sub\n        /* \"#utility.yul\":3983:4015   */\n      slt\n        /* \"#utility.yul\":3980:4099   */\n      iszero\n      tag_314\n      jumpi\n        /* \"#utility.yul\":4018:4097   */\n      tag_315\n      tag_195\n      jump\t// in\n    tag_315:\n        /* \"#utility.yul\":3980:4099   */\n    tag_314:\n        /* \"#utility.yul\":4138:4139   */\n      0x00\n        /* \"#utility.yul\":4163:4216   */\n      tag_316\n        /* \"#utility.yul\":4208:4215   */\n      dup5\n        /* \"#utility.yul\":4199:4205   */\n      dup3\n        /* \"#utility.yul\":4188:4197   */\n      dup6\n        /* \"#utility.yul\":4184:4206   */\n      add\n        /* \"#utility.yul\":4163:4216   */\n      tag_212\n      jump\t// in\n    tag_316:\n        /* \"#utility.yul\":4153:4216   */\n      swap2\n      pop\n        /* \"#utility.yul\":4109:4226   */\n      pop\n        /* \"#utility.yul\":3904:4233   */\n      swap3\n      swap2\n      pop\n      pop\n      jump\t// out\n        /* \"#utility.yul\":4239:4380   */\n    tag_213:\n        /* \"#utility.yul\":4333:4339   */\n      0x00\n        /* \"#utility.yul\":4367:4372   */\n      dup2\n        /* \"#utility.yul\":4361:4373   */\n      mload\n        /* \"#utility.yul\":4351:4373   */\n      swap1\n      pop\n        /* \"#utility.yul\":4239:4380   */\n      swap2\n      swap1\n      pop\n      jump\t// out\n        /* \"#utility.yul\":4386:4597   */\n    tag_214:\n        /* \"#utility.yul\":4512:4523   */\n      0x00\n        /* \"#utility.yul\":4546:4552   */\n      dup3\n        /* \"#utility.yul\":4541:4544   */\n      dup3\n        /* \"#utility.yul\":4534:4553   */\n      mstore\n        /* \"#utility.yul\":4586:4590   */\n      0x20\n        /* \"#utility.yul\":4581:4584   */\n      dup3\n        /* \"#utility.yul\":4577:4591   */\n      add\n        /* \"#utility.yul\":4562:4591   */\n      swap1\n      pop\n        /* \"#utility.yul\":4386:4597   */\n      swap3\n      swap2\n      pop\n      pop\n      jump\t// out\n        /* \"#utility.yul\":4603:4762   */\n    tag_215:\n        /* \"#utility.yul\":4697:4701   */\n      0x00\n        /* \"#utility.yul\":4720:4723   */\n      dup2\n        /* \"#utility.yul\":4712:4723   */\n      swap1\n      pop\n        /* \"#utility.yul\":4750:4754   */\n      0x20\n        /* \"#utility.yul\":4745:4748   */\n      dup3\n        /* \"#utility.yul\":4741:4755   */\n      add\n        /* \"#utility.yul\":4733:4755   */\n      swap1\n      pop\n        /* \"#utility.yul\":4603:4762   */\n      swap2\n      swap1\n      pop\n      jump\t// out\n        /* \"#utility.yul\":4768:4867   */\n    tag_216:\n        /* \"#utility.yul\":4820:4826   */\n      0x00\n        /* \"#utility.yul\":4854:4859   */\n      dup2\n        /* \"#utility.yul\":4848:4860   */\n      mload\n        /* \"#utility.yul\":4838:4860   */\n      swap1\n      pop\n        /* \"#utility.yul\":4768:4867   */\n      swap2\n      swap1\n      pop\n      jump\t// out\n        /* \"#utility.yul\":4873:5032   */\n    tag_217:\n        /* \"#utility.yul\":4947:4958   */\n      0x00\n        /* \"#utility.yul\":4981:4987   */\n      dup3\n        /* \"#utility.yul\":4976:4979   */\n      dup3\n        /* \"#utility.yul\":4969:4988   */\n      mstore\n        /* \"#utility.yul\":5021:5025   */\n      0x20\n        /* \"#utility.yul\":5016:5019   */\n      dup3\n        /* \"#utility.yul\":5012:5026   */\n      add\n        /* \"#utility.yul\":4997:5026   */\n      swap1\n      pop\n        /* \"#utility.yul\":4873:5032   */\n      swap3\n      swap2\n      pop\n      pop\n      jump\t// out\n        /* \"#utility.yul\":5038:5177   */\n    tag_218:\n        /* \"#utility.yul\":5127:5133   */\n      dup3\n        /* \"#utility.yul\":5122:5125   */\n      dup2\n        /* \"#utility.yul\":5117:5120   */\n      dup4\n        /* \"#utility.yul\":5111:5134   */\n      mcopy\n        /* \"#utility.yul\":5168:5169   */\n      0x00\n        /* \"#utility.yul\":5159:5165   */\n      dup4\n        /* \"#utility.yul\":5154:5157   */\n      dup4\n        /* \"#utility.yul\":5150:5166   */\n      add\n        /* \"#utility.yul\":5143:5170   */\n      mstore\n        /* \"#utility.yul\":5038:5177   */\n      pop\n      pop\n      pop\n      jump\t// out\n        /* \"#utility.yul\":5183:5285   */\n    tag_219:\n        /* \"#utility.yul\":5224:5230   */\n      0x00\n        /* \"#utility.yul\":5275:5277   */\n      0x1f\n        /* \"#utility.yul\":5271:5278   */\n      not\n        /* \"#utility.yul\":5266:5268   */\n      0x1f\n        /* \"#utility.yul\":5259:5264   */\n      dup4\n        /* \"#utility.yul\":5255:5269   */\n      add\n        /* \"#utility.yul\":5251:5279   */\n      and\n        /* \"#utility.yul\":5241:5279   */\n      swap1\n      pop\n        /* \"#utility.yul\":5183:5285   */\n      swap2\n      swap1\n      pop\n      jump\t// out\n        /* \"#utility.yul\":5291:5648   */\n    tag_220:\n        /* \"#utility.yul\":5369:5372   */\n      0x00\n        /* \"#utility.yul\":5397:5436   */\n      tag_325\n        /* \"#utility.yul\":5430:5435   */\n      dup3\n        /* \"#utility.yul\":5397:5436   */\n      tag_216\n      jump\t// in\n    tag_325:\n        /* \"#utility.yul\":5452:5513   */\n      tag_326\n        /* \"#utility.yul\":5506:5512   */\n      dup2\n        /* \"#utility.yul\":5501:5504   */\n      dup6\n        /* \"#utility.yul\":5452:5513   */\n      tag_217\n      jump\t// in\n    tag_326:\n        /* \"#utility.yul\":5445:5513   */\n      swap4\n      pop\n        /* \"#utility.yul\":5522:5587   */\n      tag_327\n        /* \"#utility.yul\":5580:5586   */\n      dup2\n        /* \"#utility.yul\":5575:5578   */\n      dup6\n        /* \"#utility.yul\":5568:5572   */\n      0x20\n        /* \"#utility.yul\":5561:5566   */\n      dup7\n        /* \"#utility.yul\":5557:5573   */\n      add\n        /* \"#utility.yul\":5522:5587   */\n      tag_218\n      jump\t// in\n    tag_327:\n        /* \"#utility.yul\":5612:5641   */\n      tag_328\n        /* \"#utility.yul\":5634:5640   */\n      dup2\n        /* \"#utility.yul\":5612:5641   */\n      tag_219\n      jump\t// in\n    tag_328:\n        /* \"#utility.yul\":5607:5610   */\n      dup5\n        /* \"#utility.yul\":5603:5642   */\n      add\n        /* \"#utility.yul\":5596:5642   */\n      swap2\n      pop\n        /* \"#utility.yul\":5373:5648   */\n      pop\n        /* \"#utility.yul\":5291:5648   */\n      swap3\n      swap2\n      pop\n      pop\n      jump\t// out\n        /* \"#utility.yul\":5654:5762   */\n    tag_221:\n        /* \"#utility.yul\":5731:5755   */\n      tag_330\n        /* \"#utility.yul\":5749:5754   */\n      dup2\n        /* \"#utility.yul\":5731:5755   */\n      tag_210\n      jump\t// in\n    tag_330:\n        /* \"#utility.yul\":5726:5729   */\n      dup3\n        /* \"#utility.yul\":5719:5756   */\n      mstore\n        /* \"#utility.yul\":5654:5762   */\n      pop\n      pop\n      jump\t// out\n        /* \"#utility.yul\":5860:6721   */\n    tag_222:\n        /* \"#utility.yul\":5973:5976   */\n      0x00\n        /* \"#utility.yul\":6009:6013   */\n      0x60\n        /* \"#utility.yul\":6004:6007   */\n      dup4\n        /* \"#utility.yul\":6000:6014   */\n      add\n        /* \"#utility.yul\":6100:6104   */\n      0x00\n        /* \"#utility.yul\":6093:6098   */\n      dup4\n        /* \"#utility.yul\":6089:6105   */\n      add\n        /* \"#utility.yul\":6083:6106   */\n      mload\n        /* \"#utility.yul\":6153:6156   */\n      dup5\n        /* \"#utility.yul\":6147:6151   */\n      dup3\n        /* \"#utility.yul\":6143:6157   */\n      sub\n        /* \"#utility.yul\":6136:6140   */\n      0x00\n        /* \"#utility.yul\":6131:6134   */\n      dup7\n        /* \"#utility.yul\":6127:6141   */\n      add\n        /* \"#utility.yul\":6120:6158   */\n      mstore\n        /* \"#utility.yul\":6179:6252   */\n      tag_332\n        /* \"#utility.yul\":6247:6251   */\n      dup3\n        /* \"#utility.yul\":6233:6245   */\n      dup3\n        /* \"#utility.yul\":6179:6252   */\n      tag_220\n      jump\t// in\n    tag_332:\n        /* \"#utility.yul\":6171:6252   */\n      swap2\n      pop\n        /* \"#utility.yul\":6024:6263   */\n      pop\n        /* \"#utility.yul\":6352:6356   */\n      0x20\n        /* \"#utility.yul\":6345:6350   */\n      dup4\n        /* \"#utility.yul\":6341:6357   */\n      add\n        /* \"#utility.yul\":6335:6358   */\n      mload\n        /* \"#utility.yul\":6405:6408   */\n      dup5\n        /* \"#utility.yul\":6399:6403   */\n      dup3\n        /* \"#utility.yul\":6395:6409   */\n      sub\n        /* \"#utility.yul\":6388:6392   */\n      0x20\n        /* \"#utility.yul\":6383:6386   */\n      dup7\n        /* \"#utility.yul\":6379:6393   */\n      add\n        /* \"#utility.yul\":6372:6410   */\n      mstore\n        /* \"#utility.yul\":6431:6504   */\n      tag_333\n        /* \"#utility.yul\":6499:6503   */\n      dup3\n        /* \"#utility.yul\":6485:6497   */\n      dup3\n        /* \"#utility.yul\":6431:6504   */\n      tag_220\n      jump\t// in\n    tag_333:\n        /* \"#utility.yul\":6423:6504   */\n      swap2\n      pop\n        /* \"#utility.yul\":6273:6515   */\n      pop\n        /* \"#utility.yul\":6602:6606   */\n      0x40\n        /* \"#utility.yul\":6595:6600   */\n      dup4\n        /* \"#utility.yul\":6591:6607   */\n      add\n        /* \"#utility.yul\":6585:6608   */\n      mload\n        /* \"#utility.yul\":6621:6684   */\n      tag_334\n        /* \"#utility.yul\":6678:6682   */\n      0x40\n        /* \"#utility.yul\":6673:6676   */\n      dup7\n        /* \"#utility.yul\":6669:6683   */\n      add\n        /* \"#utility.yul\":6655:6667   */\n      dup3\n        /* \"#utility.yul\":6621:6684   */\n      tag_221\n      jump\t// in\n    tag_334:\n        /* \"#utility.yul\":6525:6694   */\n      pop\n        /* \"#utility.yul\":6711:6715   */\n      dup1\n        /* \"#utility.yul\":6704:6715   */\n      swap2\n      pop\n        /* \"#utility.yul\":5978:6721   */\n      pop\n        /* \"#utility.yul\":5860:6721   */\n      swap3\n      swap2\n      pop\n      pop\n      jump\t// out\n        /* \"#utility.yul\":6727:6991   */\n    tag_223:\n        /* \"#utility.yul\":6850:6860   */\n      0x00\n        /* \"#utility.yul\":6885:6985   */\n      tag_336\n        /* \"#utility.yul\":6981:6984   */\n      dup4\n        /* \"#utility.yul\":6973:6979   */\n      dup4\n        /* \"#utility.yul\":6885:6985   */\n      tag_222\n      jump\t// in\n    tag_336:\n        /* \"#utility.yul\":6871:6985   */\n      swap1\n      pop\n        /* \"#utility.yul\":6727:6991   */\n      swap3\n      swap2\n      pop\n      pop\n      jump\t// out\n        /* \"#utility.yul\":6997:7137   */\n    tag_224:\n        /* \"#utility.yul\":7094:7098   */\n      0x00\n        /* \"#utility.yul\":7126:7130   */\n      0x20\n        /* \"#utility.yul\":7121:7124   */\n      dup3\n        /* \"#utility.yul\":7117:7131   */\n      add\n        /* \"#utility.yul\":7109:7131   */\n      swap1\n      pop\n        /* \"#utility.yul\":6997:7137   */\n      swap2\n      swap1\n      pop\n      jump\t// out\n        /* \"#utility.yul\":7239:8366   */\n    tag_225:\n        /* \"#utility.yul\":7412:7415   */\n      0x00\n        /* \"#utility.yul\":7441:7522   */\n      tag_339\n        /* \"#utility.yul\":7516:7521   */\n      dup3\n        /* \"#utility.yul\":7441:7522   */\n      tag_213\n      jump\t// in\n    tag_339:\n        /* \"#utility.yul\":7538:7651   */\n      tag_340\n        /* \"#utility.yul\":7644:7650   */\n      dup2\n        /* \"#utility.yul\":7639:7642   */\n      dup6\n        /* \"#utility.yul\":7538:7651   */\n      tag_214\n      jump\t// in\n    tag_340:\n        /* \"#utility.yul\":7531:7651   */\n      swap4\n      pop\n        /* \"#utility.yul\":7677:7680   */\n      dup4\n        /* \"#utility.yul\":7722:7726   */\n      0x20\n        /* \"#utility.yul\":7714:7720   */\n      dup3\n        /* \"#utility.yul\":7710:7727   */\n      mul\n        /* \"#utility.yul\":7705:7708   */\n      dup6\n        /* \"#utility.yul\":7701:7728   */\n      add\n        /* \"#utility.yul\":7752:7835   */\n      tag_341\n        /* \"#utility.yul\":7829:7834   */\n      dup6\n        /* \"#utility.yul\":7752:7835   */\n      tag_215\n      jump\t// in\n    tag_341:\n        /* \"#utility.yul\":7858:7865   */\n      dup1\n        /* \"#utility.yul\":7889:7890   */\n      0x00\n        /* \"#utility.yul\":7874:8321   */\n    tag_342:\n        /* \"#utility.yul\":7899:7905   */\n      dup6\n        /* \"#utility.yul\":7896:7897   */\n      dup2\n        /* \"#utility.yul\":7893:7906   */\n      lt\n        /* \"#utility.yul\":7874:8321   */\n      iszero\n      tag_344\n      jumpi\n        /* \"#utility.yul\":7970:7979   */\n      dup5\n        /* \"#utility.yul\":7964:7968   */\n      dup5\n        /* \"#utility.yul\":7960:7980   */\n      sub\n        /* \"#utility.yul\":7955:7958   */\n      dup10\n        /* \"#utility.yul\":7948:7981   */\n      mstore\n        /* \"#utility.yul\":8021:8027   */\n      dup2\n        /* \"#utility.yul\":8015:8028   */\n      mload\n        /* \"#utility.yul\":8049:8167   */\n      tag_345\n        /* \"#utility.yul\":8162:8166   */\n      dup6\n        /* \"#utility.yul\":8147:8160   */\n      dup3\n        /* \"#utility.yul\":8049:8167   */\n      tag_223\n      jump\t// in\n    tag_345:\n        /* \"#utility.yul\":8041:8167   */\n      swap5\n      pop\n        /* \"#utility.yul\":8190:8277   */\n      tag_346\n        /* \"#utility.yul\":8270:8276   */\n      dup4\n        /* \"#utility.yul\":8190:8277   */\n      tag_224\n      jump\t// in\n    tag_346:\n        /* \"#utility.yul\":8180:8277   */\n      swap3\n      pop\n        /* \"#utility.yul\":8306:8310   */\n      0x20\n        /* \"#utility.yul\":8301:8304   */\n      dup11\n        /* \"#utility.yul\":8297:8311   */\n      add\n        /* \"#utility.yul\":8290:8311   */\n      swap10\n      pop\n        /* \"#utility.yul\":7934:8321   */\n      pop\n        /* \"#utility.yul\":7921:7922   */\n      0x01\n        /* \"#utility.yul\":7918:7919   */\n      dup2\n        /* \"#utility.yul\":7914:7923   */\n      add\n        /* \"#utility.yul\":7909:7923   */\n      swap1\n      pop\n        /* \"#utility.yul\":7874:8321   */\n      jump(tag_342)\n    tag_344:\n        /* \"#utility.yul\":7878:7892   */\n      pop\n        /* \"#utility.yul\":8337:8341   */\n      dup3\n        /* \"#utility.yul\":8330:8341   */\n      swap8\n      pop\n        /* \"#utility.yul\":8357:8360   */\n      dup8\n        /* \"#utility.yul\":8350:8360   */\n      swap6\n      pop\n        /* \"#utility.yul\":7417:8366   */\n      pop\n      pop\n      pop\n      pop\n      pop\n        /* \"#utility.yul\":7239:8366   */\n      swap3\n      swap2\n      pop\n      pop\n      jump\t// out\n        /* \"#utility.yul\":8372:8853   */\n    tag_48:\n        /* \"#utility.yul\":8569:8573   */\n      0x00\n        /* \"#utility.yul\":8607:8609   */\n      0x20\n        /* \"#utility.yul\":8596:8605   */\n      dup3\n        /* \"#utility.yul\":8592:8610   */\n      add\n        /* \"#utility.yul\":8584:8610   */\n      swap1\n      pop\n        /* \"#utility.yul\":8656:8665   */\n      dup2\n        /* \"#utility.yul\":8650:8654   */\n      dup2\n        /* \"#utility.yul\":8646:8666   */\n      sub\n        /* \"#utility.yul\":8642:8643   */\n      0x00\n        /* \"#utility.yul\":8631:8640   */\n      dup4\n        /* \"#utility.yul\":8627:8644   */\n      add\n        /* \"#utility.yul\":8620:8667   */\n      mstore\n        /* \"#utility.yul\":8684:8846   */\n      tag_348\n        /* \"#utility.yul\":8841:8845   */\n      dup2\n        /* \"#utility.yul\":8832:8838   */\n      dup5\n        /* \"#utility.yul\":8684:8846   */\n      tag_225\n      jump\t// in\n    tag_348:\n        /* \"#utility.yul\":8676:8846   */\n      swap1\n      pop\n        /* \"#utility.yul\":8372:8853   */\n      swap3\n      swap2\n      pop\n      pop\n      jump\t// out\n        /* \"#utility.yul\":8859:8976   */\n    tag_226:\n        /* \"#utility.yul\":8968:8969   */\n      0x00\n        /* \"#utility.yul\":8965:8966   */\n      dup1\n        /* \"#utility.yul\":8958:8970   */\n      revert\n        /* \"#utility.yul\":8982:9099   */\n    tag_227:\n        /* \"#utility.yul\":9091:9092   */\n      0x00\n        /* \"#utility.yul\":9088:9089   */\n      dup1\n        /* \"#utility.yul\":9081:9093   */\n      revert\n        /* \"#utility.yul\":9105:9285   */\n    tag_228:\n        /* \"#utility.yul\":9153:9230   */\n      0x4e487b7100000000000000000000000000000000000000000000000000000000\n        /* \"#utility.yul\":9150:9151   */\n      0x00\n        /* \"#utility.yul\":9143:9231   */\n      mstore\n        /* \"#utility.yul\":9250:9254   */\n      0x41\n        /* \"#utility.yul\":9247:9248   */\n      0x04\n        /* \"#utility.yul\":9240:9255   */\n      mstore\n        /* \"#utility.yul\":9274:9278   */\n      0x24\n        /* \"#utility.yul\":9271:9272   */\n      0x00\n        /* \"#utility.yul\":9264:9279   */\n      revert\n        /* \"#utility.yul\":9291:9572   */\n    tag_229:\n        /* \"#utility.yul\":9374:9401   */\n      tag_353\n        /* \"#utility.yul\":9396:9400   */\n      dup3\n        /* \"#utility.yul\":9374:9401   */\n      tag_219\n      jump\t// in\n    tag_353:\n        /* \"#utility.yul\":9366:9372   */\n      dup2\n        /* \"#utility.yul\":9362:9402   */\n      add\n        /* \"#utility.yul\":9504:9510   */\n      dup2\n        /* \"#utility.yul\":9492:9502   */\n      dup2\n        /* \"#utility.yul\":9489:9511   */\n      lt\n        /* \"#utility.yul\":9468:9486   */\n      0xffffffffffffffff\n        /* \"#utility.yul\":9456:9466   */\n      dup3\n        /* \"#utility.yul\":9453:9487   */\n      gt\n        /* \"#utility.yul\":9450:9512   */\n      or\n        /* \"#utility.yul\":9447:9535   */\n      iszero\n      tag_354\n      jumpi\n        /* \"#utility.yul\":9515:9533   */\n      tag_355\n      tag_228\n      jump\t// in\n    tag_355:\n        /* \"#utility.yul\":9447:9535   */\n    tag_354:\n        /* \"#utility.yul\":9555:9565   */\n      dup1\n        /* \"#utility.yul\":9551:9553   */\n      0x40\n        /* \"#utility.yul\":9544:9566   */\n      mstore\n        /* \"#utility.yul\":9334:9572   */\n      pop\n        /* \"#utility.yul\":9291:9572   */\n      pop\n      pop\n      jump\t// out\n        /* \"#utility.yul\":9578:9707   */\n    tag_230:\n        /* \"#utility.yul\":9612:9618   */\n      0x00\n        /* \"#utility.yul\":9639:9659   */\n      tag_357\n      tag_194\n      jump\t// in\n    tag_357:\n        /* \"#utility.yul\":9629:9659   */\n      swap1\n      pop\n        /* \"#utility.yul\":9668:9701   */\n      tag_358\n        /* \"#utility.yul\":9696:9700   */\n      dup3\n        /* \"#utility.yul\":9688:9694   */\n      dup3\n        /* \"#utility.yul\":9668:9701   */\n      tag_229\n      jump\t// in\n    tag_358:\n        /* \"#utility.yul\":9578:9707   */\n      swap2\n      swap1\n      pop\n      jump\t// out\n        /* \"#utility.yul\":9713:10021   */\n    tag_231:\n        /* \"#utility.yul\":9775:9779   */\n      0x00\n        /* \"#utility.yul\":9865:9883   */\n      0xffffffffffffffff\n        /* \"#utility.yul\":9857:9863   */\n      dup3\n        /* \"#utility.yul\":9854:9884   */\n      gt\n        /* \"#utility.yul\":9851:9907   */\n      iszero\n      tag_360\n      jumpi\n        /* \"#utility.yul\":9887:9905   */\n      tag_361\n      tag_228\n      jump\t// in\n    tag_361:\n        /* \"#utility.yul\":9851:9907   */\n    tag_360:\n        /* \"#utility.yul\":9925:9954   */\n      tag_362\n        /* \"#utility.yul\":9947:9953   */\n      dup3\n        /* \"#utility.yul\":9925:9954   */\n      tag_219\n      jump\t// in\n    tag_362:\n        /* \"#utility.yul\":9917:9954   */\n      swap1\n      pop\n        /* \"#utility.yul\":10009:10013   */\n      0x20\n        /* \"#utility.yul\":10003:10007   */\n      dup2\n        /* \"#utility.yul\":9999:10014   */\n      add\n        /* \"#utility.yul\":9991:10014   */\n      swap1\n      pop\n        /* \"#utility.yul\":9713:10021   */\n      swap2\n      swap1\n      pop\n      jump\t// out\n        /* \"#utility.yul\":10027:10175   */\n    tag_232:\n        /* \"#utility.yul\":10125:10131   */\n      dup3\n        /* \"#utility.yul\":10120:10123   */\n      dup2\n        /* \"#utility.yul\":10115:10118   */\n      dup4\n        /* \"#utility.yul\":10102:10132   */\n      calldatacopy\n        /* \"#utility.yul\":10166:10167   */\n      0x00\n        /* \"#utility.yul\":10157:10163   */\n      dup4\n        /* \"#utility.yul\":10152:10155   */\n      dup4\n        /* \"#utility.yul\":10148:10164   */\n      add\n        /* \"#utility.yul\":10141:10168   */\n      mstore\n        /* \"#utility.yul\":10027:10175   */\n      pop\n      pop\n      pop\n      jump\t// out\n        /* \"#utility.yul\":10181:10606   */\n    tag_233:\n        /* \"#utility.yul\":10259:10264   */\n      0x00\n        /* \"#utility.yul\":10284:10350   */\n      tag_365\n        /* \"#utility.yul\":10300:10349   */\n      tag_366\n        /* \"#utility.yul\":10342:10348   */\n      dup5\n        /* \"#utility.yul\":10300:10349   */\n      tag_231\n      jump\t// in\n    tag_366:\n        /* \"#utility.yul\":10284:10350   */\n      tag_230\n      jump\t// in\n    tag_365:\n        /* \"#utility.yul\":10275:10350   */\n      swap1\n      pop\n        /* \"#utility.yul\":10373:10379   */\n      dup3\n        /* \"#utility.yul\":10366:10371   */\n      dup2\n        /* \"#utility.yul\":10359:10380   */\n      mstore\n        /* \"#utility.yul\":10411:10415   */\n      0x20\n        /* \"#utility.yul\":10404:10409   */\n      dup2\n        /* \"#utility.yul\":10400:10416   */\n      add\n        /* \"#utility.yul\":10449:10452   */\n      dup5\n        /* \"#utility.yul\":10440:10446   */\n      dup5\n        /* \"#utility.yul\":10435:10438   */\n      dup5\n        /* \"#utility.yul\":10431:10447   */\n      add\n        /* \"#utility.yul\":10428:10453   */\n      gt\n        /* \"#utility.yul\":10425:10537   */\n      iszero\n      tag_367\n      jumpi\n        /* \"#utility.yul\":10456:10535   */\n      tag_368\n      tag_227\n      jump\t// in\n    tag_368:\n        /* \"#utility.yul\":10425:10537   */\n    tag_367:\n        /* \"#utility.yul\":10546:10600   */\n      tag_369\n        /* \"#utility.yul\":10593:10599   */\n      dup5\n        /* \"#utility.yul\":10588:10591   */\n      dup3\n        /* \"#utility.yul\":10583:10586   */\n      dup6\n        /* \"#utility.yul\":10546:10600   */\n      tag_232\n      jump\t// in\n    tag_369:\n        /* \"#utility.yul\":10265:10606   */\n      pop\n        /* \"#utility.yul\":10181:10606   */\n      swap4\n      swap3\n      pop\n      pop\n      pop\n      jump\t// out\n        /* \"#utility.yul\":10626:10966   */\n    tag_234:\n        /* \"#utility.yul\":10682:10687   */\n      0x00\n        /* \"#utility.yul\":10731:10734   */\n      dup3\n        /* \"#utility.yul\":10724:10728   */\n      0x1f\n        /* \"#utility.yul\":10716:10722   */\n      dup4\n        /* \"#utility.yul\":10712:10729   */\n      add\n        /* \"#utility.yul\":10708:10735   */\n      slt\n        /* \"#utility.yul\":10698:10820   */\n      tag_371\n      jumpi\n        /* \"#utility.yul\":10739:10818   */\n      tag_372\n      tag_226\n      jump\t// in\n    tag_372:\n        /* \"#utility.yul\":10698:10820   */\n    tag_371:\n        /* \"#utility.yul\":10856:10862   */\n      dup2\n        /* \"#utility.yul\":10843:10863   */\n      calldataload\n        /* \"#utility.yul\":10881:10960   */\n      tag_373\n        /* \"#utility.yul\":10956:10959   */\n      dup5\n        /* \"#utility.yul\":10948:10954   */\n      dup3\n        /* \"#utility.yul\":10941:10945   */\n      0x20\n        /* \"#utility.yul\":10933:10939   */\n      dup7\n        /* \"#utility.yul\":10929:10946   */\n      add\n        /* \"#utility.yul\":10881:10960   */\n      tag_233\n      jump\t// in\n    tag_373:\n        /* \"#utility.yul\":10872:10960   */\n      swap2\n      pop\n        /* \"#utility.yul\":10688:10966   */\n      pop\n        /* \"#utility.yul\":10626:10966   */\n      swap3\n      swap2\n      pop\n      pop\n      jump\t// out\n        /* \"#utility.yul\":10972:11951   */\n    tag_58:\n        /* \"#utility.yul\":11069:11075   */\n      0x00\n        /* \"#utility.yul\":11077:11083   */\n      dup1\n        /* \"#utility.yul\":11085:11091   */\n      0x00\n        /* \"#utility.yul\":11134:11136   */\n      0x60\n        /* \"#utility.yul\":11122:11131   */\n      dup5\n        /* \"#utility.yul\":11113:11120   */\n      dup7\n        /* \"#utility.yul\":11109:11132   */\n      sub\n        /* \"#utility.yul\":11105:11137   */\n      slt\n        /* \"#utility.yul\":11102:11221   */\n      iszero\n      tag_375\n      jumpi\n        /* \"#utility.yul\":11140:11219   */\n      tag_376\n      tag_195\n      jump\t// in\n    tag_376:\n        /* \"#utility.yul\":11102:11221   */\n    tag_375:\n        /* \"#utility.yul\":11260:11261   */\n      0x00\n        /* \"#utility.yul\":11285:11338   */\n      tag_377\n        /* \"#utility.yul\":11330:11337   */\n      dup7\n        /* \"#utility.yul\":11321:11327   */\n      dup3\n        /* \"#utility.yul\":11310:11319   */\n      dup8\n        /* \"#utility.yul\":11306:11328   */\n      add\n        /* \"#utility.yul\":11285:11338   */\n      tag_212\n      jump\t// in\n    tag_377:\n        /* \"#utility.yul\":11275:11338   */\n      swap4\n      pop\n        /* \"#utility.yul\":11231:11348   */\n      pop\n        /* \"#utility.yul\":11415:11417   */\n      0x20\n        /* \"#utility.yul\":11404:11413   */\n      dup5\n        /* \"#utility.yul\":11400:11418   */\n      add\n        /* \"#utility.yul\":11387:11419   */\n      calldataload\n        /* \"#utility.yul\":11446:11464   */\n      0xffffffffffffffff\n        /* \"#utility.yul\":11438:11444   */\n      dup2\n        /* \"#utility.yul\":11435:11465   */\n      gt\n        /* \"#utility.yul\":11432:11549   */\n      iszero\n      tag_378\n      jumpi\n        /* \"#utility.yul\":11468:11547   */\n      tag_379\n      tag_196\n      jump\t// in\n    tag_379:\n        /* \"#utility.yul\":11432:11549   */\n    tag_378:\n        /* \"#utility.yul\":11573:11636   */\n      tag_380\n        /* \"#utility.yul\":11628:11635   */\n      dup7\n        /* \"#utility.yul\":11619:11625   */\n      dup3\n        /* \"#utility.yul\":11608:11617   */\n      dup8\n        /* \"#utility.yul\":11604:11626   */\n      add\n        /* \"#utility.yul\":11573:11636   */\n      tag_234\n      jump\t// in\n    tag_380:\n        /* \"#utility.yul\":11563:11636   */\n      swap3\n      pop\n        /* \"#utility.yul\":11358:11646   */\n      pop\n        /* \"#utility.yul\":11713:11715   */\n      0x40\n        /* \"#utility.yul\":11702:11711   */\n      dup5\n        /* \"#utility.yul\":11698:11716   */\n      add\n        /* \"#utility.yul\":11685:11717   */\n      calldataload\n        /* \"#utility.yul\":11744:11762   */\n      0xffffffffffffffff\n        /* \"#utility.yul\":11736:11742   */\n      dup2\n        /* \"#utility.yul\":11733:11763   */\n      gt\n        /* \"#utility.yul\":11730:11847   */\n      iszero\n      tag_381\n      jumpi\n        /* \"#utility.yul\":11766:11845   */\n      tag_382\n      tag_196\n      jump\t// in\n    tag_382:\n        /* \"#utility.yul\":11730:11847   */\n    tag_381:\n        /* \"#utility.yul\":11871:11934   */\n      tag_383\n        /* \"#utility.yul\":11926:11933   */\n      dup7\n        /* \"#utility.yul\":11917:11923   */\n      dup3\n        /* \"#utility.yul\":11906:11915   */\n      dup8\n        /* \"#utility.yul\":11902:11924   */\n      add\n        /* \"#utility.yul\":11871:11934   */\n      tag_234\n      jump\t// in\n    tag_383:\n        /* \"#utility.yul\":11861:11934   */\n      swap2\n      pop\n        /* \"#utility.yul\":11656:11944   */\n      pop\n        /* \"#utility.yul\":10972:11951   */\n      swap3\n      pop\n      swap3\n      pop\n      swap3\n      jump\t// out\n        /* \"#utility.yul\":11957:12073   */\n    tag_235:\n        /* \"#utility.yul\":12027:12048   */\n      tag_385\n        /* \"#utility.yul\":12042:12047   */\n      dup2\n        /* \"#utility.yul\":12027:12048   */\n      tag_200\n      jump\t// in\n    tag_385:\n        /* \"#utility.yul\":12020:12025   */\n      dup2\n        /* \"#utility.yul\":12017:12049   */\n      eq\n        /* \"#utility.yul\":12007:12067   */\n      tag_386\n      jumpi\n        /* \"#utility.yul\":12063:12064   */\n      0x00\n        /* \"#utility.yul\":12060:12061   */\n      dup1\n        /* \"#utility.yul\":12053:12065   */\n      revert\n        /* \"#utility.yul\":12007:12067   */\n    tag_386:\n        /* \"#utility.yul\":11957:12073   */\n      pop\n      jump\t// out\n        /* \"#utility.yul\":12079:12212   */\n    tag_236:\n        /* \"#utility.yul\":12122:12127   */\n      0x00\n        /* \"#utility.yul\":12160:12166   */\n      dup2\n        /* \"#utility.yul\":12147:12167   */\n      calldataload\n        /* \"#utility.yul\":12138:12167   */\n      swap1\n      pop\n        /* \"#utility.yul\":12176:12206   */\n      tag_388\n        /* \"#utility.yul\":12200:12205   */\n      dup2\n        /* \"#utility.yul\":12176:12206   */\n      tag_235\n      jump\t// in\n    tag_388:\n        /* \"#utility.yul\":12079:12212   */\n      swap3\n      swap2\n      pop\n      pop\n      jump\t// out\n        /* \"#utility.yul\":12218:13331   */\n    tag_62:\n        /* \"#utility.yul\":12318:12324   */\n      0x00\n        /* \"#utility.yul\":12326:12332   */\n      dup1\n        /* \"#utility.yul\":12334:12340   */\n      0x00\n        /* \"#utility.yul\":12342:12348   */\n      dup1\n        /* \"#utility.yul\":12391:12394   */\n      0x80\n        /* \"#utility.yul\":12379:12388   */\n      dup6\n        /* \"#utility.yul\":12370:12377   */\n      dup8\n        /* \"#utility.yul\":12366:12389   */\n      sub\n        /* \"#utility.yul\":12362:12395   */\n      slt\n        /* \"#utility.yul\":12359:12479   */\n      iszero\n      tag_390\n      jumpi\n        /* \"#utility.yul\":12398:12477   */\n      tag_391\n      tag_195\n      jump\t// in\n    tag_391:\n        /* \"#utility.yul\":12359:12479   */\n    tag_390:\n        /* \"#utility.yul\":12546:12547   */\n      0x00\n        /* \"#utility.yul\":12535:12544   */\n      dup6\n        /* \"#utility.yul\":12531:12548   */\n      add\n        /* \"#utility.yul\":12518:12549   */\n      calldataload\n        /* \"#utility.yul\":12576:12594   */\n      0xffffffffffffffff\n        /* \"#utility.yul\":12568:12574   */\n      dup2\n        /* \"#utility.yul\":12565:12595   */\n      gt\n        /* \"#utility.yul\":12562:12679   */\n      iszero\n      tag_392\n      jumpi\n        /* \"#utility.yul\":12598:12677   */\n      tag_393\n      tag_196\n      jump\t// in\n    tag_393:\n        /* \"#utility.yul\":12562:12679   */\n    tag_392:\n        /* \"#utility.yul\":12703:12766   */\n      tag_394\n        /* \"#utility.yul\":12758:12765   */\n      dup8\n        /* \"#utility.yul\":12749:12755   */\n      dup3\n        /* \"#utility.yul\":12738:12747   */\n      dup9\n        /* \"#utility.yul\":12734:12756   */\n      add\n        /* \"#utility.yul\":12703:12766   */\n      tag_234\n      jump\t// in\n    tag_394:\n        /* \"#utility.yul\":12693:12766   */\n      swap5\n      pop\n        /* \"#utility.yul\":12489:12776   */\n      pop\n        /* \"#utility.yul\":12843:12845   */\n      0x20\n        /* \"#utility.yul\":12832:12841   */\n      dup6\n        /* \"#utility.yul\":12828:12846   */\n      add\n        /* \"#utility.yul\":12815:12847   */\n      calldataload\n        /* \"#utility.yul\":12874:12892   */\n      0xffffffffffffffff\n        /* \"#utility.yul\":12866:12872   */\n      dup2\n        /* \"#utility.yul\":12863:12893   */\n      gt\n        /* \"#utility.yul\":12860:12977   */\n      iszero\n      tag_395\n      jumpi\n        /* \"#utility.yul\":12896:12975   */\n      tag_396\n      tag_196\n      jump\t// in\n    tag_396:\n        /* \"#utility.yul\":12860:12977   */\n    tag_395:\n        /* \"#utility.yul\":13001:13064   */\n      tag_397\n        /* \"#utility.yul\":13056:13063   */\n      dup8\n        /* \"#utility.yul\":13047:13053   */\n      dup3\n        /* \"#utility.yul\":13036:13045   */\n      dup9\n        /* \"#utility.yul\":13032:13054   */\n      add\n        /* \"#utility.yul\":13001:13064   */\n      tag_234\n      jump\t// in\n    tag_397:\n        /* \"#utility.yul\":12991:13064   */\n      swap4\n      pop\n        /* \"#utility.yul\":12786:13074   */\n      pop\n        /* \"#utility.yul\":13113:13115   */\n      0x40\n        /* \"#utility.yul\":13139:13189   */\n      tag_398\n        /* \"#utility.yul\":13181:13188   */\n      dup8\n        /* \"#utility.yul\":13172:13178   */\n      dup3\n        /* \"#utility.yul\":13161:13170   */\n      dup9\n        /* \"#utility.yul\":13157:13179   */\n      add\n        /* \"#utility.yul\":13139:13189   */\n      tag_236\n      jump\t// in\n    tag_398:\n        /* \"#utility.yul\":13129:13189   */\n      swap3\n      pop\n        /* \"#utility.yul\":13084:13199   */\n      pop\n        /* \"#utility.yul\":13238:13240   */\n      0x60\n        /* \"#utility.yul\":13264:13314   */\n      tag_399\n        /* \"#utility.yul\":13306:13313   */\n      dup8\n        /* \"#utility.yul\":13297:13303   */\n      dup3\n        /* \"#utility.yul\":13286:13295   */\n      dup9\n        /* \"#utility.yul\":13282:13304   */\n      add\n        /* \"#utility.yul\":13264:13314   */\n      tag_236\n      jump\t// in\n    tag_399:\n        /* \"#utility.yul\":13254:13314   */\n      swap2\n      pop\n        /* \"#utility.yul\":13209:13324   */\n      pop\n        /* \"#utility.yul\":12218:13331   */\n      swap3\n      swap6\n      swap2\n      swap5\n      pop\n      swap3\n      pop\n      jump\t// out\n        /* \"#utility.yul\":13337:13506   */\n    tag_237:\n        /* \"#utility.yul\":13421:13432   */\n      0x00\n        /* \"#utility.yul\":13455:13461   */\n      dup3\n        /* \"#utility.yul\":13450:13453   */\n      dup3\n        /* \"#utility.yul\":13443:13462   */\n      mstore\n        /* \"#utility.yul\":13495:13499   */\n      0x20\n        /* \"#utility.yul\":13490:13493   */\n      dup3\n        /* \"#utility.yul\":13486:13500   */\n      add\n        /* \"#utility.yul\":13471:13500   */\n      swap1\n      pop\n        /* \"#utility.yul\":13337:13506   */\n      swap3\n      swap2\n      pop\n      pop\n      jump\t// out\n        /* \"#utility.yul\":13512:13889   */\n    tag_238:\n        /* \"#utility.yul\":13600:13603   */\n      0x00\n        /* \"#utility.yul\":13628:13667   */\n      tag_402\n        /* \"#utility.yul\":13661:13666   */\n      dup3\n        /* \"#utility.yul\":13628:13667   */\n      tag_216\n      jump\t// in\n    tag_402:\n        /* \"#utility.yul\":13683:13754   */\n      tag_403\n        /* \"#utility.yul\":13747:13753   */\n      dup2\n        /* \"#utility.yul\":13742:13745   */\n      dup6\n        /* \"#utility.yul\":13683:13754   */\n      tag_237\n      jump\t// in\n    tag_403:\n        /* \"#utility.yul\":13676:13754   */\n      swap4\n      pop\n        /* \"#utility.yul\":13763:13828   */\n      tag_404\n        /* \"#utility.yul\":13821:13827   */\n      dup2\n        /* \"#utility.yul\":13816:13819   */\n      dup6\n        /* \"#utility.yul\":13809:13813   */\n      0x20\n        /* \"#utility.yul\":13802:13807   */\n      dup7\n        /* \"#utility.yul\":13798:13814   */\n      add\n        /* \"#utility.yul\":13763:13828   */\n      tag_218\n      jump\t// in\n    tag_404:\n        /* \"#utility.yul\":13853:13882   */\n      tag_405\n        /* \"#utility.yul\":13875:13881   */\n      dup2\n        /* \"#utility.yul\":13853:13882   */\n      tag_219\n      jump\t// in\n    tag_405:\n        /* \"#utility.yul\":13848:13851   */\n      dup5\n        /* \"#utility.yul\":13844:13883   */\n      add\n        /* \"#utility.yul\":13837:13883   */\n      swap2\n      pop\n        /* \"#utility.yul\":13604:13889   */\n      pop\n        /* \"#utility.yul\":13512:13889   */\n      swap3\n      swap2\n      pop\n      pop\n      jump\t// out\n        /* \"#utility.yul\":13895:14013   */\n    tag_239:\n        /* \"#utility.yul\":13982:14006   */\n      tag_407\n        /* \"#utility.yul\":14000:14005   */\n      dup2\n        /* \"#utility.yul\":13982:14006   */\n      tag_210\n      jump\t// in\n    tag_407:\n        /* \"#utility.yul\":13977:13980   */\n      dup3\n        /* \"#utility.yul\":13970:14007   */\n      mstore\n        /* \"#utility.yul\":13895:14013   */\n      pop\n      pop\n      jump\t// out\n        /* \"#utility.yul\":14019:14137   */\n    tag_240:\n        /* \"#utility.yul\":14106:14130   */\n      tag_409\n        /* \"#utility.yul\":14124:14129   */\n      dup2\n        /* \"#utility.yul\":14106:14130   */\n      tag_207\n      jump\t// in\n    tag_409:\n        /* \"#utility.yul\":14101:14104   */\n      dup3\n        /* \"#utility.yul\":14094:14131   */\n      mstore\n        /* \"#utility.yul\":14019:14137   */\n      pop\n      pop\n      jump\t// out\n        /* \"#utility.yul\":14143:15076   */\n    tag_68:\n        /* \"#utility.yul\":14404:14408   */\n      0x00\n        /* \"#utility.yul\":14442:14445   */\n      0xc0\n        /* \"#utility.yul\":14431:14440   */\n      dup3\n        /* \"#utility.yul\":14427:14446   */\n      add\n        /* \"#utility.yul\":14419:14446   */\n      swap1\n      pop\n        /* \"#utility.yul\":14492:14501   */\n      dup2\n        /* \"#utility.yul\":14486:14490   */\n      dup2\n        /* \"#utility.yul\":14482:14502   */\n      sub\n        /* \"#utility.yul\":14478:14479   */\n      0x00\n        /* \"#utility.yul\":14467:14476   */\n      dup4\n        /* \"#utility.yul\":14463:14480   */\n      add\n        /* \"#utility.yul\":14456:14503   */\n      mstore\n        /* \"#utility.yul\":14520:14598   */\n      tag_411\n        /* \"#utility.yul\":14593:14597   */\n      dup2\n        /* \"#utility.yul\":14584:14590   */\n      dup10\n        /* \"#utility.yul\":14520:14598   */\n      tag_238\n      jump\t// in\n    tag_411:\n        /* \"#utility.yul\":14512:14598   */\n      swap1\n      pop\n        /* \"#utility.yul\":14645:14654   */\n      dup2\n        /* \"#utility.yul\":14639:14643   */\n      dup2\n        /* \"#utility.yul\":14635:14655   */\n      sub\n        /* \"#utility.yul\":14630:14632   */\n      0x20\n        /* \"#utility.yul\":14619:14628   */\n      dup4\n        /* \"#utility.yul\":14615:14633   */\n      add\n        /* \"#utility.yul\":14608:14656   */\n      mstore\n        /* \"#utility.yul\":14673:14751   */\n      tag_412\n        /* \"#utility.yul\":14746:14750   */\n      dup2\n        /* \"#utility.yul\":14737:14743   */\n      dup9\n        /* \"#utility.yul\":14673:14751   */\n      tag_238\n      jump\t// in\n    tag_412:\n        /* \"#utility.yul\":14665:14751   */\n      swap1\n      pop\n        /* \"#utility.yul\":14761:14833   */\n      tag_413\n        /* \"#utility.yul\":14829:14831   */\n      0x40\n        /* \"#utility.yul\":14818:14827   */\n      dup4\n        /* \"#utility.yul\":14814:14832   */\n      add\n        /* \"#utility.yul\":14805:14811   */\n      dup8\n        /* \"#utility.yul\":14761:14833   */\n      tag_239\n      jump\t// in\n    tag_413:\n        /* \"#utility.yul\":14843:14909   */\n      tag_414\n        /* \"#utility.yul\":14905:14907   */\n      0x60\n        /* \"#utility.yul\":14894:14903   */\n      dup4\n        /* \"#utility.yul\":14890:14908   */\n      add\n        /* \"#utility.yul\":14881:14887   */\n      dup7\n        /* \"#utility.yul\":14843:14909   */\n      tag_201\n      jump\t// in\n    tag_414:\n        /* \"#utility.yul\":14919:14986   */\n      tag_415\n        /* \"#utility.yul\":14981:14984   */\n      0x80\n        /* \"#utility.yul\":14970:14979   */\n      dup4\n        /* \"#utility.yul\":14966:14985   */\n      add\n        /* \"#utility.yul\":14957:14963   */\n      dup6\n        /* \"#utility.yul\":14919:14986   */\n      tag_201\n      jump\t// in\n    tag_415:\n        /* \"#utility.yul\":14996:15069   */\n      tag_416\n        /* \"#utility.yul\":15064:15067   */\n      0xa0\n        /* \"#utility.yul\":15053:15062   */\n      dup4\n        /* \"#utility.yul\":15049:15068   */\n      add\n        /* \"#utility.yul\":15040:15046   */\n      dup5\n        /* \"#utility.yul\":14996:15069   */\n      tag_240\n      jump\t// in\n    tag_416:\n        /* \"#utility.yul\":14143:15076   */\n      swap8\n      swap7\n      pop\n      pop\n      pop\n      pop\n      pop\n      pop\n      pop\n      jump\t// out\n        /* \"#utility.yul\":15082:15556   */\n    tag_74:\n        /* \"#utility.yul\":15150:15156   */\n      0x00\n        /* \"#utility.yul\":15158:15164   */\n      dup1\n        /* \"#utility.yul\":15207:15209   */\n      0x40\n        /* \"#utility.yul\":15195:15204   */\n      dup4\n        /* \"#utility.yul\":15186:15193   */\n      dup6\n        /* \"#utility.yul\":15182:15205   */\n      sub\n        /* \"#utility.yul\":15178:15210   */\n      slt\n        /* \"#utility.yul\":15175:15294   */\n      iszero\n      tag_418\n      jumpi\n        /* \"#utility.yul\":15213:15292   */\n      tag_419\n      tag_195\n      jump\t// in\n    tag_419:\n        /* \"#utility.yul\":15175:15294   */\n    tag_418:\n        /* \"#utility.yul\":15333:15334   */\n      0x00\n        /* \"#utility.yul\":15358:15411   */\n      tag_420\n        /* \"#utility.yul\":15403:15410   */\n      dup6\n        /* \"#utility.yul\":15394:15400   */\n      dup3\n        /* \"#utility.yul\":15383:15392   */\n      dup7\n        /* \"#utility.yul\":15379:15401   */\n      add\n        /* \"#utility.yul\":15358:15411   */\n      tag_212\n      jump\t// in\n    tag_420:\n        /* \"#utility.yul\":15348:15411   */\n      swap3\n      pop\n        /* \"#utility.yul\":15304:15421   */\n      pop\n        /* \"#utility.yul\":15460:15462   */\n      0x20\n        /* \"#utility.yul\":15486:15539   */\n      tag_421\n        /* \"#utility.yul\":15531:15538   */\n      dup6\n        /* \"#utility.yul\":15522:15528   */\n      dup3\n        /* \"#utility.yul\":15511:15520   */\n      dup7\n        /* \"#utility.yul\":15507:15529   */\n      add\n        /* \"#utility.yul\":15486:15539   */\n      tag_209\n      jump\t// in\n    tag_421:\n        /* \"#utility.yul\":15476:15539   */\n      swap2\n      pop\n        /* \"#utility.yul\":15431:15549   */\n      pop\n        /* \"#utility.yul\":15082:15556   */\n      swap3\n      pop\n      swap3\n      swap1\n      pop\n      jump\t// out\n        /* \"#utility.yul\":15562:15735   */\n    tag_241:\n        /* \"#utility.yul\":15702:15727   */\n      0x50726f6475637420646f6573206e6f742065786973742e000000000000000000\n        /* \"#utility.yul\":15698:15699   */\n      0x00\n        /* \"#utility.yul\":15690:15696   */\n      dup3\n        /* \"#utility.yul\":15686:15700   */\n      add\n        /* \"#utility.yul\":15679:15728   */\n      mstore\n        /* \"#utility.yul\":15562:15735   */\n      pop\n      jump\t// out\n        /* \"#utility.yul\":15741:16107   */\n    tag_242:\n        /* \"#utility.yul\":15883:15886   */\n      0x00\n        /* \"#utility.yul\":15904:15971   */\n      tag_424\n        /* \"#utility.yul\":15968:15970   */\n      0x17\n        /* \"#utility.yul\":15963:15966   */\n      dup4\n        /* \"#utility.yul\":15904:15971   */\n      tag_237\n      jump\t// in\n    tag_424:\n        /* \"#utility.yul\":15897:15971   */\n      swap2\n      pop\n        /* \"#utility.yul\":15980:16073   */\n      tag_425\n        /* \"#utility.yul\":16069:16072   */\n      dup3\n        /* \"#utility.yul\":15980:16073   */\n      tag_241\n      jump\t// in\n    tag_425:\n        /* \"#utility.yul\":16098:16100   */\n      0x20\n        /* \"#utility.yul\":16093:16096   */\n      dup3\n        /* \"#utility.yul\":16089:16101   */\n      add\n        /* \"#utility.yul\":16082:16101   */\n      swap1\n      pop\n        /* \"#utility.yul\":15741:16107   */\n      swap2\n      swap1\n      pop\n      jump\t// out\n        /* \"#utility.yul\":16113:16532   */\n    tag_105:\n        /* \"#utility.yul\":16279:16283   */\n      0x00\n        /* \"#utility.yul\":16317:16319   */\n      0x20\n        /* \"#utility.yul\":16306:16315   */\n      dup3\n        /* \"#utility.yul\":16302:16320   */\n      add\n        /* \"#utility.yul\":16294:16320   */\n      swap1\n      pop\n        /* \"#utility.yul\":16366:16375   */\n      dup2\n        /* \"#utility.yul\":16360:16364   */\n      dup2\n        /* \"#utility.yul\":16356:16376   */\n      sub\n        /* \"#utility.yul\":16352:16353   */\n      0x00\n        /* \"#utility.yul\":16341:16350   */\n      dup4\n        /* \"#utility.yul\":16337:16354   */\n      add\n        /* \"#utility.yul\":16330:16377   */\n      mstore\n        /* \"#utility.yul\":16394:16525   */\n      tag_427\n        /* \"#utility.yul\":16520:16524   */\n      dup2\n        /* \"#utility.yul\":16394:16525   */\n      tag_242\n      jump\t// in\n    tag_427:\n        /* \"#utility.yul\":16386:16525   */\n      swap1\n      pop\n        /* \"#utility.yul\":16113:16532   */\n      swap2\n      swap1\n      pop\n      jump\t// out\n        /* \"#utility.yul\":16538:16718   */\n    tag_243:\n        /* \"#utility.yul\":16586:16663   */\n      0x4e487b7100000000000000000000000000000000000000000000000000000000\n        /* \"#utility.yul\":16583:16584   */\n      0x00\n        /* \"#utility.yul\":16576:16664   */\n      mstore\n        /* \"#utility.yul\":16683:16687   */\n      0x22\n        /* \"#utility.yul\":16680:16681   */\n      0x04\n        /* \"#utility.yul\":16673:16688   */\n      mstore\n        /* \"#utility.yul\":16707:16711   */\n      0x24\n        /* \"#utility.yul\":16704:16705   */\n      0x00\n        /* \"#utility.yul\":16697:16712   */\n      revert\n        /* \"#utility.yul\":16724:17044   */\n    tag_110:\n        /* \"#utility.yul\":16768:16774   */\n      0x00\n        /* \"#utility.yul\":16805:16806   */\n      0x02\n        /* \"#utility.yul\":16799:16803   */\n      dup3\n        /* \"#utility.yul\":16795:16807   */\n      div\n        /* \"#utility.yul\":16785:16807   */\n      swap1\n      pop\n        /* \"#utility.yul\":16852:16853   */\n      0x01\n        /* \"#utility.yul\":16846:16850   */\n      dup3\n        /* \"#utility.yul\":16842:16854   */\n      and\n        /* \"#utility.yul\":16873:16891   */\n      dup1\n        /* \"#utility.yul\":16863:16944   */\n      tag_430\n      jumpi\n        /* \"#utility.yul\":16929:16933   */\n      0x7f\n        /* \"#utility.yul\":16921:16927   */\n      dup3\n        /* \"#utility.yul\":16917:16934   */\n      and\n        /* \"#utility.yul\":16907:16934   */\n      swap2\n      pop\n        /* \"#utility.yul\":16863:16944   */\n    tag_430:\n        /* \"#utility.yul\":16991:16993   */\n      0x20\n        /* \"#utility.yul\":16983:16989   */\n      dup3\n        /* \"#utility.yul\":16980:16994   */\n      lt\n        /* \"#utility.yul\":16960:16978   */\n      dup2\n        /* \"#utility.yul\":16957:16995   */\n      sub\n        /* \"#utility.yul\":16954:17038   */\n      tag_431\n      jumpi\n        /* \"#utility.yul\":17010:17028   */\n      tag_432\n      tag_243\n      jump\t// in\n    tag_432:\n        /* \"#utility.yul\":16954:17038   */\n    tag_431:\n        /* \"#utility.yul\":16775:17044   */\n      pop\n        /* \"#utility.yul\":16724:17044   */\n      swap2\n      swap1\n      pop\n      jump\t// out\n        /* \"#utility.yul\":17050:17191   */\n    tag_244:\n        /* \"#utility.yul\":17099:17103   */\n      0x00\n        /* \"#utility.yul\":17122:17125   */\n      dup2\n        /* \"#utility.yul\":17114:17125   */\n      swap1\n      pop\n        /* \"#utility.yul\":17145:17148   */\n      dup2\n        /* \"#utility.yul\":17142:17143   */\n      0x00\n        /* \"#utility.yul\":17135:17149   */\n      mstore\n        /* \"#utility.yul\":17179:17183   */\n      0x20\n        /* \"#utility.yul\":17176:17177   */\n      0x00\n        /* \"#utility.yul\":17166:17184   */\n      keccak256\n        /* \"#utility.yul\":17158:17184   */\n      swap1\n      pop\n        /* \"#utility.yul\":17050:17191   */\n      swap2\n      swap1\n      pop\n      jump\t// out\n        /* \"#utility.yul\":17197:17290   */\n    tag_245:\n        /* \"#utility.yul\":17234:17240   */\n      0x00\n        /* \"#utility.yul\":17281:17283   */\n      0x20\n        /* \"#utility.yul\":17276:17278   */\n      0x1f\n        /* \"#utility.yul\":17269:17274   */\n      dup4\n        /* \"#utility.yul\":17265:17279   */\n      add\n        /* \"#utility.yul\":17261:17284   */\n      div\n        /* \"#utility.yul\":17251:17284   */\n      swap1\n      pop\n        /* \"#utility.yul\":17197:17290   */\n      swap2\n      swap1\n      pop\n      jump\t// out\n        /* \"#utility.yul\":17296:17403   */\n    tag_246:\n        /* \"#utility.yul\":17340:17348   */\n      0x00\n        /* \"#utility.yul\":17390:17395   */\n      dup3\n        /* \"#utility.yul\":17384:17388   */\n      dup3\n        /* \"#utility.yul\":17380:17396   */\n      shl\n        /* \"#utility.yul\":17359:17396   */\n      swap1\n      pop\n        /* \"#utility.yul\":17296:17403   */\n      swap3\n      swap2\n      pop\n      pop\n      jump\t// out\n        /* \"#utility.yul\":17409:17802   */\n    tag_247:\n        /* \"#utility.yul\":17478:17484   */\n      0x00\n        /* \"#utility.yul\":17528:17529   */\n      0x08\n        /* \"#utility.yul\":17516:17526   */\n      dup4\n        /* \"#utility.yul\":17512:17530   */\n      mul\n        /* \"#utility.yul\":17551:17648   */\n      tag_437\n        /* \"#utility.yul\":17581:17647   */\n      0xffffffffffffffffffffffffffffffffffffffffffffffffffffffffffffffff\n        /* \"#utility.yul\":17570:17579   */\n      dup3\n        /* \"#utility.yul\":17551:17648   */\n      tag_246\n      jump\t// in\n    tag_437:\n        /* \"#utility.yul\":17669:17708   */\n      tag_438\n        /* \"#utility.yul\":17699:17707   */\n      dup7\n        /* \"#utility.yul\":17688:17697   */\n      dup4\n        /* \"#utility.yul\":17669:17708   */\n      tag_246\n      jump\t// in\n    tag_438:\n        /* \"#utility.yul\":17657:17708   */\n      swap6\n      pop\n        /* \"#utility.yul\":17741:17745   */\n      dup1\n        /* \"#utility.yul\":17737:17746   */\n      not\n        /* \"#utility.yul\":17730:17735   */\n      dup5\n        /* \"#utility.yul\":17726:17747   */\n      and\n        /* \"#utility.yul\":17717:17747   */\n      swap4\n      pop\n        /* \"#utility.yul\":17790:17794   */\n      dup1\n        /* \"#utility.yul\":17780:17788   */\n      dup7\n        /* \"#utility.yul\":17776:17795   */\n      and\n        /* \"#utility.yul\":17769:17774   */\n      dup5\n        /* \"#utility.yul\":17766:17796   */\n      or\n        /* \"#utility.yul\":17756:17796   */\n      swap3\n      pop\n        /* \"#utility.yul\":17485:17802   */\n      pop\n      pop\n        /* \"#utility.yul\":17409:17802   */\n      swap4\n      swap3\n      pop\n      pop\n      pop\n      jump\t// out\n        /* \"#utility.yul\":17808:17868   */\n    tag_248:\n        /* \"#utility.yul\":17836:17839   */\n      0x00\n        /* \"#utility.yul\":17857:17862   */\n      dup2\n        /* \"#utility.yul\":17850:17862   */\n      swap1\n      pop\n        /* \"#utility.yul\":17808:17868   */\n      swap2\n      swap1\n      pop\n      jump\t// out\n        /* \"#utility.yul\":17874:18016   */\n    tag_249:\n        /* \"#utility.yul\":17924:17933   */\n      0x00\n        /* \"#utility.yul\":17957:18010   */\n      tag_441\n        /* \"#utility.yul\":17975:18009   */\n      tag_442\n        /* \"#utility.yul\":17984:18008   */\n      tag_443\n        /* \"#utility.yul\":18002:18007   */\n      dup5\n        /* \"#utility.yul\":17984:18008   */\n      tag_210\n      jump\t// in\n    tag_443:\n        /* \"#utility.yul\":17975:18009   */\n      tag_248\n      jump\t// in\n    tag_442:\n        /* \"#utility.yul\":17957:18010   */\n      tag_210\n      jump\t// in\n    tag_441:\n        /* \"#utility.yul\":17944:18010   */\n      swap1\n      pop\n        /* \"#utility.yul\":17874:18016   */\n      swap2\n      swap1\n      pop\n      jump\t// out\n        /* \"#utility.yul\":18022:18097   */\n    tag_250:\n        /* \"#utility.yul\":18065:18068   */\n      0x00\n        /* \"#utility.yul\":18086:18091   */\n      dup2\n        /* \"#utility.yul\":18079:18091   */\n      swap1\n      pop\n        /* \"#utility.yul\":18022:18097   */\n      swap2\n      swap1\n      pop\n      jump\t// out\n        /* \"#utility.yul\":18103:18372   */\n    tag_251:\n        /* \"#utility.yul\":18213:18252   */\n      tag_446\n        /* \"#utility.yul\":18244:18251   */\n      dup4\n        /* \"#utility.yul\":18213:18252   */\n      tag_249\n      jump\t// in\n    tag_446:\n        /* \"#utility.yul\":18274:18365   */\n      tag_447\n        /* \"#utility.yul\":18323:18364   */\n      tag_448\n        /* \"#utility.yul\":18347:18363   */\n      dup3\n        /* \"#utility.yul\":18323:18364   */\n      tag_250\n      jump\t// in\n    tag_448:\n        /* \"#utility.yul\":18315:18321   */\n      dup5\n        /* \"#utility.yul\":18308:18312   */\n      dup5\n        /* \"#utility.yul\":18302:18313   */\n      sload\n        /* \"#utility.yul\":18274:18365   */\n      tag_247\n      jump\t// in\n    tag_447:\n        /* \"#utility.yul\":18268:18272   */\n      dup3\n        /* \"#utility.yul\":18261:18366   */\n      sstore\n        /* \"#utility.yul\":18179:18372   */\n      pop\n        /* \"#utility.yul\":18103:18372   */\n      pop\n      pop\n      pop\n      jump\t// out\n        /* \"#utility.yul\":18378:18451   */\n    tag_252:\n        /* \"#utility.yul\":18423:18426   */\n      0x00\n        /* \"#utility.yul\":18378:18451   */\n      swap1\n      jump\t// out\n        /* \"#utility.yul\":18457:18646   */\n    tag_253:\n        /* \"#utility.yul\":18534:18566   */\n      tag_451\n      tag_252\n      jump\t// in\n    tag_451:\n        /* \"#utility.yul\":18575:18640   */\n      tag_452\n        /* \"#utility.yul\":18633:18639   */\n      dup2\n        /* \"#utility.yul\":18625:18631   */\n      dup5\n        /* \"#utility.yul\":18619:18623   */\n      dup5\n        /* \"#utility.yul\":18575:18640   */\n      tag_251\n      jump\t// in\n    tag_452:\n        /* \"#utility.yul\":18510:18646   */\n      pop\n        /* \"#utility.yul\":18457:18646   */\n      pop\n      pop\n      jump\t// out\n        /* \"#utility.yul\":18652:18838   */\n    tag_254:\n        /* \"#utility.yul\":18712:18832   */\n    tag_454:\n        /* \"#utility.yul\":18729:18732   */\n      dup2\n        /* \"#utility.yul\":18722:18727   */\n      dup2\n        /* \"#utility.yul\":18719:18733   */\n      lt\n        /* \"#utility.yul\":18712:18832   */\n      iszero\n      tag_456\n      jumpi\n        /* \"#utility.yul\":18783:18822   */\n      tag_457\n        /* \"#utility.yul\":18820:18821   */\n      0x00\n        /* \"#utility.yul\":18813:18818   */\n      dup3\n        /* \"#utility.yul\":18783:18822   */\n      tag_253\n      jump\t// in\n    tag_457:\n        /* \"#utility.yul\":18756:18757   */\n      0x01\n        /* \"#utility.yul\":18749:18754   */\n      dup2\n        /* \"#utility.yul\":18745:18758   */\n      add\n        /* \"#utility.yul\":18736:18758   */\n      swap1\n      pop\n        /* \"#utility.yul\":18712:18832   */\n      jump(tag_454)\n    tag_456:\n        /* \"#utility.yul\":18652:18838   */\n      pop\n      pop\n      jump\t// out\n        /* \"#utility.yul\":18844:19387   */\n    tag_255:\n        /* \"#utility.yul\":18945:18947   */\n      0x1f\n        /* \"#utility.yul\":18940:18943   */\n      dup3\n        /* \"#utility.yul\":18937:18948   */\n      gt\n        /* \"#utility.yul\":18934:19380   */\n      iszero\n      tag_459\n      jumpi\n        /* \"#utility.yul\":18979:19017   */\n      tag_460\n        /* \"#utility.yul\":19011:19016   */\n      dup2\n        /* \"#utility.yul\":18979:19017   */\n      tag_244\n      jump\t// in\n    tag_460:\n        /* \"#utility.yul\":19063:19092   */\n      tag_461\n        /* \"#utility.yul\":19081:19091   */\n      dup5\n        /* \"#utility.yul\":19063:19092   */\n      tag_245\n      jump\t// in\n    tag_461:\n        /* \"#utility.yul\":19053:19061   */\n      dup2\n        /* \"#utility.yul\":19049:19093   */\n      add\n        /* \"#utility.yul\":19246:19248   */\n      0x20\n        /* \"#utility.yul\":19234:19244   */\n      dup6\n        /* \"#utility.yul\":19231:19249   */\n      lt\n        /* \"#utility.yul\":19228:19277   */\n      iszero\n      tag_462\n      jumpi\n        /* \"#utility.yul\":19267:19275   */\n      dup2\n        /* \"#utility.yul\":19252:19275   */\n      swap1\n      pop\n        /* \"#utility.yul\":19228:19277   */\n    tag_462:\n        /* \"#utility.yul\":19290:19370   */\n      tag_463\n        /* \"#utility.yul\":19346:19368   */\n      tag_464\n        /* \"#utility.yul\":19364:19367   */\n      dup6\n        /* \"#utility.yul\":19346:19368   */\n      tag_245\n      jump\t// in\n    tag_464:\n        /* \"#utility.yul\":19336:19344   */\n      dup4\n        /* \"#utility.yul\":19332:19369   */\n      add\n        /* \"#utility.yul\":19319:19330   */\n      dup3\n        /* \"#utility.yul\":19290:19370   */\n      tag_254\n      jump\t// in\n    tag_463:\n        /* \"#utility.yul\":18949:19380   */\n      pop\n      pop\n        /* \"#utility.yul\":18934:19380   */\n    tag_459:\n        /* \"#utility.yul\":18844:19387   */\n      pop\n      pop\n      pop\n      jump\t// out\n        /* \"#utility.yul\":19393:19510   */\n    tag_256:\n        /* \"#utility.yul\":19447:19455   */\n      0x00\n        /* \"#utility.yul\":19497:19502   */\n      dup3\n        /* \"#utility.yul\":19491:19495   */\n      dup3\n        /* \"#utility.yul\":19487:19503   */\n      shr\n        /* \"#utility.yul\":19466:19503   */\n      swap1\n      pop\n        /* \"#utility.yul\":19393:19510   */\n      swap3\n      swap2\n      pop\n      pop\n      jump\t// out\n        /* \"#utility.yul\":19516:19685   */\n    tag_257:\n        /* \"#utility.yul\":19560:19566   */\n      0x00\n        /* \"#utility.yul\":19593:19644   */\n      tag_467\n        /* \"#utility.yul\":19641:19642   */\n      0x00\n        /* \"#utility.yul\":19637:19643   */\n      not\n        /* \"#utility.yul\":19629:19634   */\n      dup5\n        /* \"#utility.yul\":19626:19627   */\n      0x08\n        /* \"#utility.yul\":19622:19635   */\n      mul\n        /* \"#utility.yul\":19593:19644   */\n      tag_256\n      jump\t// in\n    tag_467:\n        /* \"#utility.yul\":19589:19645   */\n      not\n        /* \"#utility.yul\":19674:19678   */\n      dup1\n        /* \"#utility.yul\":19668:19672   */\n      dup4\n        /* \"#utility.yul\":19664:19679   */\n      and\n        /* \"#utility.yul\":19654:19679   */\n      swap2\n      pop\n        /* \"#utility.yul\":19567:19685   */\n      pop\n        /* \"#utility.yul\":19516:19685   */\n      swap3\n      swap2\n      pop\n      pop\n      jump\t// out\n        /* \"#utility.yul\":19690:19985   */\n    tag_258:\n        /* \"#utility.yul\":19766:19770   */\n      0x00\n        /* \"#utility.yul\":19912:19941   */\n      tag_469\n        /* \"#utility.yul\":19937:19940   */\n      dup4\n        /* \"#utility.yul\":19931:19935   */\n      dup4\n        /* \"#utility.yul\":19912:19941   */\n      tag_257\n      jump\t// in\n    tag_469:\n        /* \"#utility.yul\":19904:19941   */\n      swap2\n      pop\n        /* \"#utility.yul\":19974:19977   */\n      dup3\n        /* \"#utility.yul\":19971:19972   */\n      0x02\n        /* \"#utility.yul\":19967:19978   */\n      mul\n        /* \"#utility.yul\":19961:19965   */\n      dup3\n        /* \"#utility.yul\":19958:19979   */\n      or\n        /* \"#utility.yul\":19950:19979   */\n      swap1\n      pop\n        /* \"#utility.yul\":19690:19985   */\n      swap3\n      swap2\n      pop\n      pop\n      jump\t// out\n        /* \"#utility.yul\":19990:21385   */\n    tag_129:\n        /* \"#utility.yul\":20107:20144   */\n      tag_471\n        /* \"#utility.yul\":20140:20143   */\n      dup3\n        /* \"#utility.yul\":20107:20144   */\n      tag_216\n      jump\t// in\n    tag_471:\n        /* \"#utility.yul\":20209:20227   */\n      0xffffffffffffffff\n        /* \"#utility.yul\":20201:20207   */\n      dup2\n        /* \"#utility.yul\":20198:20228   */\n      gt\n        /* \"#utility.yul\":20195:20251   */\n      iszero\n      tag_472\n      jumpi\n        /* \"#utility.yul\":20231:20249   */\n      tag_473\n      tag_228\n      jump\t// in\n    tag_473:\n        /* \"#utility.yul\":20195:20251   */\n    tag_472:\n        /* \"#utility.yul\":20275:20313   */\n      tag_474\n        /* \"#utility.yul\":20307:20311   */\n      dup3\n        /* \"#utility.yul\":20301:20312   */\n      sload\n        /* \"#utility.yul\":20275:20313   */\n      tag_110\n      jump\t// in\n    tag_474:\n        /* \"#utility.yul\":20360:20427   */\n      tag_475\n        /* \"#utility.yul\":20420:20426   */\n      dup3\n        /* \"#utility.yul\":20412:20418   */\n      dup3\n        /* \"#utility.yul\":20406:20410   */\n      dup6\n        /* \"#utility.yul\":20360:20427   */\n      tag_255\n      jump\t// in\n    tag_475:\n        /* \"#utility.yul\":20454:20455   */\n      0x00\n        /* \"#utility.yul\":20478:20482   */\n      0x20\n        /* \"#utility.yul\":20465:20482   */\n      swap1\n      pop\n        /* \"#utility.yul\":20510:20512   */\n      0x1f\n        /* \"#utility.yul\":20502:20508   */\n      dup4\n        /* \"#utility.yul\":20499:20513   */\n      gt\n        /* \"#utility.yul\":20527:20528   */\n      0x01\n        /* \"#utility.yul\":20522:21140   */\n      dup2\n      eq\n      tag_477\n      jumpi\n        /* \"#utility.yul\":21184:21185   */\n      0x00\n        /* \"#utility.yul\":21201:21207   */\n      dup5\n        /* \"#utility.yul\":21198:21275   */\n      iszero\n      tag_478\n      jumpi\n        /* \"#utility.yul\":21250:21259   */\n      dup3\n        /* \"#utility.yul\":21245:21248   */\n      dup8\n        /* \"#utility.yul\":21241:21260   */\n      add\n        /* \"#utility.yul\":21235:21261   */\n      mload\n        /* \"#utility.yul\":21226:21261   */\n      swap1\n      pop\n        /* \"#utility.yul\":21198:21275   */\n    tag_478:\n        /* \"#utility.yul\":21301:21368   */\n      tag_479\n        /* \"#utility.yul\":21361:21367   */\n      dup6\n        /* \"#utility.yul\":21354:21359   */\n      dup3\n        /* \"#utility.yul\":21301:21368   */\n      tag_258\n      jump\t// in\n    tag_479:\n        /* \"#utility.yul\":21295:21299   */\n      dup7\n        /* \"#utility.yul\":21288:21369   */\n      sstore\n        /* \"#utility.yul\":21157:21379   */\n      pop\n        /* \"#utility.yul\":20492:21379   */\n      jump(tag_476)\n        /* \"#utility.yul\":20522:21140   */\n    tag_477:\n        /* \"#utility.yul\":20574:20578   */\n      0x1f\n        /* \"#utility.yul\":20570:20579   */\n      not\n        /* \"#utility.yul\":20562:20568   */\n      dup5\n        /* \"#utility.yul\":20558:20580   */\n      and\n        /* \"#utility.yul\":20608:20645   */\n      tag_480\n        /* \"#utility.yul\":20640:20644   */\n      dup7\n        /* \"#utility.yul\":20608:20645   */\n      tag_244\n      jump\t// in\n    tag_480:\n        /* \"#utility.yul\":20667:20668   */\n      0x00\n        /* \"#utility.yul\":20681:20889   */\n    tag_481:\n        /* \"#utility.yul\":20695:20702   */\n      dup3\n        /* \"#utility.yul\":20692:20693   */\n      dup2\n        /* \"#utility.yul\":20689:20703   */\n      lt\n        /* \"#utility.yul\":20681:20889   */\n      iszero\n      tag_483\n      jumpi\n        /* \"#utility.yul\":20774:20783   */\n      dup5\n        /* \"#utility.yul\":20769:20772   */\n      dup10\n        /* \"#utility.yul\":20765:20784   */\n      add\n        /* \"#utility.yul\":20759:20785   */\n      mload\n        /* \"#utility.yul\":20751:20757   */\n      dup3\n        /* \"#utility.yul\":20744:20786   */\n      sstore\n        /* \"#utility.yul\":20825:20826   */\n      0x01\n        /* \"#utility.yul\":20817:20823   */\n      dup3\n        /* \"#utility.yul\":20813:20827   */\n      add\n        /* \"#utility.yul\":20803:20827   */\n      swap2\n      pop\n        /* \"#utility.yul\":20872:20874   */\n      0x20\n        /* \"#utility.yul\":20861:20870   */\n      dup6\n        /* \"#utility.yul\":20857:20875   */\n      add\n        /* \"#utility.yul\":20844:20875   */\n      swap5\n      pop\n        /* \"#utility.yul\":20718:20722   */\n      0x20\n        /* \"#utility.yul\":20715:20716   */\n      dup2\n        /* \"#utility.yul\":20711:20723   */\n      add\n        /* \"#utility.yul\":20706:20723   */\n      swap1\n      pop\n        /* \"#utility.yul\":20681:20889   */\n      jump(tag_481)\n    tag_483:\n        /* \"#utility.yul\":20917:20923   */\n      dup7\n        /* \"#utility.yul\":20908:20915   */\n      dup4\n        /* \"#utility.yul\":20905:20924   */\n      lt\n        /* \"#utility.yul\":20902:21081   */\n      iszero\n      tag_484\n      jumpi\n        /* \"#utility.yul\":20975:20984   */\n      dup5\n        /* \"#utility.yul\":20970:20973   */\n      dup10\n        /* \"#utility.yul\":20966:20985   */\n      add\n        /* \"#utility.yul\":20960:20986   */\n      mload\n        /* \"#utility.yul\":21018:21066   */\n      tag_485\n        /* \"#utility.yul\":21060:21064   */\n      0x1f\n        /* \"#utility.yul\":21052:21058   */\n      dup10\n        /* \"#utility.yul\":21048:21065   */\n      and\n        /* \"#utility.yul\":21037:21046   */\n      dup3\n        /* \"#utility.yul\":21018:21066   */\n      tag_257\n      jump\t// in\n    tag_485:\n        /* \"#utility.yul\":21010:21016   */\n      dup4\n        /* \"#utility.yul\":21003:21067   */\n      sstore\n        /* \"#utility.yul\":20925:21081   */\n      pop\n        /* \"#utility.yul\":20902:21081   */\n    tag_484:\n        /* \"#utility.yul\":21127:21128   */\n      0x01\n        /* \"#utility.yul\":21123:21124   */\n      0x02\n        /* \"#utility.yul\":21115:21121   */\n      dup9\n        /* \"#utility.yul\":21111:21125   */\n      mul\n        /* \"#utility.yul\":21107:21129   */\n      add\n        /* \"#utility.yul\":21101:21105   */\n      dup9\n        /* \"#utility.yul\":21094:21130   */\n      sstore\n        /* \"#utility.yul\":20529:21140   */\n      pop\n      pop\n      pop\n        /* \"#utility.yul\":20492:21379   */\n    tag_476:\n      pop\n        /* \"#utility.yul\":20082:21385   */\n      pop\n      pop\n      pop\n        /* \"#utility.yul\":19990:21385   */\n      pop\n      pop\n      jump\t// out\n        /* \"#utility.yul\":21391:22015   */\n    tag_132:\n        /* \"#utility.yul\":21580:21584   */\n      0x00\n        /* \"#utility.yul\":21618:21620   */\n      0x60\n        /* \"#utility.yul\":21607:21616   */\n      dup3\n        /* \"#utility.yul\":21603:21621   */\n      add\n        /* \"#utility.yul\":21595:21621   */\n      swap1\n      pop\n        /* \"#utility.yul\":21631:21702   */\n      tag_487\n        /* \"#utility.yul\":21699:21700   */\n      0x00\n        /* \"#utility.yul\":21688:21697   */\n      dup4\n        /* \"#utility.yul\":21684:21701   */\n      add\n        /* \"#utility.yul\":21675:21681   */\n      dup7\n        /* \"#utility.yul\":21631:21702   */\n      tag_239\n      jump\t// in\n    tag_487:\n        /* \"#utility.yul\":21749:21758   */\n      dup2\n        /* \"#utility.yul\":21743:21747   */\n      dup2\n        /* \"#utility.yul\":21739:21759   */\n      sub\n        /* \"#utility.yul\":21734:21736   */\n      0x20\n        /* \"#utility.yul\":21723:21732   */\n      dup4\n        /* \"#utility.yul\":21719:21737   */\n      add\n        /* \"#utility.yul\":21712:21760   */\n      mstore\n        /* \"#utility.yul\":21777:21855   */\n      tag_488\n        /* \"#utility.yul\":21850:21854   */\n      dup2\n        /* \"#utility.yul\":21841:21847   */\n      dup6\n        /* \"#utility.yul\":21777:21855   */\n      tag_238\n      jump\t// in\n    tag_488:\n        /* \"#utility.yul\":21769:21855   */\n      swap1\n      pop\n        /* \"#utility.yul\":21902:21911   */\n      dup2\n        /* \"#utility.yul\":21896:21900   */\n      dup2\n        /* \"#utility.yul\":21892:21912   */\n      sub\n        /* \"#utility.yul\":21887:21889   */\n      0x40\n        /* \"#utility.yul\":21876:21885   */\n      dup4\n        /* \"#utility.yul\":21872:21890   */\n      add\n        /* \"#utility.yul\":21865:21913   */\n      mstore\n        /* \"#utility.yul\":21930:22008   */\n      tag_489\n        /* \"#utility.yul\":22003:22007   */\n      dup2\n        /* \"#utility.yul\":21994:22000   */\n      dup5\n        /* \"#utility.yul\":21930:22008   */\n      tag_238\n      jump\t// in\n    tag_489:\n        /* \"#utility.yul\":21922:22008   */\n      swap1\n      pop\n        /* \"#utility.yul\":21391:22015   */\n      swap5\n      swap4\n      pop\n      pop\n      pop\n      pop\n      jump\t// out\n        /* \"#utility.yul\":22021:22756   */\n    tag_142:\n        /* \"#utility.yul\":22238:22242   */\n      0x00\n        /* \"#utility.yul\":22276:22279   */\n      0x80\n        /* \"#utility.yul\":22265:22274   */\n      dup3\n        /* \"#utility.yul\":22261:22280   */\n      add\n        /* \"#utility.yul\":22253:22280   */\n      swap1\n      pop\n        /* \"#utility.yul\":22290:22361   */\n      tag_491\n        /* \"#utility.yul\":22358:22359   */\n      0x00\n        /* \"#utility.yul\":22347:22356   */\n      dup4\n        /* \"#utility.yul\":22343:22360   */\n      add\n        /* \"#utility.yul\":22334:22340   */\n      dup8\n        /* \"#utility.yul\":22290:22361   */\n      tag_239\n      jump\t// in\n    tag_491:\n        /* \"#utility.yul\":22408:22417   */\n      dup2\n        /* \"#utility.yul\":22402:22406   */\n      dup2\n        /* \"#utility.yul\":22398:22418   */\n      sub\n        /* \"#utility.yul\":22393:22395   */\n      0x20\n        /* \"#utility.yul\":22382:22391   */\n      dup4\n        /* \"#utility.yul\":22378:22396   */\n      add\n        /* \"#utility.yul\":22371:22419   */\n      mstore\n        /* \"#utility.yul\":22436:22514   */\n      tag_492\n        /* \"#utility.yul\":22509:22513   */\n      dup2\n        /* \"#utility.yul\":22500:22506   */\n      dup7\n        /* \"#utility.yul\":22436:22514   */\n      tag_238\n      jump\t// in\n    tag_492:\n        /* \"#utility.yul\":22428:22514   */\n      swap1\n      pop\n        /* \"#utility.yul\":22561:22570   */\n      dup2\n        /* \"#utility.yul\":22555:22559   */\n      dup2\n        /* \"#utility.yul\":22551:22571   */\n      sub\n        /* \"#utility.yul\":22546:22548   */\n      0x40\n        /* \"#utility.yul\":22535:22544   */\n      dup4\n        /* \"#utility.yul\":22531:22549   */\n      add\n        /* \"#utility.yul\":22524:22572   */\n      mstore\n        /* \"#utility.yul\":22589:22667   */\n      tag_493\n        /* \"#utility.yul\":22662:22666   */\n      dup2\n        /* \"#utility.yul\":22653:22659   */\n      dup6\n        /* \"#utility.yul\":22589:22667   */\n      tag_238\n      jump\t// in\n    tag_493:\n        /* \"#utility.yul\":22581:22667   */\n      swap1\n      pop\n        /* \"#utility.yul\":22677:22749   */\n      tag_494\n        /* \"#utility.yul\":22745:22747   */\n      0x60\n        /* \"#utility.yul\":22734:22743   */\n      dup4\n        /* \"#utility.yul\":22730:22748   */\n      add\n        /* \"#utility.yul\":22721:22727   */\n      dup5\n        /* \"#utility.yul\":22677:22749   */\n      tag_240\n      jump\t// in\n    tag_494:\n        /* \"#utility.yul\":22021:22756   */\n      swap6\n      swap5\n      pop\n      pop\n      pop\n      pop\n      pop\n      jump\t// out\n        /* \"#utility.yul\":22762:22997   */\n    tag_259:\n        /* \"#utility.yul\":22902:22936   */\n      0x4f6e6c79207468652063757272656e74206f776e65722063616e207472616e73\n        /* \"#utility.yul\":22898:22899   */\n      0x00\n        /* \"#utility.yul\":22890:22896   */\n      dup3\n        /* \"#utility.yul\":22886:22900   */\n      add\n        /* \"#utility.yul\":22879:22937   */\n      mstore\n        /* \"#utility.yul\":22971:22989   */\n      0x666572207468652070726f647563742e00000000000000000000000000000000\n        /* \"#utility.yul\":22966:22968   */\n      0x20\n        /* \"#utility.yul\":22958:22964   */\n      dup3\n        /* \"#utility.yul\":22954:22969   */\n      add\n        /* \"#utility.yul\":22947:22990   */\n      mstore\n        /* \"#utility.yul\":22762:22997   */\n      pop\n      jump\t// out\n        /* \"#utility.yul\":23003:23369   */\n    tag_260:\n        /* \"#utility.yul\":23145:23148   */\n      0x00\n        /* \"#utility.yul\":23166:23233   */\n      tag_497\n        /* \"#utility.yul\":23230:23232   */\n      0x30\n        /* \"#utility.yul\":23225:23228   */\n      dup4\n        /* \"#utility.yul\":23166:23233   */\n      tag_237\n      jump\t// in\n    tag_497:\n        /* \"#utility.yul\":23159:23233   */\n      swap2\n      pop\n        /* \"#utility.yul\":23242:23335   */\n      tag_498\n        /* \"#utility.yul\":23331:23334   */\n      dup3\n        /* \"#utility.yul\":23242:23335   */\n      tag_259\n      jump\t// in\n    tag_498:\n        /* \"#utility.yul\":23360:23362   */\n      0x40\n        /* \"#utility.yul\":23355:23358   */\n      dup3\n        /* \"#utility.yul\":23351:23363   */\n      add\n        /* \"#utility.yul\":23344:23363   */\n      swap1\n      pop\n        /* \"#utility.yul\":23003:23369   */\n      swap2\n      swap1\n      pop\n      jump\t// out\n        /* \"#utility.yul\":23375:23794   */\n    tag_168:\n        /* \"#utility.yul\":23541:23545   */\n      0x00\n        /* \"#utility.yul\":23579:23581   */\n      0x20\n        /* \"#utility.yul\":23568:23577   */\n      dup3\n        /* \"#utility.yul\":23564:23582   */\n      add\n        /* \"#utility.yul\":23556:23582   */\n      swap1\n      pop\n        /* \"#utility.yul\":23628:23637   */\n      dup2\n        /* \"#utility.yul\":23622:23626   */\n      dup2\n        /* \"#utility.yul\":23618:23638   */\n      sub\n        /* \"#utility.yul\":23614:23615   */\n      0x00\n        /* \"#utility.yul\":23603:23612   */\n      dup4\n        /* \"#utility.yul\":23599:23616   */\n      add\n        /* \"#utility.yul\":23592:23639   */\n      mstore\n        /* \"#utility.yul\":23656:23787   */\n      tag_500\n        /* \"#utility.yul\":23782:23786   */\n      dup2\n        /* \"#utility.yul\":23656:23787   */\n      tag_260\n      jump\t// in\n    tag_500:\n        /* \"#utility.yul\":23648:23787   */\n      swap1\n      pop\n        /* \"#utility.yul\":23375:23794   */\n      swap2\n      swap1\n      pop\n      jump\t// out\n        /* \"#utility.yul\":23800:24242   */\n    tag_170:\n        /* \"#utility.yul\":23949:23953   */\n      0x00\n        /* \"#utility.yul\":23987:23989   */\n      0x60\n        /* \"#utility.yul\":23976:23985   */\n      dup3\n        /* \"#utility.yul\":23972:23990   */\n      add\n        /* \"#utility.yul\":23964:23990   */\n      swap1\n      pop\n        /* \"#utility.yul\":24000:24071   */\n      tag_502\n        /* \"#utility.yul\":24068:24069   */\n      0x00\n        /* \"#utility.yul\":24057:24066   */\n      dup4\n        /* \"#utility.yul\":24053:24070   */\n      add\n        /* \"#utility.yul\":24044:24050   */\n      dup7\n        /* \"#utility.yul\":24000:24071   */\n      tag_239\n      jump\t// in\n    tag_502:\n        /* \"#utility.yul\":24081:24153   */\n      tag_503\n        /* \"#utility.yul\":24149:24151   */\n      0x20\n        /* \"#utility.yul\":24138:24147   */\n      dup4\n        /* \"#utility.yul\":24134:24152   */\n      add\n        /* \"#utility.yul\":24125:24131   */\n      dup6\n        /* \"#utility.yul\":24081:24153   */\n      tag_240\n      jump\t// in\n    tag_503:\n        /* \"#utility.yul\":24163:24235   */\n      tag_504\n        /* \"#utility.yul\":24231:24233   */\n      0x40\n        /* \"#utility.yul\":24220:24229   */\n      dup4\n        /* \"#utility.yul\":24216:24234   */\n      add\n        /* \"#utility.yul\":24207:24213   */\n      dup5\n        /* \"#utility.yul\":24163:24235   */\n      tag_240\n      jump\t// in\n    tag_504:\n        /* \"#utility.yul\":23800:24242   */\n      swap5\n      swap4\n      pop\n      pop\n      pop\n      pop\n      jump\t// out\n        /* \"#utility.yul\":24248:24580   */\n    tag_193:\n        /* \"#utility.yul\":24369:24373   */\n      0x00\n        /* \"#utility.yul\":24407:24409   */\n      0x40\n        /* \"#utility.yul\":24396:24405   */\n      dup3\n        /* \"#utility.yul\":24392:24410   */\n      add\n        /* \"#utility.yul\":24384:24410   */\n      swap1\n      pop\n        /* \"#utility.yul\":24420:24491   */\n      tag_506\n        /* \"#utility.yul\":24488:24489   */\n      0x00\n        /* \"#utility.yul\":24477:24486   */\n      dup4\n        /* \"#utility.yul\":24473:24490   */\n      add\n        /* \"#utility.yul\":24464:24470   */\n      dup6\n        /* \"#utility.yul\":24420:24491   */\n      tag_240\n      jump\t// in\n    tag_506:\n        /* \"#utility.yul\":24501:24573   */\n      tag_507\n        /* \"#utility.yul\":24569:24571   */\n      0x20\n        /* \"#utility.yul\":24558:24567   */\n      dup4\n        /* \"#utility.yul\":24554:24572   */\n      add\n        /* \"#utility.yul\":24545:24551   */\n      dup5\n        /* \"#utility.yul\":24501:24573   */\n      tag_203\n      jump\t// in\n    tag_507:\n        /* \"#utility.yul\":24248:24580   */\n      swap4\n      swap3\n      pop\n      pop\n      pop\n      jump\t// out\n\n    auxdata: 0xa264697066735822122078577dbc1838435ab56da670fbdc609972263f36449a1a5b548c5703eebac0e764736f6c634300081a0033\n}\n",
				"bytecode": {
					"linkReferences": {},
					"object": "608060405234801561000f575f80fd5b506100225f801b336100bb60201b60201c565b506100537f7c6181838a71a779e445600d4c6ecbe16bacf2b3c5bda69c29fada66d1b645d1336100bb60201b60201c565b506100847ffbd454f36a7e1a388bd6fc3ab10d434aa4578f811acbbcf33afb1c697486313c336100bb60201b60201c565b506100b57f2a5f906c256a5d799494fcd066e1f6c077689de1cdb65052a1624de4bace99bf336100bb60201b60201c565b5061021a565b5f6100cc83836101b060201b60201c565b6101a65760015f808581526020019081526020015f205f015f8473ffffffffffffffffffffffffffffffffffffffff1673ffffffffffffffffffffffffffffffffffffffff1681526020019081526020015f205f6101000a81548160ff02191690831515021790555061014361021360201b60201c565b73ffffffffffffffffffffffffffffffffffffffff168273ffffffffffffffffffffffffffffffffffffffff16847f2f8788117e7eff1d82e926ec794901d17c78024a50270940304540a733656f0d60405160405180910390a4600190506101aa565b5f90505b92915050565b5f805f8481526020019081526020015f205f015f8373ffffffffffffffffffffffffffffffffffffffff1673ffffffffffffffffffffffffffffffffffffffff1681526020019081526020015f205f9054906101000a900460ff16905092915050565b5f33905090565b611d29806102275f395ff3fe608060405234801561000f575f80fd5b50600436106100f3575f3560e01c8063a217fddf11610095578063d547741f11610064578063d547741f14610298578063e43059e5146102b4578063f0bd87cc146102d0578063f3943970146102ee576100f3565b8063a217fddf1461020d578063b7674cae1461022b578063b908f6b714610247578063b9db15b414610263576100f3565b80632f2ff15d116100d15780632f2ff15d1461017557806336568abe146101915780636897591c146101ad57806391d14854146101dd576100f3565b806301ffc9a7146100f75780632115e7bf14610127578063248a9ca314610145575b5f80fd5b610111600480360381019061010c9190611131565b61030c565b60405161011e9190611176565b60405180910390f35b61012f610385565b60405161013c91906111a7565b60405180910390f35b61015f600480360381019061015a91906111ea565b6103a9565b60405161016c91906111a7565b60405180910390f35b61018f600480360381019061018a919061126f565b6103c5565b005b6101ab60048036038101906101a6919061126f565b6103e7565b005b6101c760048036038101906101c291906112e0565b610462565b6040516101d49190611499565b60405180910390f35b6101f760048036038101906101f2919061126f565b610643565b6040516102049190611176565b60405180910390f35b6102156106a6565b60405161022291906111a7565b60405180910390f35b610245600480360381019061024091906115e5565b6106ac565b005b610261600480360381019061025c9190611697565b6107ef565b005b61027d600480360381019061027891906112e0565b61098a565b60405161028f96959493929190611799565b60405180910390f35b6102b260048036038101906102ad919061126f565b610be2565b005b6102ce60048036038101906102c99190611806565b610c04565b005b6102d8610dbc565b6040516102e591906111a7565b60405180910390f35b6102f6610de0565b60405161030391906111a7565b60405180910390f35b5f7f7965db0b000000000000000000000000000000000000000000000000000000007bffffffffffffffffffffffffffffffffffffffffffffffffffffffff1916827bffffffffffffffffffffffffffffffffffffffffffffffffffffffff1916148061037e575061037d82610e04565b5b9050919050565b7f2a5f906c256a5d799494fcd066e1f6c077689de1cdb65052a1624de4bace99bf81565b5f805f8381526020019081526020015f20600101549050919050565b6103ce826103a9565b6103d781610e6d565b6103e18383610e81565b50505050565b6103ef610f6a565b73ffffffffffffffffffffffffffffffffffffffff168173ffffffffffffffffffffffffffffffffffffffff1614610453576040517f6697b23200000000000000000000000000000000000000000000000000000000815260040160405180910390fd5b61045d8282610f71565b505050565b606061046e600361105a565b82106104af576040517f08c379a00000000000000000000000000000000000000000000000000000000081526004016104a69061188e565b60405180910390fd5b60025f8381526020019081526020015f20805480602002602001604051908101604052809291908181526020015f905b82821015610638578382905f5260205f2090600302016040518060600160405290815f8201805461050f906118d9565b80601f016020809104026020016040519081016040528092919081815260200182805461053b906118d9565b80156105865780601f1061055d57610100808354040283529160200191610586565b820191905f5260205f20905b81548152906001019060200180831161056957829003601f168201915b5050505050815260200160018201805461059f906118d9565b80601f01602080910402602001604051908101604052809291908181526020018280546105cb906118d9565b80156106165780601f106105ed57610100808354040283529160200191610616565b820191905f5260205f20905b8154815290600101906020018083116105f957829003601f168201915b50505050508152602001600282015481525050815260200190600101906104df565b505050509050919050565b5f805f8481526020019081526020015f205f015f8373ffffffffffffffffffffffffffffffffffffffff1673ffffffffffffffffffffffffffffffffffffffff1681526020019081526020015f205f9054906101000a900460ff16905092915050565b5f801b81565b7ffbd454f36a7e1a388bd6fc3ab10d434aa4578f811acbbcf33afb1c697486313c6106d681610e6d565b6106e0600361105a565b8410610721576040517f08c379a00000000000000000000000000000000000000000000000000000000081526004016107189061188e565b60405180910390fd5b5f604051806060016040528085815260200184815260200142815250905060025f8681526020019081526020015f2081908060018154018082558091505060019003905f5260205f2090600302015f909190919091505f820151815f01908161078a9190611aa6565b5060208201518160010190816107a09190611aa6565b506040820151816002015550507f3c9ab45bc35c51798846a8615bad9cf59e8ea4f876bb1bfba17807d6aba8ffd58585856040516107e093929190611b75565b60405180910390a15050505050565b7f7c6181838a71a779e445600d4c6ecbe16bacf2b3c5bda69c29fada66d1b645d161081981610e6d565b5f610824600361105a565b90506040518060c00160405280878152602001868152602001428152602001851515815260200184151581526020013373ffffffffffffffffffffffffffffffffffffffff1681525060015f8381526020019081526020015f205f820151815f0190816108919190611aa6565b5060208201518160010190816108a79190611aa6565b50604082015181600201556060820151816003015f6101000a81548160ff02191690831515021790555060808201518160030160016101000a81548160ff02191690831515021790555060a08201518160030160026101000a81548173ffffffffffffffffffffffffffffffffffffffff021916908373ffffffffffffffffffffffffffffffffffffffff1602179055509050506109456003611066565b7f5f1912a9c5f8a881e905d410b7f74013932df43b5dec69d074d965f102e19af88187873360405161097a9493929190611bb8565b60405180910390a1505050505050565b6060805f805f8061099b600361105a565b87106109dc576040517f08c379a00000000000000000000000000000000000000000000000000000000081526004016109d39061188e565b60405180910390fd5b5f60015f8981526020019081526020015f206040518060c00160405290815f82018054610a08906118d9565b80601f0160208091040260200160405190810160405280929190818152602001828054610a34906118d9565b8015610a7f5780601f10610a5657610100808354040283529160200191610a7f565b820191905f5260205f20905b815481529060010190602001808311610a6257829003601f168201915b50505050508152602001600182018054610a98906118d9565b80601f0160208091040260200160405190810160405280929190818152602001828054610ac4906118d9565b8015610b0f5780601f10610ae657610100808354040283529160200191610b0f565b820191905f5260205f20905b815481529060010190602001808311610af257829003601f168201915b5050505050815260200160028201548152602001600382015f9054906101000a900460ff161515151581526020016003820160019054906101000a900460ff161515151581526020016003820160029054906101000a900473ffffffffffffffffffffffffffffffffffffffff1673ffffffffffffffffffffffffffffffffffffffff1673ffffffffffffffffffffffffffffffffffffffff16815250509050805f015181602001518260400151836060015184608001518560a001519650965096509650965096505091939550919395565b610beb826103a9565b610bf481610e6d565b610bfe8383610f71565b50505050565b610c0e600361105a565b8210610c4f576040517f08c379a0000000000000000000000000000000000000000000000000000000008152600401610c469061188e565b60405180910390fd5b3373ffffffffffffffffffffffffffffffffffffffff1660015f8481526020019081526020015f2060030160029054906101000a900473ffffffffffffffffffffffffffffffffffffffff1673ffffffffffffffffffffffffffffffffffffffff1614610cf1576040517f08c379a0000000000000000000000000000000000000000000000000000000008152600401610ce890611c79565b60405180910390fd5b5f60015f8481526020019081526020015f2060030160029054906101000a900473ffffffffffffffffffffffffffffffffffffffff1690508160015f8581526020019081526020015f2060030160026101000a81548173ffffffffffffffffffffffffffffffffffffffff021916908373ffffffffffffffffffffffffffffffffffffffff1602179055507fcef86d37ba3dc1d682967cde44d8050488734bf53166725b220b4d2e515e9e93838284604051610daf93929190611c97565b60405180910390a1505050565b7ffbd454f36a7e1a388bd6fc3ab10d434aa4578f811acbbcf33afb1c697486313c81565b7f7c6181838a71a779e445600d4c6ecbe16bacf2b3c5bda69c29fada66d1b645d181565b5f7f01ffc9a7000000000000000000000000000000000000000000000000000000007bffffffffffffffffffffffffffffffffffffffffffffffffffffffff1916827bffffffffffffffffffffffffffffffffffffffffffffffffffffffff1916149050919050565b610e7e81610e79610f6a565b61107a565b50565b5f610e8c8383610643565b610f605760015f808581526020019081526020015f205f015f8473ffffffffffffffffffffffffffffffffffffffff1673ffffffffffffffffffffffffffffffffffffffff1681526020019081526020015f205f6101000a81548160ff021916908315150217905550610efd610f6a565b73ffffffffffffffffffffffffffffffffffffffff168273ffffffffffffffffffffffffffffffffffffffff16847f2f8788117e7eff1d82e926ec794901d17c78024a50270940304540a733656f0d60405160405180910390a460019050610f64565b5f90505b92915050565b5f33905090565b5f610f7c8383610643565b15611050575f805f8581526020019081526020015f205f015f8473ffffffffffffffffffffffffffffffffffffffff1673ffffffffffffffffffffffffffffffffffffffff1681526020019081526020015f205f6101000a81548160ff021916908315150217905550610fed610f6a565b73ffffffffffffffffffffffffffffffffffffffff168273ffffffffffffffffffffffffffffffffffffffff16847ff6391f5c32d9c69d2a47ea670b442974b53935d1edc7fd64eb21e047a839171b60405160405180910390a460019050611054565b5f90505b92915050565b5f815f01549050919050565b6001815f015f828254019250508190555050565b6110848282610643565b6110c75780826040517fe2517d3f0000000000000000000000000000000000000000000000000000000081526004016110be929190611ccc565b60405180910390fd5b5050565b5f604051905090565b5f80fd5b5f80fd5b5f7fffffffff0000000000000000000000000000000000000000000000000000000082169050919050565b611110816110dc565b811461111a575f80fd5b50565b5f8135905061112b81611107565b92915050565b5f60208284031215611146576111456110d4565b5b5f6111538482850161111d565b91505092915050565b5f8115159050919050565b6111708161115c565b82525050565b5f6020820190506111895f830184611167565b92915050565b5f819050919050565b6111a18161118f565b82525050565b5f6020820190506111ba5f830184611198565b92915050565b6111c98161118f565b81146111d3575f80fd5b50565b5f813590506111e4816111c0565b92915050565b5f602082840312156111ff576111fe6110d4565b5b5f61120c848285016111d6565b91505092915050565b5f73ffffffffffffffffffffffffffffffffffffffff82169050919050565b5f61123e82611215565b9050919050565b61124e81611234565b8114611258575f80fd5b50565b5f8135905061126981611245565b92915050565b5f8060408385031215611285576112846110d4565b5b5f611292858286016111d6565b92505060206112a38582860161125b565b9150509250929050565b5f819050919050565b6112bf816112ad565b81146112c9575f80fd5b50565b5f813590506112da816112b6565b92915050565b5f602082840312156112f5576112f46110d4565b5b5f611302848285016112cc565b91505092915050565b5f81519050919050565b5f82825260208201905092915050565b5f819050602082019050919050565b5f81519050919050565b5f82825260208201905092915050565b8281835e5f83830152505050565b5f601f19601f8301169050919050565b5f61137682611334565b611380818561133e565b935061139081856020860161134e565b6113998161135c565b840191505092915050565b6113ad816112ad565b82525050565b5f606083015f8301518482035f8601526113cd828261136c565b915050602083015184820360208601526113e7828261136c565b91505060408301516113fc60408601826113a4565b508091505092915050565b5f61141283836113b3565b905092915050565b5f602082019050919050565b5f6114308261130b565b61143a8185611315565b93508360208202850161144c85611325565b805f5b8581101561148757848403895281516114688582611407565b94506114738361141a565b925060208a0199505060018101905061144f565b50829750879550505050505092915050565b5f6020820190508181035f8301526114b18184611426565b905092915050565b5f80fd5b5f80fd5b7f4e487b71000000000000000000000000000000000000000000000000000000005f52604160045260245ffd5b6114f78261135c565b810181811067ffffffffffffffff82111715611516576115156114c1565b5b80604052505050565b5f6115286110cb565b905061153482826114ee565b919050565b5f67ffffffffffffffff821115611553576115526114c1565b5b61155c8261135c565b9050602081019050919050565b828183375f83830152505050565b5f61158961158484611539565b61151f565b9050828152602081018484840111156115a5576115a46114bd565b5b6115b0848285611569565b509392505050565b5f82601f8301126115cc576115cb6114b9565b5b81356115dc848260208601611577565b91505092915050565b5f805f606084860312156115fc576115fb6110d4565b5b5f611609868287016112cc565b935050602084013567ffffffffffffffff81111561162a576116296110d8565b5b611636868287016115b8565b925050604084013567ffffffffffffffff811115611657576116566110d8565b5b611663868287016115b8565b9150509250925092565b6116768161115c565b8114611680575f80fd5b50565b5f813590506116918161166d565b92915050565b5f805f80608085870312156116af576116ae6110d4565b5b5f85013567ffffffffffffffff8111156116cc576116cb6110d8565b5b6116d8878288016115b8565b945050602085013567ffffffffffffffff8111156116f9576116f86110d8565b5b611705878288016115b8565b935050604061171687828801611683565b925050606061172787828801611683565b91505092959194509250565b5f82825260208201905092915050565b5f61174d82611334565b6117578185611733565b935061176781856020860161134e565b6117708161135c565b840191505092915050565b611784816112ad565b82525050565b61179381611234565b82525050565b5f60c0820190508181035f8301526117b18189611743565b905081810360208301526117c58188611743565b90506117d4604083018761177b565b6117e16060830186611167565b6117ee6080830185611167565b6117fb60a083018461178a565b979650505050505050565b5f806040838503121561181c5761181b6110d4565b5b5f611829858286016112cc565b925050602061183a8582860161125b565b9150509250929050565b7f50726f6475637420646f6573206e6f742065786973742e0000000000000000005f82015250565b5f611878601783611733565b915061188382611844565b602082019050919050565b5f6020820190508181035f8301526118a58161186c565b9050919050565b7f4e487b71000000000000000000000000000000000000000000000000000000005f52602260045260245ffd5b5f60028204905060018216806118f057607f821691505b602082108103611903576119026118ac565b5b50919050565b5f819050815f5260205f209050919050565b5f6020601f8301049050919050565b5f82821b905092915050565b5f600883026119657fffffffffffffffffffffffffffffffffffffffffffffffffffffffffffffffff8261192a565b61196f868361192a565b95508019841693508086168417925050509392505050565b5f819050919050565b5f6119aa6119a56119a0846112ad565b611987565b6112ad565b9050919050565b5f819050919050565b6119c383611990565b6119d76119cf826119b1565b848454611936565b825550505050565b5f90565b6119eb6119df565b6119f68184846119ba565b505050565b5b81811015611a1957611a0e5f826119e3565b6001810190506119fc565b5050565b601f821115611a5e57611a2f81611909565b611a388461191b565b81016020851015611a47578190505b611a5b611a538561191b565b8301826119fb565b50505b505050565b5f82821c905092915050565b5f611a7e5f1984600802611a63565b1980831691505092915050565b5f611a968383611a6f565b9150826002028217905092915050565b611aaf82611334565b67ffffffffffffffff811115611ac857611ac76114c1565b5b611ad282546118d9565b611add828285611a1d565b5f60209050601f831160018114611b0e575f8415611afc578287015190505b611b068582611a8b565b865550611b6d565b601f198416611b1c86611909565b5f5b82811015611b4357848901518255600182019150602085019450602081019050611b1e565b86831015611b605784890151611b5c601f891682611a6f565b8355505b6001600288020188555050505b505050505050565b5f606082019050611b885f83018661177b565b8181036020830152611b9a8185611743565b90508181036040830152611bae8184611743565b9050949350505050565b5f608082019050611bcb5f83018761177b565b8181036020830152611bdd8186611743565b90508181036040830152611bf18185611743565b9050611c00606083018461178a565b95945050505050565b7f4f6e6c79207468652063757272656e74206f776e65722063616e207472616e735f8201527f666572207468652070726f647563742e00000000000000000000000000000000602082015250565b5f611c63603083611733565b9150611c6e82611c09565b604082019050919050565b5f6020820190508181035f830152611c9081611c57565b9050919050565b5f606082019050611caa5f83018661177b565b611cb7602083018561178a565b611cc4604083018461178a565b949350505050565b5f604082019050611cdf5f83018561178a565b611cec6020830184611198565b939250505056fea264697066735822122078577dbc1838435ab56da670fbdc609972263f36449a1a5b548c5703eebac0e764736f6c634300081a0033",
					"opcodes": "PUSH1 0x80 PUSH1 0x40 MSTORE CALLVALUE DUP1 ISZERO PUSH2 0xF JUMPI PUSH0 DUP1 REVERT JUMPDEST POP PUSH2 0x22 PUSH0 DUP1 SHL CALLER PUSH2 0xBB PUSH1 0x20 SHL PUSH1 0x20 SHR JUMP JUMPDEST POP PUSH2 0x53 PUSH32 0x7C6181838A71A779E445600D4C6ECBE16BACF2B3C5BDA69C29FADA66D1B645D1 CALLER PUSH2 0xBB PUSH1 0x20 SHL PUSH1 0x20 SHR JUMP JUMPDEST POP PUSH2 0x84 PUSH32 0xFBD454F36A7E1A388BD6FC3AB10D434AA4578F811ACBBCF33AFB1C697486313C CALLER PUSH2 0xBB PUSH1 0x20 SHL PUSH1 0x20 SHR JUMP JUMPDEST POP PUSH2 0xB5 PUSH32 0x2A5F906C256A5D799494FCD066E1F6C077689DE1CDB65052A1624DE4BACE99BF CALLER PUSH2 0xBB PUSH1 0x20 SHL PUSH1 0x20 SHR JUMP JUMPDEST POP PUSH2 0x21A JUMP JUMPDEST PUSH0 PUSH2 0xCC DUP4 DUP4 PUSH2 0x1B0 PUSH1 0x20 SHL PUSH1 0x20 SHR JUMP JUMPDEST PUSH2 0x1A6 JUMPI PUSH1 0x1 PUSH0 DUP1 DUP6 DUP2 MSTORE PUSH1 0x20 ADD SWAP1 DUP2 MSTORE PUSH1 0x20 ADD PUSH0 KECCAK256 PUSH0 ADD PUSH0 DUP5 PUSH20 0xFFFFFFFFFFFFFFFFFFFFFFFFFFFFFFFFFFFFFFFF AND PUSH20 0xFFFFFFFFFFFFFFFFFFFFFFFFFFFFFFFFFFFFFFFF AND DUP2 MSTORE PUSH1 0x20 ADD SWAP1 DUP2 MSTORE PUSH1 0x20 ADD PUSH0 KECCAK256 PUSH0 PUSH2 0x100 EXP DUP2 SLOAD DUP2 PUSH1 0xFF MUL NOT AND SWAP1 DUP4 ISZERO ISZERO MUL OR SWAP1 SSTORE POP PUSH2 0x143 PUSH2 0x213 PUSH1 0x20 SHL PUSH1 0x20 SHR JUMP JUMPDEST PUSH20 0xFFFFFFFFFFFFFFFFFFFFFFFFFFFFFFFFFFFFFFFF AND DUP3 PUSH20 0xFFFFFFFFFFFFFFFFFFFFFFFFFFFFFFFFFFFFFFFF AND DUP5 PUSH32 0x2F8788117E7EFF1D82E926EC794901D17C78024A50270940304540A733656F0D PUSH1 0x40 MLOAD PUSH1 0x40 MLOAD DUP1 SWAP2 SUB SWAP1 LOG4 PUSH1 0x1 SWAP1 POP PUSH2 0x1AA JUMP JUMPDEST PUSH0 SWAP1 POP JUMPDEST SWAP3 SWAP2 POP POP JUMP JUMPDEST PUSH0 DUP1 PUSH0 DUP5 DUP2 MSTORE PUSH1 0x20 ADD SWAP1 DUP2 MSTORE PUSH1 0x20 ADD PUSH0 KECCAK256 PUSH0 ADD PUSH0 DUP4 PUSH20 0xFFFFFFFFFFFFFFFFFFFFFFFFFFFFFFFFFFFFFFFF AND PUSH20 0xFFFFFFFFFFFFFFFFFFFFFFFFFFFFFFFFFFFFFFFF AND DUP2 MSTORE PUSH1 0x20 ADD SWAP1 DUP2 MSTORE PUSH1 0x20 ADD PUSH0 KECCAK256 PUSH0 SWAP1 SLOAD SWAP1 PUSH2 0x100 EXP SWAP1 DIV PUSH1 0xFF AND SWAP1 POP SWAP3 SWAP2 POP POP JUMP JUMPDEST PUSH0 CALLER SWAP1 POP SWAP1 JUMP JUMPDEST PUSH2 0x1D29 DUP1 PUSH2 0x227 PUSH0 CODECOPY PUSH0 RETURN INVALID PUSH1 0x80 PUSH1 0x40 MSTORE CALLVALUE DUP1 ISZERO PUSH2 0xF JUMPI PUSH0 DUP1 REVERT JUMPDEST POP PUSH1 0x4 CALLDATASIZE LT PUSH2 0xF3 JUMPI PUSH0 CALLDATALOAD PUSH1 0xE0 SHR DUP1 PUSH4 0xA217FDDF GT PUSH2 0x95 JUMPI DUP1 PUSH4 0xD547741F GT PUSH2 0x64 JUMPI DUP1 PUSH4 0xD547741F EQ PUSH2 0x298 JUMPI DUP1 PUSH4 0xE43059E5 EQ PUSH2 0x2B4 JUMPI DUP1 PUSH4 0xF0BD87CC EQ PUSH2 0x2D0 JUMPI DUP1 PUSH4 0xF3943970 EQ PUSH2 0x2EE JUMPI PUSH2 0xF3 JUMP JUMPDEST DUP1 PUSH4 0xA217FDDF EQ PUSH2 0x20D JUMPI DUP1 PUSH4 0xB7674CAE EQ PUSH2 0x22B JUMPI DUP1 PUSH4 0xB908F6B7 EQ PUSH2 0x247 JUMPI DUP1 PUSH4 0xB9DB15B4 EQ PUSH2 0x263 JUMPI PUSH2 0xF3 JUMP JUMPDEST DUP1 PUSH4 0x2F2FF15D GT PUSH2 0xD1 JUMPI DUP1 PUSH4 0x2F2FF15D EQ PUSH2 0x175 JUMPI DUP1 PUSH4 0x36568ABE EQ PUSH2 0x191 JUMPI DUP1 PUSH4 0x6897591C EQ PUSH2 0x1AD JUMPI DUP1 PUSH4 0x91D14854 EQ PUSH2 0x1DD JUMPI PUSH2 0xF3 JUMP JUMPDEST DUP1 PUSH4 0x1FFC9A7 EQ PUSH2 0xF7 JUMPI DUP1 PUSH4 0x2115E7BF EQ PUSH2 0x127 JUMPI DUP1 PUSH4 0x248A9CA3 EQ PUSH2 0x145 JUMPI JUMPDEST PUSH0 DUP1 REVERT JUMPDEST PUSH2 0x111 PUSH1 0x4 DUP1 CALLDATASIZE SUB DUP2 ADD SWAP1 PUSH2 0x10C SWAP2 SWAP1 PUSH2 0x1131 JUMP JUMPDEST PUSH2 0x30C JUMP JUMPDEST PUSH1 0x40 MLOAD PUSH2 0x11E SWAP2 SWAP1 PUSH2 0x1176 JUMP JUMPDEST PUSH1 0x40 MLOAD DUP1 SWAP2 SUB SWAP1 RETURN JUMPDEST PUSH2 0x12F PUSH2 0x385 JUMP JUMPDEST PUSH1 0x40 MLOAD PUSH2 0x13C SWAP2 SWAP1 PUSH2 0x11A7 JUMP JUMPDEST PUSH1 0x40 MLOAD DUP1 SWAP2 SUB SWAP1 RETURN JUMPDEST PUSH2 0x15F PUSH1 0x4 DUP1 CALLDATASIZE SUB DUP2 ADD SWAP1 PUSH2 0x15A SWAP2 SWAP1 PUSH2 0x11EA JUMP JUMPDEST PUSH2 0x3A9 JUMP JUMPDEST PUSH1 0x40 MLOAD PUSH2 0x16C SWAP2 SWAP1 PUSH2 0x11A7 JUMP JUMPDEST PUSH1 0x40 MLOAD DUP1 SWAP2 SUB SWAP1 RETURN JUMPDEST PUSH2 0x18F PUSH1 0x4 DUP1 CALLDATASIZE SUB DUP2 ADD SWAP1 PUSH2 0x18A SWAP2 SWAP1 PUSH2 0x126F JUMP JUMPDEST PUSH2 0x3C5 JUMP JUMPDEST STOP JUMPDEST PUSH2 0x1AB PUSH1 0x4 DUP1 CALLDATASIZE SUB DUP2 ADD SWAP1 PUSH2 0x1A6 SWAP2 SWAP1 PUSH2 0x126F JUMP JUMPDEST PUSH2 0x3E7 JUMP JUMPDEST STOP JUMPDEST PUSH2 0x1C7 PUSH1 0x4 DUP1 CALLDATASIZE SUB DUP2 ADD SWAP1 PUSH2 0x1C2 SWAP2 SWAP1 PUSH2 0x12E0 JUMP JUMPDEST PUSH2 0x462 JUMP JUMPDEST PUSH1 0x40 MLOAD PUSH2 0x1D4 SWAP2 SWAP1 PUSH2 0x1499 JUMP JUMPDEST PUSH1 0x40 MLOAD DUP1 SWAP2 SUB SWAP1 RETURN JUMPDEST PUSH2 0x1F7 PUSH1 0x4 DUP1 CALLDATASIZE SUB DUP2 ADD SWAP1 PUSH2 0x1F2 SWAP2 SWAP1 PUSH2 0x126F JUMP JUMPDEST PUSH2 0x643 JUMP JUMPDEST PUSH1 0x40 MLOAD PUSH2 0x204 SWAP2 SWAP1 PUSH2 0x1176 JUMP JUMPDEST PUSH1 0x40 MLOAD DUP1 SWAP2 SUB SWAP1 RETURN JUMPDEST PUSH2 0x215 PUSH2 0x6A6 JUMP JUMPDEST PUSH1 0x40 MLOAD PUSH2 0x222 SWAP2 SWAP1 PUSH2 0x11A7 JUMP JUMPDEST PUSH1 0x40 MLOAD DUP1 SWAP2 SUB SWAP1 RETURN JUMPDEST PUSH2 0x245 PUSH1 0x4 DUP1 CALLDATASIZE SUB DUP2 ADD SWAP1 PUSH2 0x240 SWAP2 SWAP1 PUSH2 0x15E5 JUMP JUMPDEST PUSH2 0x6AC JUMP JUMPDEST STOP JUMPDEST PUSH2 0x261 PUSH1 0x4 DUP1 CALLDATASIZE SUB DUP2 ADD SWAP1 PUSH2 0x25C SWAP2 SWAP1 PUSH2 0x1697 JUMP JUMPDEST PUSH2 0x7EF JUMP JUMPDEST STOP JUMPDEST PUSH2 0x27D PUSH1 0x4 DUP1 CALLDATASIZE SUB DUP2 ADD SWAP1 PUSH2 0x278 SWAP2 SWAP1 PUSH2 0x12E0 JUMP JUMPDEST PUSH2 0x98A JUMP JUMPDEST PUSH1 0x40 MLOAD PUSH2 0x28F SWAP7 SWAP6 SWAP5 SWAP4 SWAP3 SWAP2 SWAP1 PUSH2 0x1799 JUMP JUMPDEST PUSH1 0x40 MLOAD DUP1 SWAP2 SUB SWAP1 RETURN JUMPDEST PUSH2 0x2B2 PUSH1 0x4 DUP1 CALLDATASIZE SUB DUP2 ADD SWAP1 PUSH2 0x2AD SWAP2 SWAP1 PUSH2 0x126F JUMP JUMPDEST PUSH2 0xBE2 JUMP JUMPDEST STOP JUMPDEST PUSH2 0x2CE PUSH1 0x4 DUP1 CALLDATASIZE SUB DUP2 ADD SWAP1 PUSH2 0x2C9 SWAP2 SWAP1 PUSH2 0x1806 JUMP JUMPDEST PUSH2 0xC04 JUMP JUMPDEST STOP JUMPDEST PUSH2 0x2D8 PUSH2 0xDBC JUMP JUMPDEST PUSH1 0x40 MLOAD PUSH2 0x2E5 SWAP2 SWAP1 PUSH2 0x11A7 JUMP JUMPDEST PUSH1 0x40 MLOAD DUP1 SWAP2 SUB SWAP1 RETURN JUMPDEST PUSH2 0x2F6 PUSH2 0xDE0 JUMP JUMPDEST PUSH1 0x40 MLOAD PUSH2 0x303 SWAP2 SWAP1 PUSH2 0x11A7 JUMP JUMPDEST PUSH1 0x40 MLOAD DUP1 SWAP2 SUB SWAP1 RETURN JUMPDEST PUSH0 PUSH32 0x7965DB0B00000000000000000000000000000000000000000000000000000000 PUSH28 0xFFFFFFFFFFFFFFFFFFFFFFFFFFFFFFFFFFFFFFFFFFFFFFFFFFFFFFFF NOT AND DUP3 PUSH28 0xFFFFFFFFFFFFFFFFFFFFFFFFFFFFFFFFFFFFFFFFFFFFFFFFFFFFFFFF NOT AND EQ DUP1 PUSH2 0x37E JUMPI POP PUSH2 0x37D DUP3 PUSH2 0xE04 JUMP JUMPDEST JUMPDEST SWAP1 POP SWAP2 SWAP1 POP JUMP JUMPDEST PUSH32 0x2A5F906C256A5D799494FCD066E1F6C077689DE1CDB65052A1624DE4BACE99BF DUP2 JUMP JUMPDEST PUSH0 DUP1 PUSH0 DUP4 DUP2 MSTORE PUSH1 0x20 ADD SWAP1 DUP2 MSTORE PUSH1 0x20 ADD PUSH0 KECCAK256 PUSH1 0x1 ADD SLOAD SWAP1 POP SWAP2 SWAP1 POP JUMP JUMPDEST PUSH2 0x3CE DUP3 PUSH2 0x3A9 JUMP JUMPDEST PUSH2 0x3D7 DUP2 PUSH2 0xE6D JUMP JUMPDEST PUSH2 0x3E1 DUP4 DUP4 PUSH2 0xE81 JUMP JUMPDEST POP POP POP POP JUMP JUMPDEST PUSH2 0x3EF PUSH2 0xF6A JUMP JUMPDEST PUSH20 0xFFFFFFFFFFFFFFFFFFFFFFFFFFFFFFFFFFFFFFFF AND DUP2 PUSH20 0xFFFFFFFFFFFFFFFFFFFFFFFFFFFFFFFFFFFFFFFF AND EQ PUSH2 0x453 JUMPI PUSH1 0x40 MLOAD PUSH32 0x6697B23200000000000000000000000000000000000000000000000000000000 DUP2 MSTORE PUSH1 0x4 ADD PUSH1 0x40 MLOAD DUP1 SWAP2 SUB SWAP1 REVERT JUMPDEST PUSH2 0x45D DUP3 DUP3 PUSH2 0xF71 JUMP JUMPDEST POP POP POP JUMP JUMPDEST PUSH1 0x60 PUSH2 0x46E PUSH1 0x3 PUSH2 0x105A JUMP JUMPDEST DUP3 LT PUSH2 0x4AF JUMPI PUSH1 0x40 MLOAD PUSH32 0x8C379A000000000000000000000000000000000000000000000000000000000 DUP2 MSTORE PUSH1 0x4 ADD PUSH2 0x4A6 SWAP1 PUSH2 0x188E JUMP JUMPDEST PUSH1 0x40 MLOAD DUP1 SWAP2 SUB SWAP1 REVERT JUMPDEST PUSH1 0x2 PUSH0 DUP4 DUP2 MSTORE PUSH1 0x20 ADD SWAP1 DUP2 MSTORE PUSH1 0x20 ADD PUSH0 KECCAK256 DUP1 SLOAD DUP1 PUSH1 0x20 MUL PUSH1 0x20 ADD PUSH1 0x40 MLOAD SWAP1 DUP2 ADD PUSH1 0x40 MSTORE DUP1 SWAP3 SWAP2 SWAP1 DUP2 DUP2 MSTORE PUSH1 0x20 ADD PUSH0 SWAP1 JUMPDEST DUP3 DUP3 LT ISZERO PUSH2 0x638 JUMPI DUP4 DUP3 SWAP1 PUSH0 MSTORE PUSH1 0x20 PUSH0 KECCAK256 SWAP1 PUSH1 0x3 MUL ADD PUSH1 0x40 MLOAD DUP1 PUSH1 0x60 ADD PUSH1 0x40 MSTORE SWAP1 DUP2 PUSH0 DUP3 ADD DUP1 SLOAD PUSH2 0x50F SWAP1 PUSH2 0x18D9 JUMP JUMPDEST DUP1 PUSH1 0x1F ADD PUSH1 0x20 DUP1 SWAP2 DIV MUL PUSH1 0x20 ADD PUSH1 0x40 MLOAD SWAP1 DUP2 ADD PUSH1 0x40 MSTORE DUP1 SWAP3 SWAP2 SWAP1 DUP2 DUP2 MSTORE PUSH1 0x20 ADD DUP3 DUP1 SLOAD PUSH2 0x53B SWAP1 PUSH2 0x18D9 JUMP JUMPDEST DUP1 ISZERO PUSH2 0x586 JUMPI DUP1 PUSH1 0x1F LT PUSH2 0x55D JUMPI PUSH2 0x100 DUP1 DUP4 SLOAD DIV MUL DUP4 MSTORE SWAP2 PUSH1 0x20 ADD SWAP2 PUSH2 0x586 JUMP JUMPDEST DUP3 ADD SWAP2 SWAP1 PUSH0 MSTORE PUSH1 0x20 PUSH0 KECCAK256 SWAP1 JUMPDEST DUP2 SLOAD DUP2 MSTORE SWAP1 PUSH1 0x1 ADD SWAP1 PUSH1 0x20 ADD DUP1 DUP4 GT PUSH2 0x569 JUMPI DUP3 SWAP1 SUB PUSH1 0x1F AND DUP3 ADD SWAP2 JUMPDEST POP POP POP POP POP DUP2 MSTORE PUSH1 0x20 ADD PUSH1 0x1 DUP3 ADD DUP1 SLOAD PUSH2 0x59F SWAP1 PUSH2 0x18D9 JUMP JUMPDEST DUP1 PUSH1 0x1F ADD PUSH1 0x20 DUP1 SWAP2 DIV MUL PUSH1 0x20 ADD PUSH1 0x40 MLOAD SWAP1 DUP2 ADD PUSH1 0x40 MSTORE DUP1 SWAP3 SWAP2 SWAP1 DUP2 DUP2 MSTORE PUSH1 0x20 ADD DUP3 DUP1 SLOAD PUSH2 0x5CB SWAP1 PUSH2 0x18D9 JUMP JUMPDEST DUP1 ISZERO PUSH2 0x616 JUMPI DUP1 PUSH1 0x1F LT PUSH2 0x5ED JUMPI PUSH2 0x100 DUP1 DUP4 SLOAD DIV MUL DUP4 MSTORE SWAP2 PUSH1 0x20 ADD SWAP2 PUSH2 0x616 JUMP JUMPDEST DUP3 ADD SWAP2 SWAP1 PUSH0 MSTORE PUSH1 0x20 PUSH0 KECCAK256 SWAP1 JUMPDEST DUP2 SLOAD DUP2 MSTORE SWAP1 PUSH1 0x1 ADD SWAP1 PUSH1 0x20 ADD DUP1 DUP4 GT PUSH2 0x5F9 JUMPI DUP3 SWAP1 SUB PUSH1 0x1F AND DUP3 ADD SWAP2 JUMPDEST POP POP POP POP POP DUP2 MSTORE PUSH1 0x20 ADD PUSH1 0x2 DUP3 ADD SLOAD DUP2 MSTORE POP POP DUP2 MSTORE PUSH1 0x20 ADD SWAP1 PUSH1 0x1 ADD SWAP1 PUSH2 0x4DF JUMP JUMPDEST POP POP POP POP SWAP1 POP SWAP2 SWAP1 POP JUMP JUMPDEST PUSH0 DUP1 PUSH0 DUP5 DUP2 MSTORE PUSH1 0x20 ADD SWAP1 DUP2 MSTORE PUSH1 0x20 ADD PUSH0 KECCAK256 PUSH0 ADD PUSH0 DUP4 PUSH20 0xFFFFFFFFFFFFFFFFFFFFFFFFFFFFFFFFFFFFFFFF AND PUSH20 0xFFFFFFFFFFFFFFFFFFFFFFFFFFFFFFFFFFFFFFFF AND DUP2 MSTORE PUSH1 0x20 ADD SWAP1 DUP2 MSTORE PUSH1 0x20 ADD PUSH0 KECCAK256 PUSH0 SWAP1 SLOAD SWAP1 PUSH2 0x100 EXP SWAP1 DIV PUSH1 0xFF AND SWAP1 POP SWAP3 SWAP2 POP POP JUMP JUMPDEST PUSH0 DUP1 SHL DUP2 JUMP JUMPDEST PUSH32 0xFBD454F36A7E1A388BD6FC3AB10D434AA4578F811ACBBCF33AFB1C697486313C PUSH2 0x6D6 DUP2 PUSH2 0xE6D JUMP JUMPDEST PUSH2 0x6E0 PUSH1 0x3 PUSH2 0x105A JUMP JUMPDEST DUP5 LT PUSH2 0x721 JUMPI PUSH1 0x40 MLOAD PUSH32 0x8C379A000000000000000000000000000000000000000000000000000000000 DUP2 MSTORE PUSH1 0x4 ADD PUSH2 0x718 SWAP1 PUSH2 0x188E JUMP JUMPDEST PUSH1 0x40 MLOAD DUP1 SWAP2 SUB SWAP1 REVERT JUMPDEST PUSH0 PUSH1 0x40 MLOAD DUP1 PUSH1 0x60 ADD PUSH1 0x40 MSTORE DUP1 DUP6 DUP2 MSTORE PUSH1 0x20 ADD DUP5 DUP2 MSTORE PUSH1 0x20 ADD TIMESTAMP DUP2 MSTORE POP SWAP1 POP PUSH1 0x2 PUSH0 DUP7 DUP2 MSTORE PUSH1 0x20 ADD SWAP1 DUP2 MSTORE PUSH1 0x20 ADD PUSH0 KECCAK256 DUP2 SWAP1 DUP1 PUSH1 0x1 DUP2 SLOAD ADD DUP1 DUP3 SSTORE DUP1 SWAP2 POP POP PUSH1 0x1 SWAP1 SUB SWAP1 PUSH0 MSTORE PUSH1 0x20 PUSH0 KECCAK256 SWAP1 PUSH1 0x3 MUL ADD PUSH0 SWAP1 SWAP2 SWAP1 SWAP2 SWAP1 SWAP2 POP PUSH0 DUP3 ADD MLOAD DUP2 PUSH0 ADD SWAP1 DUP2 PUSH2 0x78A SWAP2 SWAP1 PUSH2 0x1AA6 JUMP JUMPDEST POP PUSH1 0x20 DUP3 ADD MLOAD DUP2 PUSH1 0x1 ADD SWAP1 DUP2 PUSH2 0x7A0 SWAP2 SWAP1 PUSH2 0x1AA6 JUMP JUMPDEST POP PUSH1 0x40 DUP3 ADD MLOAD DUP2 PUSH1 0x2 ADD SSTORE POP POP PUSH32 0x3C9AB45BC35C51798846A8615BAD9CF59E8EA4F876BB1BFBA17807D6ABA8FFD5 DUP6 DUP6 DUP6 PUSH1 0x40 MLOAD PUSH2 0x7E0 SWAP4 SWAP3 SWAP2 SWAP1 PUSH2 0x1B75 JUMP JUMPDEST PUSH1 0x40 MLOAD DUP1 SWAP2 SUB SWAP1 LOG1 POP POP POP POP POP JUMP JUMPDEST PUSH32 0x7C6181838A71A779E445600D4C6ECBE16BACF2B3C5BDA69C29FADA66D1B645D1 PUSH2 0x819 DUP2 PUSH2 0xE6D JUMP JUMPDEST PUSH0 PUSH2 0x824 PUSH1 0x3 PUSH2 0x105A JUMP JUMPDEST SWAP1 POP PUSH1 0x40 MLOAD DUP1 PUSH1 0xC0 ADD PUSH1 0x40 MSTORE DUP1 DUP8 DUP2 MSTORE PUSH1 0x20 ADD DUP7 DUP2 MSTORE PUSH1 0x20 ADD TIMESTAMP DUP2 MSTORE PUSH1 0x20 ADD DUP6 ISZERO ISZERO DUP2 MSTORE PUSH1 0x20 ADD DUP5 ISZERO ISZERO DUP2 MSTORE PUSH1 0x20 ADD CALLER PUSH20 0xFFFFFFFFFFFFFFFFFFFFFFFFFFFFFFFFFFFFFFFF AND DUP2 MSTORE POP PUSH1 0x1 PUSH0 DUP4 DUP2 MSTORE PUSH1 0x20 ADD SWAP1 DUP2 MSTORE PUSH1 0x20 ADD PUSH0 KECCAK256 PUSH0 DUP3 ADD MLOAD DUP2 PUSH0 ADD SWAP1 DUP2 PUSH2 0x891 SWAP2 SWAP1 PUSH2 0x1AA6 JUMP JUMPDEST POP PUSH1 0x20 DUP3 ADD MLOAD DUP2 PUSH1 0x1 ADD SWAP1 DUP2 PUSH2 0x8A7 SWAP2 SWAP1 PUSH2 0x1AA6 JUMP JUMPDEST POP PUSH1 0x40 DUP3 ADD MLOAD DUP2 PUSH1 0x2 ADD SSTORE PUSH1 0x60 DUP3 ADD MLOAD DUP2 PUSH1 0x3 ADD PUSH0 PUSH2 0x100 EXP DUP2 SLOAD DUP2 PUSH1 0xFF MUL NOT AND SWAP1 DUP4 ISZERO ISZERO MUL OR SWAP1 SSTORE POP PUSH1 0x80 DUP3 ADD MLOAD DUP2 PUSH1 0x3 ADD PUSH1 0x1 PUSH2 0x100 EXP DUP2 SLOAD DUP2 PUSH1 0xFF MUL NOT AND SWAP1 DUP4 ISZERO ISZERO MUL OR SWAP1 SSTORE POP PUSH1 0xA0 DUP3 ADD MLOAD DUP2 PUSH1 0x3 ADD PUSH1 0x2 PUSH2 0x100 EXP DUP2 SLOAD DUP2 PUSH20 0xFFFFFFFFFFFFFFFFFFFFFFFFFFFFFFFFFFFFFFFF MUL NOT AND SWAP1 DUP4 PUSH20 0xFFFFFFFFFFFFFFFFFFFFFFFFFFFFFFFFFFFFFFFF AND MUL OR SWAP1 SSTORE POP SWAP1 POP POP PUSH2 0x945 PUSH1 0x3 PUSH2 0x1066 JUMP JUMPDEST PUSH32 0x5F1912A9C5F8A881E905D410B7F74013932DF43B5DEC69D074D965F102E19AF8 DUP2 DUP8 DUP8 CALLER PUSH1 0x40 MLOAD PUSH2 0x97A SWAP5 SWAP4 SWAP3 SWAP2 SWAP1 PUSH2 0x1BB8 JUMP JUMPDEST PUSH1 0x40 MLOAD DUP1 SWAP2 SUB SWAP1 LOG1 POP POP POP POP POP POP JUMP JUMPDEST PUSH1 0x60 DUP1 PUSH0 DUP1 PUSH0 DUP1 PUSH2 0x99B PUSH1 0x3 PUSH2 0x105A JUMP JUMPDEST DUP8 LT PUSH2 0x9DC JUMPI PUSH1 0x40 MLOAD PUSH32 0x8C379A000000000000000000000000000000000000000000000000000000000 DUP2 MSTORE PUSH1 0x4 ADD PUSH2 0x9D3 SWAP1 PUSH2 0x188E JUMP JUMPDEST PUSH1 0x40 MLOAD DUP1 SWAP2 SUB SWAP1 REVERT JUMPDEST PUSH0 PUSH1 0x1 PUSH0 DUP10 DUP2 MSTORE PUSH1 0x20 ADD SWAP1 DUP2 MSTORE PUSH1 0x20 ADD PUSH0 KECCAK256 PUSH1 0x40 MLOAD DUP1 PUSH1 0xC0 ADD PUSH1 0x40 MSTORE SWAP1 DUP2 PUSH0 DUP3 ADD DUP1 SLOAD PUSH2 0xA08 SWAP1 PUSH2 0x18D9 JUMP JUMPDEST DUP1 PUSH1 0x1F ADD PUSH1 0x20 DUP1 SWAP2 DIV MUL PUSH1 0x20 ADD PUSH1 0x40 MLOAD SWAP1 DUP2 ADD PUSH1 0x40 MSTORE DUP1 SWAP3 SWAP2 SWAP1 DUP2 DUP2 MSTORE PUSH1 0x20 ADD DUP3 DUP1 SLOAD PUSH2 0xA34 SWAP1 PUSH2 0x18D9 JUMP JUMPDEST DUP1 ISZERO PUSH2 0xA7F JUMPI DUP1 PUSH1 0x1F LT PUSH2 0xA56 JUMPI PUSH2 0x100 DUP1 DUP4 SLOAD DIV MUL DUP4 MSTORE SWAP2 PUSH1 0x20 ADD SWAP2 PUSH2 0xA7F JUMP JUMPDEST DUP3 ADD SWAP2 SWAP1 PUSH0 MSTORE PUSH1 0x20 PUSH0 KECCAK256 SWAP1 JUMPDEST DUP2 SLOAD DUP2 MSTORE SWAP1 PUSH1 0x1 ADD SWAP1 PUSH1 0x20 ADD DUP1 DUP4 GT PUSH2 0xA62 JUMPI DUP3 SWAP1 SUB PUSH1 0x1F AND DUP3 ADD SWAP2 JUMPDEST POP POP POP POP POP DUP2 MSTORE PUSH1 0x20 ADD PUSH1 0x1 DUP3 ADD DUP1 SLOAD PUSH2 0xA98 SWAP1 PUSH2 0x18D9 JUMP JUMPDEST DUP1 PUSH1 0x1F ADD PUSH1 0x20 DUP1 SWAP2 DIV MUL PUSH1 0x20 ADD PUSH1 0x40 MLOAD SWAP1 DUP2 ADD PUSH1 0x40 MSTORE DUP1 SWAP3 SWAP2 SWAP1 DUP2 DUP2 MSTORE PUSH1 0x20 ADD DUP3 DUP1 SLOAD PUSH2 0xAC4 SWAP1 PUSH2 0x18D9 JUMP JUMPDEST DUP1 ISZERO PUSH2 0xB0F JUMPI DUP1 PUSH1 0x1F LT PUSH2 0xAE6 JUMPI PUSH2 0x100 DUP1 DUP4 SLOAD DIV MUL DUP4 MSTORE SWAP2 PUSH1 0x20 ADD SWAP2 PUSH2 0xB0F JUMP JUMPDEST DUP3 ADD SWAP2 SWAP1 PUSH0 MSTORE PUSH1 0x20 PUSH0 KECCAK256 SWAP1 JUMPDEST DUP2 SLOAD DUP2 MSTORE SWAP1 PUSH1 0x1 ADD SWAP1 PUSH1 0x20 ADD DUP1 DUP4 GT PUSH2 0xAF2 JUMPI DUP3 SWAP1 SUB PUSH1 0x1F AND DUP3 ADD SWAP2 JUMPDEST POP POP POP POP POP DUP2 MSTORE PUSH1 0x20 ADD PUSH1 0x2 DUP3 ADD SLOAD DUP2 MSTORE PUSH1 0x20 ADD PUSH1 0x3 DUP3 ADD PUSH0 SWAP1 SLOAD SWAP1 PUSH2 0x100 EXP SWAP1 DIV PUSH1 0xFF AND ISZERO ISZERO ISZERO ISZERO DUP2 MSTORE PUSH1 0x20 ADD PUSH1 0x3 DUP3 ADD PUSH1 0x1 SWAP1 SLOAD SWAP1 PUSH2 0x100 EXP SWAP1 DIV PUSH1 0xFF AND ISZERO ISZERO ISZERO ISZERO DUP2 MSTORE PUSH1 0x20 ADD PUSH1 0x3 DUP3 ADD PUSH1 0x2 SWAP1 SLOAD SWAP1 PUSH2 0x100 EXP SWAP1 DIV PUSH20 0xFFFFFFFFFFFFFFFFFFFFFFFFFFFFFFFFFFFFFFFF AND PUSH20 0xFFFFFFFFFFFFFFFFFFFFFFFFFFFFFFFFFFFFFFFF AND PUSH20 0xFFFFFFFFFFFFFFFFFFFFFFFFFFFFFFFFFFFFFFFF AND DUP2 MSTORE POP POP SWAP1 POP DUP1 PUSH0 ADD MLOAD DUP2 PUSH1 0x20 ADD MLOAD DUP3 PUSH1 0x40 ADD MLOAD DUP4 PUSH1 0x60 ADD MLOAD DUP5 PUSH1 0x80 ADD MLOAD DUP6 PUSH1 0xA0 ADD MLOAD SWAP7 POP SWAP7 POP SWAP7 POP SWAP7 POP SWAP7 POP SWAP7 POP POP SWAP2 SWAP4 SWAP6 POP SWAP2 SWAP4 SWAP6 JUMP JUMPDEST PUSH2 0xBEB DUP3 PUSH2 0x3A9 JUMP JUMPDEST PUSH2 0xBF4 DUP2 PUSH2 0xE6D JUMP JUMPDEST PUSH2 0xBFE DUP4 DUP4 PUSH2 0xF71 JUMP JUMPDEST POP POP POP POP JUMP JUMPDEST PUSH2 0xC0E PUSH1 0x3 PUSH2 0x105A JUMP JUMPDEST DUP3 LT PUSH2 0xC4F JUMPI PUSH1 0x40 MLOAD PUSH32 0x8C379A000000000000000000000000000000000000000000000000000000000 DUP2 MSTORE PUSH1 0x4 ADD PUSH2 0xC46 SWAP1 PUSH2 0x188E JUMP JUMPDEST PUSH1 0x40 MLOAD DUP1 SWAP2 SUB SWAP1 REVERT JUMPDEST CALLER PUSH20 0xFFFFFFFFFFFFFFFFFFFFFFFFFFFFFFFFFFFFFFFF AND PUSH1 0x1 PUSH0 DUP5 DUP2 MSTORE PUSH1 0x20 ADD SWAP1 DUP2 MSTORE PUSH1 0x20 ADD PUSH0 KECCAK256 PUSH1 0x3 ADD PUSH1 0x2 SWAP1 SLOAD SWAP1 PUSH2 0x100 EXP SWAP1 DIV PUSH20 0xFFFFFFFFFFFFFFFFFFFFFFFFFFFFFFFFFFFFFFFF AND PUSH20 0xFFFFFFFFFFFFFFFFFFFFFFFFFFFFFFFFFFFFFFFF AND EQ PUSH2 0xCF1 JUMPI PUSH1 0x40 MLOAD PUSH32 0x8C379A000000000000000000000000000000000000000000000000000000000 DUP2 MSTORE PUSH1 0x4 ADD PUSH2 0xCE8 SWAP1 PUSH2 0x1C79 JUMP JUMPDEST PUSH1 0x40 MLOAD DUP1 SWAP2 SUB SWAP1 REVERT JUMPDEST PUSH0 PUSH1 0x1 PUSH0 DUP5 DUP2 MSTORE PUSH1 0x20 ADD SWAP1 DUP2 MSTORE PUSH1 0x20 ADD PUSH0 KECCAK256 PUSH1 0x3 ADD PUSH1 0x2 SWAP1 SLOAD SWAP1 PUSH2 0x100 EXP SWAP1 DIV PUSH20 0xFFFFFFFFFFFFFFFFFFFFFFFFFFFFFFFFFFFFFFFF AND SWAP1 POP DUP2 PUSH1 0x1 PUSH0 DUP6 DUP2 MSTORE PUSH1 0x20 ADD SWAP1 DUP2 MSTORE PUSH1 0x20 ADD PUSH0 KECCAK256 PUSH1 0x3 ADD PUSH1 0x2 PUSH2 0x100 EXP DUP2 SLOAD DUP2 PUSH20 0xFFFFFFFFFFFFFFFFFFFFFFFFFFFFFFFFFFFFFFFF MUL NOT AND SWAP1 DUP4 PUSH20 0xFFFFFFFFFFFFFFFFFFFFFFFFFFFFFFFFFFFFFFFF AND MUL OR SWAP1 SSTORE POP PUSH32 0xCEF86D37BA3DC1D682967CDE44D8050488734BF53166725B220B4D2E515E9E93 DUP4 DUP3 DUP5 PUSH1 0x40 MLOAD PUSH2 0xDAF SWAP4 SWAP3 SWAP2 SWAP1 PUSH2 0x1C97 JUMP JUMPDEST PUSH1 0x40 MLOAD DUP1 SWAP2 SUB SWAP1 LOG1 POP POP POP JUMP JUMPDEST PUSH32 0xFBD454F36A7E1A388BD6FC3AB10D434AA4578F811ACBBCF33AFB1C697486313C DUP2 JUMP JUMPDEST PUSH32 0x7C6181838A71A779E445600D4C6ECBE16BACF2B3C5BDA69C29FADA66D1B645D1 DUP2 JUMP JUMPDEST PUSH0 PUSH32 0x1FFC9A700000000000000000000000000000000000000000000000000000000 PUSH28 0xFFFFFFFFFFFFFFFFFFFFFFFFFFFFFFFFFFFFFFFFFFFFFFFFFFFFFFFF NOT AND DUP3 PUSH28 0xFFFFFFFFFFFFFFFFFFFFFFFFFFFFFFFFFFFFFFFFFFFFFFFFFFFFFFFF NOT AND EQ SWAP1 POP SWAP2 SWAP1 POP JUMP JUMPDEST PUSH2 0xE7E DUP2 PUSH2 0xE79 PUSH2 0xF6A JUMP JUMPDEST PUSH2 0x107A JUMP JUMPDEST POP JUMP JUMPDEST PUSH0 PUSH2 0xE8C DUP4 DUP4 PUSH2 0x643 JUMP JUMPDEST PUSH2 0xF60 JUMPI PUSH1 0x1 PUSH0 DUP1 DUP6 DUP2 MSTORE PUSH1 0x20 ADD SWAP1 DUP2 MSTORE PUSH1 0x20 ADD PUSH0 KECCAK256 PUSH0 ADD PUSH0 DUP5 PUSH20 0xFFFFFFFFFFFFFFFFFFFFFFFFFFFFFFFFFFFFFFFF AND PUSH20 0xFFFFFFFFFFFFFFFFFFFFFFFFFFFFFFFFFFFFFFFF AND DUP2 MSTORE PUSH1 0x20 ADD SWAP1 DUP2 MSTORE PUSH1 0x20 ADD PUSH0 KECCAK256 PUSH0 PUSH2 0x100 EXP DUP2 SLOAD DUP2 PUSH1 0xFF MUL NOT AND SWAP1 DUP4 ISZERO ISZERO MUL OR SWAP1 SSTORE POP PUSH2 0xEFD PUSH2 0xF6A JUMP JUMPDEST PUSH20 0xFFFFFFFFFFFFFFFFFFFFFFFFFFFFFFFFFFFFFFFF AND DUP3 PUSH20 0xFFFFFFFFFFFFFFFFFFFFFFFFFFFFFFFFFFFFFFFF AND DUP5 PUSH32 0x2F8788117E7EFF1D82E926EC794901D17C78024A50270940304540A733656F0D PUSH1 0x40 MLOAD PUSH1 0x40 MLOAD DUP1 SWAP2 SUB SWAP1 LOG4 PUSH1 0x1 SWAP1 POP PUSH2 0xF64 JUMP JUMPDEST PUSH0 SWAP1 POP JUMPDEST SWAP3 SWAP2 POP POP JUMP JUMPDEST PUSH0 CALLER SWAP1 POP SWAP1 JUMP JUMPDEST PUSH0 PUSH2 0xF7C DUP4 DUP4 PUSH2 0x643 JUMP JUMPDEST ISZERO PUSH2 0x1050 JUMPI PUSH0 DUP1 PUSH0 DUP6 DUP2 MSTORE PUSH1 0x20 ADD SWAP1 DUP2 MSTORE PUSH1 0x20 ADD PUSH0 KECCAK256 PUSH0 ADD PUSH0 DUP5 PUSH20 0xFFFFFFFFFFFFFFFFFFFFFFFFFFFFFFFFFFFFFFFF AND PUSH20 0xFFFFFFFFFFFFFFFFFFFFFFFFFFFFFFFFFFFFFFFF AND DUP2 MSTORE PUSH1 0x20 ADD SWAP1 DUP2 MSTORE PUSH1 0x20 ADD PUSH0 KECCAK256 PUSH0 PUSH2 0x100 EXP DUP2 SLOAD DUP2 PUSH1 0xFF MUL NOT AND SWAP1 DUP4 ISZERO ISZERO MUL OR SWAP1 SSTORE POP PUSH2 0xFED PUSH2 0xF6A JUMP JUMPDEST PUSH20 0xFFFFFFFFFFFFFFFFFFFFFFFFFFFFFFFFFFFFFFFF AND DUP3 PUSH20 0xFFFFFFFFFFFFFFFFFFFFFFFFFFFFFFFFFFFFFFFF AND DUP5 PUSH32 0xF6391F5C32D9C69D2A47EA670B442974B53935D1EDC7FD64EB21E047A839171B PUSH1 0x40 MLOAD PUSH1 0x40 MLOAD DUP1 SWAP2 SUB SWAP1 LOG4 PUSH1 0x1 SWAP1 POP PUSH2 0x1054 JUMP JUMPDEST PUSH0 SWAP1 POP JUMPDEST SWAP3 SWAP2 POP POP JUMP JUMPDEST PUSH0 DUP2 PUSH0 ADD SLOAD SWAP1 POP SWAP2 SWAP1 POP JUMP JUMPDEST PUSH1 0x1 DUP2 PUSH0 ADD PUSH0 DUP3 DUP3 SLOAD ADD SWAP3 POP POP DUP2 SWAP1 SSTORE POP POP JUMP JUMPDEST PUSH2 0x1084 DUP3 DUP3 PUSH2 0x643 JUMP JUMPDEST PUSH2 0x10C7 JUMPI DUP1 DUP3 PUSH1 0x40 MLOAD PUSH32 0xE2517D3F00000000000000000000000000000000000000000000000000000000 DUP2 MSTORE PUSH1 0x4 ADD PUSH2 0x10BE SWAP3 SWAP2 SWAP1 PUSH2 0x1CCC JUMP JUMPDEST PUSH1 0x40 MLOAD DUP1 SWAP2 SUB SWAP1 REVERT JUMPDEST POP POP JUMP JUMPDEST PUSH0 PUSH1 0x40 MLOAD SWAP1 POP SWAP1 JUMP JUMPDEST PUSH0 DUP1 REVERT JUMPDEST PUSH0 DUP1 REVERT JUMPDEST PUSH0 PUSH32 0xFFFFFFFF00000000000000000000000000000000000000000000000000000000 DUP3 AND SWAP1 POP SWAP2 SWAP1 POP JUMP JUMPDEST PUSH2 0x1110 DUP2 PUSH2 0x10DC JUMP JUMPDEST DUP2 EQ PUSH2 0x111A JUMPI PUSH0 DUP1 REVERT JUMPDEST POP JUMP JUMPDEST PUSH0 DUP2 CALLDATALOAD SWAP1 POP PUSH2 0x112B DUP2 PUSH2 0x1107 JUMP JUMPDEST SWAP3 SWAP2 POP POP JUMP JUMPDEST PUSH0 PUSH1 0x20 DUP3 DUP5 SUB SLT ISZERO PUSH2 0x1146 JUMPI PUSH2 0x1145 PUSH2 0x10D4 JUMP JUMPDEST JUMPDEST PUSH0 PUSH2 0x1153 DUP5 DUP3 DUP6 ADD PUSH2 0x111D JUMP JUMPDEST SWAP2 POP POP SWAP3 SWAP2 POP POP JUMP JUMPDEST PUSH0 DUP2 ISZERO ISZERO SWAP1 POP SWAP2 SWAP1 POP JUMP JUMPDEST PUSH2 0x1170 DUP2 PUSH2 0x115C JUMP JUMPDEST DUP3 MSTORE POP POP JUMP JUMPDEST PUSH0 PUSH1 0x20 DUP3 ADD SWAP1 POP PUSH2 0x1189 PUSH0 DUP4 ADD DUP5 PUSH2 0x1167 JUMP JUMPDEST SWAP3 SWAP2 POP POP JUMP JUMPDEST PUSH0 DUP2 SWAP1 POP SWAP2 SWAP1 POP JUMP JUMPDEST PUSH2 0x11A1 DUP2 PUSH2 0x118F JUMP JUMPDEST DUP3 MSTORE POP POP JUMP JUMPDEST PUSH0 PUSH1 0x20 DUP3 ADD SWAP1 POP PUSH2 0x11BA PUSH0 DUP4 ADD DUP5 PUSH2 0x1198 JUMP JUMPDEST SWAP3 SWAP2 POP POP JUMP JUMPDEST PUSH2 0x11C9 DUP2 PUSH2 0x118F JUMP JUMPDEST DUP2 EQ PUSH2 0x11D3 JUMPI PUSH0 DUP1 REVERT JUMPDEST POP JUMP JUMPDEST PUSH0 DUP2 CALLDATALOAD SWAP1 POP PUSH2 0x11E4 DUP2 PUSH2 0x11C0 JUMP JUMPDEST SWAP3 SWAP2 POP POP JUMP JUMPDEST PUSH0 PUSH1 0x20 DUP3 DUP5 SUB SLT ISZERO PUSH2 0x11FF JUMPI PUSH2 0x11FE PUSH2 0x10D4 JUMP JUMPDEST JUMPDEST PUSH0 PUSH2 0x120C DUP5 DUP3 DUP6 ADD PUSH2 0x11D6 JUMP JUMPDEST SWAP2 POP POP SWAP3 SWAP2 POP POP JUMP JUMPDEST PUSH0 PUSH20 0xFFFFFFFFFFFFFFFFFFFFFFFFFFFFFFFFFFFFFFFF DUP3 AND SWAP1 POP SWAP2 SWAP1 POP JUMP JUMPDEST PUSH0 PUSH2 0x123E DUP3 PUSH2 0x1215 JUMP JUMPDEST SWAP1 POP SWAP2 SWAP1 POP JUMP JUMPDEST PUSH2 0x124E DUP2 PUSH2 0x1234 JUMP JUMPDEST DUP2 EQ PUSH2 0x1258 JUMPI PUSH0 DUP1 REVERT JUMPDEST POP JUMP JUMPDEST PUSH0 DUP2 CALLDATALOAD SWAP1 POP PUSH2 0x1269 DUP2 PUSH2 0x1245 JUMP JUMPDEST SWAP3 SWAP2 POP POP JUMP JUMPDEST PUSH0 DUP1 PUSH1 0x40 DUP4 DUP6 SUB SLT ISZERO PUSH2 0x1285 JUMPI PUSH2 0x1284 PUSH2 0x10D4 JUMP JUMPDEST JUMPDEST PUSH0 PUSH2 0x1292 DUP6 DUP3 DUP7 ADD PUSH2 0x11D6 JUMP JUMPDEST SWAP3 POP POP PUSH1 0x20 PUSH2 0x12A3 DUP6 DUP3 DUP7 ADD PUSH2 0x125B JUMP JUMPDEST SWAP2 POP POP SWAP3 POP SWAP3 SWAP1 POP JUMP JUMPDEST PUSH0 DUP2 SWAP1 POP SWAP2 SWAP1 POP JUMP JUMPDEST PUSH2 0x12BF DUP2 PUSH2 0x12AD JUMP JUMPDEST DUP2 EQ PUSH2 0x12C9 JUMPI PUSH0 DUP1 REVERT JUMPDEST POP JUMP JUMPDEST PUSH0 DUP2 CALLDATALOAD SWAP1 POP PUSH2 0x12DA DUP2 PUSH2 0x12B6 JUMP JUMPDEST SWAP3 SWAP2 POP POP JUMP JUMPDEST PUSH0 PUSH1 0x20 DUP3 DUP5 SUB SLT ISZERO PUSH2 0x12F5 JUMPI PUSH2 0x12F4 PUSH2 0x10D4 JUMP JUMPDEST JUMPDEST PUSH0 PUSH2 0x1302 DUP5 DUP3 DUP6 ADD PUSH2 0x12CC JUMP JUMPDEST SWAP2 POP POP SWAP3 SWAP2 POP POP JUMP JUMPDEST PUSH0 DUP2 MLOAD SWAP1 POP SWAP2 SWAP1 POP JUMP JUMPDEST PUSH0 DUP3 DUP3 MSTORE PUSH1 0x20 DUP3 ADD SWAP1 POP SWAP3 SWAP2 POP POP JUMP JUMPDEST PUSH0 DUP2 SWAP1 POP PUSH1 0x20 DUP3 ADD SWAP1 POP SWAP2 SWAP1 POP JUMP JUMPDEST PUSH0 DUP2 MLOAD SWAP1 POP SWAP2 SWAP1 POP JUMP JUMPDEST PUSH0 DUP3 DUP3 MSTORE PUSH1 0x20 DUP3 ADD SWAP1 POP SWAP3 SWAP2 POP POP JUMP JUMPDEST DUP3 DUP2 DUP4 MCOPY PUSH0 DUP4 DUP4 ADD MSTORE POP POP POP JUMP JUMPDEST PUSH0 PUSH1 0x1F NOT PUSH1 0x1F DUP4 ADD AND SWAP1 POP SWAP2 SWAP1 POP JUMP JUMPDEST PUSH0 PUSH2 0x1376 DUP3 PUSH2 0x1334 JUMP JUMPDEST PUSH2 0x1380 DUP2 DUP6 PUSH2 0x133E JUMP JUMPDEST SWAP4 POP PUSH2 0x1390 DUP2 DUP6 PUSH1 0x20 DUP7 ADD PUSH2 0x134E JUMP JUMPDEST PUSH2 0x1399 DUP2 PUSH2 0x135C JUMP JUMPDEST DUP5 ADD SWAP2 POP POP SWAP3 SWAP2 POP POP JUMP JUMPDEST PUSH2 0x13AD DUP2 PUSH2 0x12AD JUMP JUMPDEST DUP3 MSTORE POP POP JUMP JUMPDEST PUSH0 PUSH1 0x60 DUP4 ADD PUSH0 DUP4 ADD MLOAD DUP5 DUP3 SUB PUSH0 DUP7 ADD MSTORE PUSH2 0x13CD DUP3 DUP3 PUSH2 0x136C JUMP JUMPDEST SWAP2 POP POP PUSH1 0x20 DUP4 ADD MLOAD DUP5 DUP3 SUB PUSH1 0x20 DUP7 ADD MSTORE PUSH2 0x13E7 DUP3 DUP3 PUSH2 0x136C JUMP JUMPDEST SWAP2 POP POP PUSH1 0x40 DUP4 ADD MLOAD PUSH2 0x13FC PUSH1 0x40 DUP7 ADD DUP3 PUSH2 0x13A4 JUMP JUMPDEST POP DUP1 SWAP2 POP POP SWAP3 SWAP2 POP POP JUMP JUMPDEST PUSH0 PUSH2 0x1412 DUP4 DUP4 PUSH2 0x13B3 JUMP JUMPDEST SWAP1 POP SWAP3 SWAP2 POP POP JUMP JUMPDEST PUSH0 PUSH1 0x20 DUP3 ADD SWAP1 POP SWAP2 SWAP1 POP JUMP JUMPDEST PUSH0 PUSH2 0x1430 DUP3 PUSH2 0x130B JUMP JUMPDEST PUSH2 0x143A DUP2 DUP6 PUSH2 0x1315 JUMP JUMPDEST SWAP4 POP DUP4 PUSH1 0x20 DUP3 MUL DUP6 ADD PUSH2 0x144C DUP6 PUSH2 0x1325 JUMP JUMPDEST DUP1 PUSH0 JUMPDEST DUP6 DUP2 LT ISZERO PUSH2 0x1487 JUMPI DUP5 DUP5 SUB DUP10 MSTORE DUP2 MLOAD PUSH2 0x1468 DUP6 DUP3 PUSH2 0x1407 JUMP JUMPDEST SWAP5 POP PUSH2 0x1473 DUP4 PUSH2 0x141A JUMP JUMPDEST SWAP3 POP PUSH1 0x20 DUP11 ADD SWAP10 POP POP PUSH1 0x1 DUP2 ADD SWAP1 POP PUSH2 0x144F JUMP JUMPDEST POP DUP3 SWAP8 POP DUP8 SWAP6 POP POP POP POP POP POP SWAP3 SWAP2 POP POP JUMP JUMPDEST PUSH0 PUSH1 0x20 DUP3 ADD SWAP1 POP DUP2 DUP2 SUB PUSH0 DUP4 ADD MSTORE PUSH2 0x14B1 DUP2 DUP5 PUSH2 0x1426 JUMP JUMPDEST SWAP1 POP SWAP3 SWAP2 POP POP JUMP JUMPDEST PUSH0 DUP1 REVERT JUMPDEST PUSH0 DUP1 REVERT JUMPDEST PUSH32 0x4E487B7100000000000000000000000000000000000000000000000000000000 PUSH0 MSTORE PUSH1 0x41 PUSH1 0x4 MSTORE PUSH1 0x24 PUSH0 REVERT JUMPDEST PUSH2 0x14F7 DUP3 PUSH2 0x135C JUMP JUMPDEST DUP2 ADD DUP2 DUP2 LT PUSH8 0xFFFFFFFFFFFFFFFF DUP3 GT OR ISZERO PUSH2 0x1516 JUMPI PUSH2 0x1515 PUSH2 0x14C1 JUMP JUMPDEST JUMPDEST DUP1 PUSH1 0x40 MSTORE POP POP POP JUMP JUMPDEST PUSH0 PUSH2 0x1528 PUSH2 0x10CB JUMP JUMPDEST SWAP1 POP PUSH2 0x1534 DUP3 DUP3 PUSH2 0x14EE JUMP JUMPDEST SWAP2 SWAP1 POP JUMP JUMPDEST PUSH0 PUSH8 0xFFFFFFFFFFFFFFFF DUP3 GT ISZERO PUSH2 0x1553 JUMPI PUSH2 0x1552 PUSH2 0x14C1 JUMP JUMPDEST JUMPDEST PUSH2 0x155C DUP3 PUSH2 0x135C JUMP JUMPDEST SWAP1 POP PUSH1 0x20 DUP2 ADD SWAP1 POP SWAP2 SWAP1 POP JUMP JUMPDEST DUP3 DUP2 DUP4 CALLDATACOPY PUSH0 DUP4 DUP4 ADD MSTORE POP POP POP JUMP JUMPDEST PUSH0 PUSH2 0x1589 PUSH2 0x1584 DUP5 PUSH2 0x1539 JUMP JUMPDEST PUSH2 0x151F JUMP JUMPDEST SWAP1 POP DUP3 DUP2 MSTORE PUSH1 0x20 DUP2 ADD DUP5 DUP5 DUP5 ADD GT ISZERO PUSH2 0x15A5 JUMPI PUSH2 0x15A4 PUSH2 0x14BD JUMP JUMPDEST JUMPDEST PUSH2 0x15B0 DUP5 DUP3 DUP6 PUSH2 0x1569 JUMP JUMPDEST POP SWAP4 SWAP3 POP POP POP JUMP JUMPDEST PUSH0 DUP3 PUSH1 0x1F DUP4 ADD SLT PUSH2 0x15CC JUMPI PUSH2 0x15CB PUSH2 0x14B9 JUMP JUMPDEST JUMPDEST DUP2 CALLDATALOAD PUSH2 0x15DC DUP5 DUP3 PUSH1 0x20 DUP7 ADD PUSH2 0x1577 JUMP JUMPDEST SWAP2 POP POP SWAP3 SWAP2 POP POP JUMP JUMPDEST PUSH0 DUP1 PUSH0 PUSH1 0x60 DUP5 DUP7 SUB SLT ISZERO PUSH2 0x15FC JUMPI PUSH2 0x15FB PUSH2 0x10D4 JUMP JUMPDEST JUMPDEST PUSH0 PUSH2 0x1609 DUP7 DUP3 DUP8 ADD PUSH2 0x12CC JUMP JUMPDEST SWAP4 POP POP PUSH1 0x20 DUP5 ADD CALLDATALOAD PUSH8 0xFFFFFFFFFFFFFFFF DUP2 GT ISZERO PUSH2 0x162A JUMPI PUSH2 0x1629 PUSH2 0x10D8 JUMP JUMPDEST JUMPDEST PUSH2 0x1636 DUP7 DUP3 DUP8 ADD PUSH2 0x15B8 JUMP JUMPDEST SWAP3 POP POP PUSH1 0x40 DUP5 ADD CALLDATALOAD PUSH8 0xFFFFFFFFFFFFFFFF DUP2 GT ISZERO PUSH2 0x1657 JUMPI PUSH2 0x1656 PUSH2 0x10D8 JUMP JUMPDEST JUMPDEST PUSH2 0x1663 DUP7 DUP3 DUP8 ADD PUSH2 0x15B8 JUMP JUMPDEST SWAP2 POP POP SWAP3 POP SWAP3 POP SWAP3 JUMP JUMPDEST PUSH2 0x1676 DUP2 PUSH2 0x115C JUMP JUMPDEST DUP2 EQ PUSH2 0x1680 JUMPI PUSH0 DUP1 REVERT JUMPDEST POP JUMP JUMPDEST PUSH0 DUP2 CALLDATALOAD SWAP1 POP PUSH2 0x1691 DUP2 PUSH2 0x166D JUMP JUMPDEST SWAP3 SWAP2 POP POP JUMP JUMPDEST PUSH0 DUP1 PUSH0 DUP1 PUSH1 0x80 DUP6 DUP8 SUB SLT ISZERO PUSH2 0x16AF JUMPI PUSH2 0x16AE PUSH2 0x10D4 JUMP JUMPDEST JUMPDEST PUSH0 DUP6 ADD CALLDATALOAD PUSH8 0xFFFFFFFFFFFFFFFF DUP2 GT ISZERO PUSH2 0x16CC JUMPI PUSH2 0x16CB PUSH2 0x10D8 JUMP JUMPDEST JUMPDEST PUSH2 0x16D8 DUP8 DUP3 DUP9 ADD PUSH2 0x15B8 JUMP JUMPDEST SWAP5 POP POP PUSH1 0x20 DUP6 ADD CALLDATALOAD PUSH8 0xFFFFFFFFFFFFFFFF DUP2 GT ISZERO PUSH2 0x16F9 JUMPI PUSH2 0x16F8 PUSH2 0x10D8 JUMP JUMPDEST JUMPDEST PUSH2 0x1705 DUP8 DUP3 DUP9 ADD PUSH2 0x15B8 JUMP JUMPDEST SWAP4 POP POP PUSH1 0x40 PUSH2 0x1716 DUP8 DUP3 DUP9 ADD PUSH2 0x1683 JUMP JUMPDEST SWAP3 POP POP PUSH1 0x60 PUSH2 0x1727 DUP8 DUP3 DUP9 ADD PUSH2 0x1683 JUMP JUMPDEST SWAP2 POP POP SWAP3 SWAP6 SWAP2 SWAP5 POP SWAP3 POP JUMP JUMPDEST PUSH0 DUP3 DUP3 MSTORE PUSH1 0x20 DUP3 ADD SWAP1 POP SWAP3 SWAP2 POP POP JUMP JUMPDEST PUSH0 PUSH2 0x174D DUP3 PUSH2 0x1334 JUMP JUMPDEST PUSH2 0x1757 DUP2 DUP6 PUSH2 0x1733 JUMP JUMPDEST SWAP4 POP PUSH2 0x1767 DUP2 DUP6 PUSH1 0x20 DUP7 ADD PUSH2 0x134E JUMP JUMPDEST PUSH2 0x1770 DUP2 PUSH2 0x135C JUMP JUMPDEST DUP5 ADD SWAP2 POP POP SWAP3 SWAP2 POP POP JUMP JUMPDEST PUSH2 0x1784 DUP2 PUSH2 0x12AD JUMP JUMPDEST DUP3 MSTORE POP POP JUMP JUMPDEST PUSH2 0x1793 DUP2 PUSH2 0x1234 JUMP JUMPDEST DUP3 MSTORE POP POP JUMP JUMPDEST PUSH0 PUSH1 0xC0 DUP3 ADD SWAP1 POP DUP2 DUP2 SUB PUSH0 DUP4 ADD MSTORE PUSH2 0x17B1 DUP2 DUP10 PUSH2 0x1743 JUMP JUMPDEST SWAP1 POP DUP2 DUP2 SUB PUSH1 0x20 DUP4 ADD MSTORE PUSH2 0x17C5 DUP2 DUP9 PUSH2 0x1743 JUMP JUMPDEST SWAP1 POP PUSH2 0x17D4 PUSH1 0x40 DUP4 ADD DUP8 PUSH2 0x177B JUMP JUMPDEST PUSH2 0x17E1 PUSH1 0x60 DUP4 ADD DUP7 PUSH2 0x1167 JUMP JUMPDEST PUSH2 0x17EE PUSH1 0x80 DUP4 ADD DUP6 PUSH2 0x1167 JUMP JUMPDEST PUSH2 0x17FB PUSH1 0xA0 DUP4 ADD DUP5 PUSH2 0x178A JUMP JUMPDEST SWAP8 SWAP7 POP POP POP POP POP POP POP JUMP JUMPDEST PUSH0 DUP1 PUSH1 0x40 DUP4 DUP6 SUB SLT ISZERO PUSH2 0x181C JUMPI PUSH2 0x181B PUSH2 0x10D4 JUMP JUMPDEST JUMPDEST PUSH0 PUSH2 0x1829 DUP6 DUP3 DUP7 ADD PUSH2 0x12CC JUMP JUMPDEST SWAP3 POP POP PUSH1 0x20 PUSH2 0x183A DUP6 DUP3 DUP7 ADD PUSH2 0x125B JUMP JUMPDEST SWAP2 POP POP SWAP3 POP SWAP3 SWAP1 POP JUMP JUMPDEST PUSH32 0x50726F6475637420646F6573206E6F742065786973742E000000000000000000 PUSH0 DUP3 ADD MSTORE POP JUMP JUMPDEST PUSH0 PUSH2 0x1878 PUSH1 0x17 DUP4 PUSH2 0x1733 JUMP JUMPDEST SWAP2 POP PUSH2 0x1883 DUP3 PUSH2 0x1844 JUMP JUMPDEST PUSH1 0x20 DUP3 ADD SWAP1 POP SWAP2 SWAP1 POP JUMP JUMPDEST PUSH0 PUSH1 0x20 DUP3 ADD SWAP1 POP DUP2 DUP2 SUB PUSH0 DUP4 ADD MSTORE PUSH2 0x18A5 DUP2 PUSH2 0x186C JUMP JUMPDEST SWAP1 POP SWAP2 SWAP1 POP JUMP JUMPDEST PUSH32 0x4E487B7100000000000000000000000000000000000000000000000000000000 PUSH0 MSTORE PUSH1 0x22 PUSH1 0x4 MSTORE PUSH1 0x24 PUSH0 REVERT JUMPDEST PUSH0 PUSH1 0x2 DUP3 DIV SWAP1 POP PUSH1 0x1 DUP3 AND DUP1 PUSH2 0x18F0 JUMPI PUSH1 0x7F DUP3 AND SWAP2 POP JUMPDEST PUSH1 0x20 DUP3 LT DUP2 SUB PUSH2 0x1903 JUMPI PUSH2 0x1902 PUSH2 0x18AC JUMP JUMPDEST JUMPDEST POP SWAP2 SWAP1 POP JUMP JUMPDEST PUSH0 DUP2 SWAP1 POP DUP2 PUSH0 MSTORE PUSH1 0x20 PUSH0 KECCAK256 SWAP1 POP SWAP2 SWAP1 POP JUMP JUMPDEST PUSH0 PUSH1 0x20 PUSH1 0x1F DUP4 ADD DIV SWAP1 POP SWAP2 SWAP1 POP JUMP JUMPDEST PUSH0 DUP3 DUP3 SHL SWAP1 POP SWAP3 SWAP2 POP POP JUMP JUMPDEST PUSH0 PUSH1 0x8 DUP4 MUL PUSH2 0x1965 PUSH32 0xFFFFFFFFFFFFFFFFFFFFFFFFFFFFFFFFFFFFFFFFFFFFFFFFFFFFFFFFFFFFFFFF DUP3 PUSH2 0x192A JUMP JUMPDEST PUSH2 0x196F DUP7 DUP4 PUSH2 0x192A JUMP JUMPDEST SWAP6 POP DUP1 NOT DUP5 AND SWAP4 POP DUP1 DUP7 AND DUP5 OR SWAP3 POP POP POP SWAP4 SWAP3 POP POP POP JUMP JUMPDEST PUSH0 DUP2 SWAP1 POP SWAP2 SWAP1 POP JUMP JUMPDEST PUSH0 PUSH2 0x19AA PUSH2 0x19A5 PUSH2 0x19A0 DUP5 PUSH2 0x12AD JUMP JUMPDEST PUSH2 0x1987 JUMP JUMPDEST PUSH2 0x12AD JUMP JUMPDEST SWAP1 POP SWAP2 SWAP1 POP JUMP JUMPDEST PUSH0 DUP2 SWAP1 POP SWAP2 SWAP1 POP JUMP JUMPDEST PUSH2 0x19C3 DUP4 PUSH2 0x1990 JUMP JUMPDEST PUSH2 0x19D7 PUSH2 0x19CF DUP3 PUSH2 0x19B1 JUMP JUMPDEST DUP5 DUP5 SLOAD PUSH2 0x1936 JUMP JUMPDEST DUP3 SSTORE POP POP POP POP JUMP JUMPDEST PUSH0 SWAP1 JUMP JUMPDEST PUSH2 0x19EB PUSH2 0x19DF JUMP JUMPDEST PUSH2 0x19F6 DUP2 DUP5 DUP5 PUSH2 0x19BA JUMP JUMPDEST POP POP POP JUMP JUMPDEST JUMPDEST DUP2 DUP2 LT ISZERO PUSH2 0x1A19 JUMPI PUSH2 0x1A0E PUSH0 DUP3 PUSH2 0x19E3 JUMP JUMPDEST PUSH1 0x1 DUP2 ADD SWAP1 POP PUSH2 0x19FC JUMP JUMPDEST POP POP JUMP JUMPDEST PUSH1 0x1F DUP3 GT ISZERO PUSH2 0x1A5E JUMPI PUSH2 0x1A2F DUP2 PUSH2 0x1909 JUMP JUMPDEST PUSH2 0x1A38 DUP5 PUSH2 0x191B JUMP JUMPDEST DUP2 ADD PUSH1 0x20 DUP6 LT ISZERO PUSH2 0x1A47 JUMPI DUP2 SWAP1 POP JUMPDEST PUSH2 0x1A5B PUSH2 0x1A53 DUP6 PUSH2 0x191B JUMP JUMPDEST DUP4 ADD DUP3 PUSH2 0x19FB JUMP JUMPDEST POP POP JUMPDEST POP POP POP JUMP JUMPDEST PUSH0 DUP3 DUP3 SHR SWAP1 POP SWAP3 SWAP2 POP POP JUMP JUMPDEST PUSH0 PUSH2 0x1A7E PUSH0 NOT DUP5 PUSH1 0x8 MUL PUSH2 0x1A63 JUMP JUMPDEST NOT DUP1 DUP4 AND SWAP2 POP POP SWAP3 SWAP2 POP POP JUMP JUMPDEST PUSH0 PUSH2 0x1A96 DUP4 DUP4 PUSH2 0x1A6F JUMP JUMPDEST SWAP2 POP DUP3 PUSH1 0x2 MUL DUP3 OR SWAP1 POP SWAP3 SWAP2 POP POP JUMP JUMPDEST PUSH2 0x1AAF DUP3 PUSH2 0x1334 JUMP JUMPDEST PUSH8 0xFFFFFFFFFFFFFFFF DUP2 GT ISZERO PUSH2 0x1AC8 JUMPI PUSH2 0x1AC7 PUSH2 0x14C1 JUMP JUMPDEST JUMPDEST PUSH2 0x1AD2 DUP3 SLOAD PUSH2 0x18D9 JUMP JUMPDEST PUSH2 0x1ADD DUP3 DUP3 DUP6 PUSH2 0x1A1D JUMP JUMPDEST PUSH0 PUSH1 0x20 SWAP1 POP PUSH1 0x1F DUP4 GT PUSH1 0x1 DUP2 EQ PUSH2 0x1B0E JUMPI PUSH0 DUP5 ISZERO PUSH2 0x1AFC JUMPI DUP3 DUP8 ADD MLOAD SWAP1 POP JUMPDEST PUSH2 0x1B06 DUP6 DUP3 PUSH2 0x1A8B JUMP JUMPDEST DUP7 SSTORE POP PUSH2 0x1B6D JUMP JUMPDEST PUSH1 0x1F NOT DUP5 AND PUSH2 0x1B1C DUP7 PUSH2 0x1909 JUMP JUMPDEST PUSH0 JUMPDEST DUP3 DUP2 LT ISZERO PUSH2 0x1B43 JUMPI DUP5 DUP10 ADD MLOAD DUP3 SSTORE PUSH1 0x1 DUP3 ADD SWAP2 POP PUSH1 0x20 DUP6 ADD SWAP5 POP PUSH1 0x20 DUP2 ADD SWAP1 POP PUSH2 0x1B1E JUMP JUMPDEST DUP7 DUP4 LT ISZERO PUSH2 0x1B60 JUMPI DUP5 DUP10 ADD MLOAD PUSH2 0x1B5C PUSH1 0x1F DUP10 AND DUP3 PUSH2 0x1A6F JUMP JUMPDEST DUP4 SSTORE POP JUMPDEST PUSH1 0x1 PUSH1 0x2 DUP9 MUL ADD DUP9 SSTORE POP POP POP JUMPDEST POP POP POP POP POP POP JUMP JUMPDEST PUSH0 PUSH1 0x60 DUP3 ADD SWAP1 POP PUSH2 0x1B88 PUSH0 DUP4 ADD DUP7 PUSH2 0x177B JUMP JUMPDEST DUP2 DUP2 SUB PUSH1 0x20 DUP4 ADD MSTORE PUSH2 0x1B9A DUP2 DUP6 PUSH2 0x1743 JUMP JUMPDEST SWAP1 POP DUP2 DUP2 SUB PUSH1 0x40 DUP4 ADD MSTORE PUSH2 0x1BAE DUP2 DUP5 PUSH2 0x1743 JUMP JUMPDEST SWAP1 POP SWAP5 SWAP4 POP POP POP POP JUMP JUMPDEST PUSH0 PUSH1 0x80 DUP3 ADD SWAP1 POP PUSH2 0x1BCB PUSH0 DUP4 ADD DUP8 PUSH2 0x177B JUMP JUMPDEST DUP2 DUP2 SUB PUSH1 0x20 DUP4 ADD MSTORE PUSH2 0x1BDD DUP2 DUP7 PUSH2 0x1743 JUMP JUMPDEST SWAP1 POP DUP2 DUP2 SUB PUSH1 0x40 DUP4 ADD MSTORE PUSH2 0x1BF1 DUP2 DUP6 PUSH2 0x1743 JUMP JUMPDEST SWAP1 POP PUSH2 0x1C00 PUSH1 0x60 DUP4 ADD DUP5 PUSH2 0x178A JUMP JUMPDEST SWAP6 SWAP5 POP POP POP POP POP JUMP JUMPDEST PUSH32 0x4F6E6C79207468652063757272656E74206F776E65722063616E207472616E73 PUSH0 DUP3 ADD MSTORE PUSH32 0x666572207468652070726F647563742E00000000000000000000000000000000 PUSH1 0x20 DUP3 ADD MSTORE POP JUMP JUMPDEST PUSH0 PUSH2 0x1C63 PUSH1 0x30 DUP4 PUSH2 0x1733 JUMP JUMPDEST SWAP2 POP PUSH2 0x1C6E DUP3 PUSH2 0x1C09 JUMP JUMPDEST PUSH1 0x40 DUP3 ADD SWAP1 POP SWAP2 SWAP1 POP JUMP JUMPDEST PUSH0 PUSH1 0x20 DUP3 ADD SWAP1 POP DUP2 DUP2 SUB PUSH0 DUP4 ADD MSTORE PUSH2 0x1C90 DUP2 PUSH2 0x1C57 JUMP JUMPDEST SWAP1 POP SWAP2 SWAP1 POP JUMP JUMPDEST PUSH0 PUSH1 0x60 DUP3 ADD SWAP1 POP PUSH2 0x1CAA PUSH0 DUP4 ADD DUP7 PUSH2 0x177B JUMP JUMPDEST PUSH2 0x1CB7 PUSH1 0x20 DUP4 ADD DUP6 PUSH2 0x178A JUMP JUMPDEST PUSH2 0x1CC4 PUSH1 0x40 DUP4 ADD DUP5 PUSH2 0x178A JUMP JUMPDEST SWAP5 SWAP4 POP POP POP POP JUMP JUMPDEST PUSH0 PUSH1 0x40 DUP3 ADD SWAP1 POP PUSH2 0x1CDF PUSH0 DUP4 ADD DUP6 PUSH2 0x178A JUMP JUMPDEST PUSH2 0x1CEC PUSH1 0x20 DUP4 ADD DUP5 PUSH2 0x1198 JUMP JUMPDEST SWAP4 SWAP3 POP POP POP JUMP INVALID LOG2 PUSH5 0x6970667358 0x22 SLT KECCAK256 PUSH25 0x577DBC1838435AB56DA670FBDC609972263F36449A1A5B548C JUMPI SUB 0xEE 0xBA 0xC0 0xE7 PUSH5 0x736F6C6343 STOP ADDMOD BYTE STOP CALLER "
				},
				"gasEstimates": {
					"creation": {
						"codeDepositCost": "1493000",
						"executionCost": "infinite",
						"totalCost": "infinite"
					},
					"external": {
						"DEFAULT_ADMIN_ROLE()": "353",
						"DISTRIBUTOR_ROLE()": "391",
						"FARMER_ROLE()": "413",
						"RETAILER_ROLE()": "371",
						"addCheckpoint(uint256,string,string)": "infinite",
						"addProduct(string,string,bool,bool)": "infinite",
						"getCheckpoints(uint256)": "infinite",
						"getProduct(uint256)": "infinite",
						"getRoleAdmin(bytes32)": "infinite",
						"grantRole(bytes32,address)": "infinite",
						"hasRole(bytes32,address)": "3211",
						"renounceRole(bytes32,address)": "infinite",
						"revokeRole(bytes32,address)": "infinite",
						"supportsInterface(bytes4)": "741",
						"transferProduct(uint256,address)": "infinite"
					}
				},
				"methodIdentifiers": {
					"DEFAULT_ADMIN_ROLE()": "a217fddf",
					"DISTRIBUTOR_ROLE()": "f0bd87cc",
					"FARMER_ROLE()": "f3943970",
					"RETAILER_ROLE()": "2115e7bf",
					"addCheckpoint(uint256,string,string)": "b7674cae",
					"addProduct(string,string,bool,bool)": "b908f6b7",
					"getCheckpoints(uint256)": "6897591c",
					"getProduct(uint256)": "b9db15b4",
					"getRoleAdmin(bytes32)": "248a9ca3",
					"grantRole(bytes32,address)": "2f2ff15d",
					"hasRole(bytes32,address)": "91d14854",
					"renounceRole(bytes32,address)": "36568abe",
					"revokeRole(bytes32,address)": "d547741f",
					"supportsInterface(bytes4)": "01ffc9a7",
					"transferProduct(uint256,address)": "e43059e5"
				}
			},
			"storageLayout": {
				"storage": [
					{
						"astId": 26,
						"contract": "contracts/TransparentSupplyChain.sol:TransparentSupplyChain",
						"label": "_roles",
						"offset": 0,
						"slot": "0",
						"type": "t_mapping(t_bytes32,t_struct(RoleData)21_storage)"
					},
					{
						"astId": 569,
						"contract": "contracts/TransparentSupplyChain.sol:TransparentSupplyChain",
						"label": "products",
						"offset": 0,
						"slot": "1",
						"type": "t_mapping(t_uint256,t_struct(Product)557_storage)"
					},
					{
						"astId": 575,
						"contract": "contracts/TransparentSupplyChain.sol:TransparentSupplyChain",
						"label": "productCheckpoints",
						"offset": 0,
						"slot": "2",
						"type": "t_mapping(t_uint256,t_array(t_struct(Checkpoint)564_storage)dyn_storage)"
					},
					{
						"astId": 578,
						"contract": "contracts/TransparentSupplyChain.sol:TransparentSupplyChain",
						"label": "productIdCounter",
						"offset": 0,
						"slot": "3",
						"type": "t_struct(Counter)414_storage"
					}
				],
				"types": {
					"t_address": {
						"encoding": "inplace",
						"label": "address",
						"numberOfBytes": "20"
					},
					"t_array(t_struct(Checkpoint)564_storage)dyn_storage": {
						"base": "t_struct(Checkpoint)564_storage",
						"encoding": "dynamic_array",
						"label": "struct TransparentSupplyChain.Checkpoint[]",
						"numberOfBytes": "32"
					},
					"t_bool": {
						"encoding": "inplace",
						"label": "bool",
						"numberOfBytes": "1"
					},
					"t_bytes32": {
						"encoding": "inplace",
						"label": "bytes32",
						"numberOfBytes": "32"
					},
					"t_mapping(t_address,t_bool)": {
						"encoding": "mapping",
						"key": "t_address",
						"label": "mapping(address => bool)",
						"numberOfBytes": "32",
						"value": "t_bool"
					},
					"t_mapping(t_bytes32,t_struct(RoleData)21_storage)": {
						"encoding": "mapping",
						"key": "t_bytes32",
						"label": "mapping(bytes32 => struct AccessControl.RoleData)",
						"numberOfBytes": "32",
						"value": "t_struct(RoleData)21_storage"
					},
					"t_mapping(t_uint256,t_array(t_struct(Checkpoint)564_storage)dyn_storage)": {
						"encoding": "mapping",
						"key": "t_uint256",
						"label": "mapping(uint256 => struct TransparentSupplyChain.Checkpoint[])",
						"numberOfBytes": "32",
						"value": "t_array(t_struct(Checkpoint)564_storage)dyn_storage"
					},
					"t_mapping(t_uint256,t_struct(Product)557_storage)": {
						"encoding": "mapping",
						"key": "t_uint256",
						"label": "mapping(uint256 => struct TransparentSupplyChain.Product)",
						"numberOfBytes": "32",
						"value": "t_struct(Product)557_storage"
					},
					"t_string_storage": {
						"encoding": "bytes",
						"label": "string",
						"numberOfBytes": "32"
					},
					"t_struct(Checkpoint)564_storage": {
						"encoding": "inplace",
						"label": "struct TransparentSupplyChain.Checkpoint",
						"members": [
							{
								"astId": 559,
								"contract": "contracts/TransparentSupplyChain.sol:TransparentSupplyChain",
								"label": "location",
								"offset": 0,
								"slot": "0",
								"type": "t_string_storage"
							},
							{
								"astId": 561,
								"contract": "contracts/TransparentSupplyChain.sol:TransparentSupplyChain",
								"label": "description",
								"offset": 0,
								"slot": "1",
								"type": "t_string_storage"
							},
							{
								"astId": 563,
								"contract": "contracts/TransparentSupplyChain.sol:TransparentSupplyChain",
								"label": "timestamp",
								"offset": 0,
								"slot": "2",
								"type": "t_uint256"
							}
						],
						"numberOfBytes": "96"
					},
					"t_struct(Counter)414_storage": {
						"encoding": "inplace",
						"label": "struct Counters.Counter",
						"members": [
							{
								"astId": 413,
								"contract": "contracts/TransparentSupplyChain.sol:TransparentSupplyChain",
								"label": "_value",
								"offset": 0,
								"slot": "0",
								"type": "t_uint256"
							}
						],
						"numberOfBytes": "32"
					},
					"t_struct(Product)557_storage": {
						"encoding": "inplace",
						"label": "struct TransparentSupplyChain.Product",
						"members": [
							{
								"astId": 546,
								"contract": "contracts/TransparentSupplyChain.sol:TransparentSupplyChain",
								"label": "name",
								"offset": 0,
								"slot": "0",
								"type": "t_string_storage"
							},
							{
								"astId": 548,
								"contract": "contracts/TransparentSupplyChain.sol:TransparentSupplyChain",
								"label": "origin",
								"offset": 0,
								"slot": "1",
								"type": "t_string_storage"
							},
							{
								"astId": 550,
								"contract": "contracts/TransparentSupplyChain.sol:TransparentSupplyChain",
								"label": "timestamp",
								"offset": 0,
								"slot": "2",
								"type": "t_uint256"
							},
							{
								"astId": 552,
								"contract": "contracts/TransparentSupplyChain.sol:TransparentSupplyChain",
								"label": "organicCertified",
								"offset": 0,
								"slot": "3",
								"type": "t_bool"
							},
							{
								"astId": 554,
								"contract": "contracts/TransparentSupplyChain.sol:TransparentSupplyChain",
								"label": "fairTradeCertified",
								"offset": 1,
								"slot": "3",
								"type": "t_bool"
							},
							{
								"astId": 556,
								"contract": "contracts/TransparentSupplyChain.sol:TransparentSupplyChain",
								"label": "currentOwner",
								"offset": 2,
								"slot": "3",
								"type": "t_address"
							}
						],
						"numberOfBytes": "128"
					},
					"t_struct(RoleData)21_storage": {
						"encoding": "inplace",
						"label": "struct AccessControl.RoleData",
						"members": [
							{
								"astId": 18,
								"contract": "contracts/TransparentSupplyChain.sol:TransparentSupplyChain",
								"label": "hasRole",
								"offset": 0,
								"slot": "0",
								"type": "t_mapping(t_address,t_bool)"
							},
							{
								"astId": 20,
								"contract": "contracts/TransparentSupplyChain.sol:TransparentSupplyChain",
								"label": "adminRole",
								"offset": 0,
								"slot": "1",
								"type": "t_bytes32"
							}
						],
						"numberOfBytes": "64"
					},
					"t_uint256": {
						"encoding": "inplace",
						"label": "uint256",
						"numberOfBytes": "32"
					}
				}
			},
			"userdoc": {
				"kind": "user",
				"methods": {
					"addCheckpoint(uint256,string,string)": {
						"notice": "Adds a checkpoint to a product's journey."
					},
					"addProduct(string,string,bool,bool)": {
						"notice": "Adds a new product to the supply chain."
					},
					"getCheckpoints(uint256)": {
						"notice": "Retrieves checkpoints for a product by ID."
					},
					"getProduct(uint256)": {
						"notice": "Retrieves product details by ID."
					},
					"transferProduct(uint256,address)": {
						"notice": "Transfers ownership of a product to another address."
					}
				},
				"version": 1
			}
		}
	}
}